:020000040000FA
:0400000048EF00F0D5
:0400080027D81100E4
:10001800D8CF07F0E0CF08F0096E7EA20ED0382ABC
:100028002C502D10D8B403D02C06000E2D5A7E92D9
:10003800630E0F01506FC00E4F6F9EA003D0392A78
:10004800CD909E90095008C0E0FF07C0D8FF10006F
:10005800E9CF00F0EACF01F09EAA11D0026A070E9C
:10006800036E78EC06F0D8B008D0026A070E036E6B
:10007800AECF04F04AEC06F002D0AECF02F000C0DA
:10008800E9FF01C0EAFF12004BD80A6A8CEC05F0C0
:10009800090E0A6E8CEC05F073EC08F0090E0A6E76
:1000A8009AEC05F00A0E0A6E8CEC05F047D90A0E98
:1000B8000A6E9AEC05F0070E0A6E8CEC05F0E7EC78
:1000C80006F0070E0A6E9AEC05F0080E0A6E8CEC24
:1000D80005F03AEC0BF0080E0A6E9AEC05F038526F
:1000E800D8B40CD0010E0A6E8CEC05F067DA010E5C
:1000F8000A6E9AEC05F07D92386A7D823952D8B43E
:100108000BD0060E0A6E8CEC05F008DB060E0A6EA4
:100118009AEC05F0CD80396A0A6A9AEC05F0B5D7F1
:100128000FEE37F0ED6AEA50FDE1E950FBE1EF6AC6
:10013800720ED36E9B8C816A8A6A0F01396B0B6AC7
:10014800070E0C6E1AEC06F097EC06F072EC05F050
:10015800B0D92B902B92E4EC06F0DBEC08F022EC03
:100168000BF081EC08F093EC08F00E6A0F6A51EC82
:100178000CF0F40E2C6E010E2D6E600E0C6E0D6AD6
:10018800EC0EF0EC07F0600E0C6E0D6A88EF07F0CD
:1001980016C0E9FF17C0EAFFEFCF1BF018C0E9FF50
:1001A80019C0EAFFEFCF1CF015501B181A6EF00BA0
:1001B8001A3A1A1A1A50F00B1C181B6E1A341A34F1
:1001C8001B1AE00B1B1A1A3A1A181C6E16C0E9FF04
:1001D80017C0EAFF1BC0EFFF18C0E9FF19C0EAFF0C
:1001E8001CC0EFFF12007FCF15F0176A7F28166E2C
:1001F8007FCF18F0196ACCD77F50D8B412007F503F
:10020800D8B412007F50D8B412007F687F687F6A24
:100218007F507F6012D07F507F2415EC0DF07F6EE9
:100228007FCF15F07F0E166E0F0E176E7F0E186EAD
:100238000F0E196EADDF7F2AEBD77FCFE9FFEA6A91
:100248007FCFEFFF7FCFE9FFEA6A7FCFEFFF120092
:1002580015501610D8B4120017501810D8B4120040
:1002680015C0E9FF16C0EAFFEF6A17C0E9FF18C01A
:10027800EAFFEF6A12001E90F2BE1E801CC0AAFFA1
:100288001BC0A9FF1DC0A8FFA69CA69EA684F29E1F
:10029800550EA76EAA0EA76EA6821EA0F29E1EB0CD
:1002A800F28EA694A6B2FED7120013C0AAFF12C0FF
:1002B800A9FFA69CA69EA680A8CF14F014501200F1
:1002C80013501410D8B41200186A1750186017D0B9
:1002D80013C019F014C01AF015C01BF016C01CF09A
:1002E80019C0E9FF1AC0EAFFEFCF1DF0C4DF152AD5
:1002F800000E1622132A000E1422182AE6D712001E
:100308000C52D8B41200106A0F50106011D00DC0F2
:1003180012F00EC013F0C9DF116EEA6A10500C24F7
:10032800E96E11C0EFFF0D2A000E0E22102AECD73D
:1003380012002BB2010C2BB0020C000C030E026E43
:10034800080E036E78EC06F0D8A00BD0030E0B6EE7
:10035800080E0C6E1AEC06F0050E0E6E0F6A51ECC4
:100368000CF02BA406D0230E0E6E0F6A51EC0CF085
:1003780024D8026A070E036E78EC06F0D8A00CD0D9
:10038800430E0E6E0F6A51EC0CF00B6A070E0C6EE2
:100398001AEC06F0E4EC06F02BA006D0630E0E6E05
:1003A8000F6A51EC0CF02B902BA206D0810E0E6E2A
:1003B8000F6A51EC0CF02B9212000A6A600E0A6068
:1003C80019D0300E0A24E96E030EEA6AEA22EF6AAF
:1003D8000A2A300E0A24E96E030EEA6AEA22EF6A54
:1003E8000A2A300E0A24E96E030EEA6AEA22EF6846
:1003F8000A2AE4D793D981BAFED781AAFED7E4ECBA
:1004080006F00B6A070E0C6E1AEF06F0196E080E4E
:100418001C6E1B6A18501932D8B01B261B321A32B0
:100428001C2EF9D71A5012001F6E206A110E216E69
:1004380008D0203622361F50205C22B0D880D8B091
:10044800206E1D361E36212EF4D71D5012007F6AED
:100458007F6A600E7F600BD0900E7F24E96E030EDA
:10046800EA6AEA22EF50D8A47F2A7F2AF2D77F507F
:1004780012000A680B6A600E0B600DD0300E0B2458
:10048800E96E030EEA6AEA22EF50D8B402D00A6A8B
:1004980002D00B2AF0D70C6A600E0C603FD1300EE8
:1004A8000C24E96E030EEA6AEA220AC0EFFF0C2A5E
:1004B800F3D7EADA600E0A6E0A06300E0A24E96EED
:1004C800030EEA6AEA22EF6A0A52D8A4F5D7600E48
:1004D8000A6E0A06900E0A24E96E030EEA6AEA22F8
:1004E800EF6A0A52D8A4F5D7C00E0A6E0A06D89049
:1004F8000A34E96EEA6AEA36F00EE926030EEA22C1
:10050800EE6AEF6A0A52D8A4F1D7C00E0A6E0A063C
:10051800D8900A34E96EEA6AEA36B00EE926040E83
:10052800EA22EE6AEF6A0A52D8A4F1D70C0E0A6ED4
:100538000A06700E0A24E96E050EEA6AEA22EF6AD4
:100548000A52D8A4F5D7600E0A6E0A067C0E0A2451
:10055800E96E050EEA6AEA22EF6A0A52D8A4F5D7CC
:100568000501DC6BDD6BDE91DE9312000D6A600E17
:100578000D6023D0020EEA6E0CC0E9FFEFCF0EF03B
:10058800300E0D24E96E030EEA6AEA220EC0EFFF70
:100598000C2AD8900D34E96EEA6AEA36F00EE9269C
:1005A800030EEA22EE6AEF6A900E0D24E96E030E3E
:1005B800EA6AEA22EF6A0D2ADAD71200700E0D6E87
:1005C800050E0E6E010E0B6E0A6A600E0A6024D0CC
:1005D800900E0A24E96E030EEA6AEA22EF50D8B4B4
:1005E80019D0D8900A34E96EEA6AEA36F00EE9269C
:1005F800030EEA22EE50EF10D8B40CD0D8900A348B
:10060800E96EEA6AEA36F00EE926030EEA22EE06F9
:10061800000EEF5A0A2AD9D70A6A600E0A607DD0FE
:10062800900E0A24E96E030EEA6AEA22EF50D8B463
:1006380069D0D8900A34E96EEA6AEA36F00EE926FB
:10064800030EEA22EE50EF10D8A45CD07C0E0A24E8
:10065800E96E050EEA6AEA22EFCF0CF0900E0A2442
:10066800E96E030EEA6AEA220C50EF6010D0900E91
:100678000A24E96E030EEA6AEA22EFCF0CF0900E24
:100688000A24E96E030EEA6AEA22EF6A08D0900E9D
:100698000A24E96E030EEA6AEA220C50EF5ED8904B
:1006A8000A34E96EEA6AEA36B00EE926040EEA224E
:1006B800EECF0FF0EECF10F0D8900A34E96EEA6A68
:1006C800EA36F00EE926030EEA220FC0EEFF10C04C
:1006D800EEFF0DC0E9FF0EC0EAFF0B50EF14D8B4CF
:1006E80009D0300E0A24E96E030EEA6AEA220C5099
:1006F800EF5E08D0300E0A24E96E030EEA6AEA2299
:100708000C50EF26D8900B36D8A405D00D2A000E31
:100718000E22010E0B6E0A2A80D71200300E0D6EC3
:10072800030E0E6EC3D1EA6A080E0C24E96EEECFF2
:100738001AF0EECF1BF0A6EC08F01CC00DF01DC09F
:100748000EF0700E0F6E050E106E010E116EEA6A35
:10075800040E0C24E96EEFCF14F0EA6A050E0C249F
:10076800E96EEFCF15F0EA6A060E0C24E96EEFCFBA
:1007780016F00CC01AF0010E1C6E1B6A600E1B608E
:1007880080D11AC0E9FFEA6A1C50EF14D8B453D1DB
:10079800300E1B24E96E030EEA6AEA22EFCF17F047
:1007A8001750166009D01650175E0FC0E9FF10C029
:1007B800EAFF1150EF1209D01750165C176E0FC0E0
:1007C800E9FF10C0EAFF111CEF16D8901136D8A423
:1007D80005D00F2A000E1022010E116E010E186EA0
:1007E800126A136A1752D8B419D017C01DF01E6ABE
:1007F80018501ADE1DC019F00DC01DF00EC01EF0F5
:10080800195012DE1DC012F01EC013F01250131042
:10081800D8B4182A12501310D8B4E7D77C0E1B246A
:10082800E96E050EEA6AEA2218C0EFFF900E1B2453
:10083800E96E030EEA6AEA2217C0EFFFD8901B346C
:10084800E96EEA6AEA36B00EE926040EEA2212C018
:10085800EEFF13C0EEFFD8901B34E96EEA6AEA3661
:10086800F00EE926030EEA2212C0EEFF13C0EEFFD7
:100878001B2A300E1B24E96E030EEA6AEA22EFCF28
:1008880017F01750156009D01550175E0FC0E9FF13
:1008980010C0EAFF1150EF1209D01750155C176EFF
:1008A8000FC0E9FF10C0EAFF111CEF16D8901136EF
:1008B800D8A405D00F2A000E1022010E116E010EC9
:1008C800186E126A136A1752D8B419D017C01DF0DF
:1008D8001E6A1850A9DD1DC019F00DC01DF00EC00C
:1008E8001EF01950A1DD1DC012F01EC013F01250E9
:1008F8001310D8B4182A12501310D8B4E7D77C0EA6
:100908001B24E96E050EEA6AEA2218C0EFFF900E72
:100918001B24E96E030EEA6AEA2217C0EFFFD8909B
:100928001B34E96EEA6AEA36B00EE926040EEA22BA
:1009380012C0EEFF13C0EEFFD8901B34E96EEA6ACE
:10094800EA36F00EE926030EEA2212C0EEFF13C0C3
:10095800EEFF1B2A300E1B24E96E030EEA6AEA2218
:10096800EFCF17F01750146009D01450175E0FC05E
:10097800E9FF10C0EAFF1150EF1209D01750145CBC
:10098800176E0FC0E9FF10C0EAFF111CEF16D890D0
:100998001136D8A405D00F2A000E1022010E116EB0
:1009A800010E186E126A136A1752D8B419D017C0FC
:1009B8001DF01E6A185038DD1DC019F00DC01DF05D
:1009C8000EC01EF0195030DD1DC012F01EC013F00D
:1009D80012501310D8B4182A12501310D8B4E7D7ED
:1009E8007C0E1B24E96E050EEA6AEA2218C0EFFFA6
:1009F800900E1B24E96E030EEA6AEA2217C0EFFF85
:100A0800D8901B34E96EEA6AEA36B00EE926040E7D
:100A1800EA2212C0EEFF13C0EEFFD8901B34E96E35
:100A2800EA6AEA36F00EE926030EEA2212C0EEFF61
:100A380013C0EEFF1DD01B2A1B2AD8901136D8A44C
:100A480005D00F2A000E1022010E116ED890113613
:100A5800D8A405D00F2A000E1022010E116ED890CE
:100A68001136D8A405D00F2A000E1022010E116EDF
:100A7800D8901C36D8A403D01A2A010E1C6E1B2A43
:100A88007DD60501DE9112000F013A6B9496948889
:100A9800949AC78EC698C78CC680C68A12009E963E
:100AA80011C0C9FF9EA6FED7C9501200600E0D24C2
:100AB8000F6E000E0E20106E0F500D5C10500E5869
:100AC800D8B00BD00DC0E9FF0EC0EAFFEFCF11F090
:100AD800E6DF0D2A000E0E22EFD71200270ECD6E8C
:100AE8009D80770E0F014E6F7D82630E506FC00E92
:100AF8004F6F7F0E516F7D90FA0E526F4F0EBA6E88
:100B0800BA949D924B0EBB6E360EB16EB180120038
:100B1800B2CF0BF0B3CF0CF003EE18F0D8900A3434
:100B2800E9260BC0EEFF0CC0EEFF1200B2CF0BF0AF
:100B3800B3CF0CF003EE18F0D8900A34E9260B5026
:100B4800EE5C0C50EF58D8B00AD003EE18F0D890ED
:100B58000A34E926EE500B5EEF500C5A0DD003EE26
:100B680018F0D8900A34E926EE1C0D6EEF1C0E6EB4
:100B78000D500B260E500C2203EE00F0D8900A34CC
:100B8800E9260B50EE5C0C50EF58D8B009D003EEB4
:100B980000F0D8900A34E9260BC0EEFF0CC0EEFF37
:100BA80003EE18F0D8900A34E926EE6AEF6A1200CC
:100BB800156A166A1650D8A436D00C0E156033D0B4
:100BC8001350155C14501658D8B02DD0D890153441
:100BD800E96E1634EA6E030EEA26EECF17F0EECF72
:100BE80018F017C019F018C01AF0A6DA1BC017F0D1
:100BF8001CC018F011C0E9FF12C0EAFF17C0EEFFD1
:100C080018C0EEFF020E1126000E1222D8901534DD
:100C1800E96E1634EA6E030EEA26EE6AEF6A152AC2
:100C2800000E1622C7D71550152412000B50E96E76
:100C38000C28EA6EEF6A0B28E96E010E0C20EA6EAA
:100C4800EF6A020E0B24E96E010E0C20EA6EEF909B
:100C580012001850E96E1928EA6EEFCF1AF01A50F0
:100C68001824E96E000E1920EA6EEFCF1BF0185019
:100C7800E96E1928EA6E1A28EF6E020E1824E96E3A
:100C8800010E1920EA6EEF901B5012000228E96E3F
:100C9800010E0320EA6EEF28056E0250E96E032864
:100CA800EA6E0550EF18D8B417D00228E96E010E85
:100CB8000320EA6EEFCF06F006500224E96E000E1C
:100CC8000320EA6E04C0EFFF0228E96E010E03203C
:100CD800EA6E05C0EFFF07D0020E0224E96E010E8E
:100CE8000320EA6EEF801200020E0224E96E010E64
:100CF8000320EA6ED890EFB0D880120018281C6E36
:100D0800010E19201D6E16EC0DF01A6E18501C6E8F
:100D180019281D6E16EC0DF01B6ED8901A501B6228
:100D280001D0D8801200949CAC84B886220EAF6E95
:100D3800B06AAB8EAC98AC9CAB9CAB88AC8A9D8AF5
:100D4800AB9612009EA8FED715C0ADFF12000B6E21
:100D58000201DB51D8A41AD0DA0EDA6117D0DA51C1
:100D6800E96E020EDB25EA6E0BC0EFFFDA2B000EF0
:100D7800DB230BC015F0DD0E166E020E176EDE0EAD
:100D8800186E020E196ECCEC00F00CD02B84DAC26F
:100D98000CF0DBC20DF0E9EC0CF09D0E0E6E0F6A44
:100DA80051EF0CF012000201DA6BDB6BDD0E156EF1
:100DB800020E166EDE0E176E020E186E2CEF01F084
:100DC8000201DC6BF0D72BB41200026A070E036E27
:100DD8008BDFD8B01200186A070E196E8FDFD8B0F3
:100DE8001200186A070E196E34DF0A6E0201DC5110
:100DF800D8B40AD0010AD8B40ED0030AD8B423D084
:100E0800010AD8B426D07FD00F0E0A627CD0010E1A
:100E18000201DC6F78D0C7DF0F0E0A6201D073D0F1
:100E2800040E0A6203D00201DC6B6DD0050E0A6263
:100E380004D0020E0201DC6F66D00A5088DF030E70
:100E48000201DC6F60D00A5082DF030E0201DC6F02
:100E58005AD0050E0A6204D0020E0201DC6F53D08C
:100E68000F0E0A6204D0010E0201DC6F4CD0040E92
:100E78000A6247D00201DC6BDE53D8A40BD0DD53E5
:100E8800D8A408D0010E0B6EE1DA000AD8A42DD040
:100E98002B822BD02B80A30E0E6E0F6A51EC0CF018
:100EA800DEC20EF0BBEC0CF0DDC20EF0BBEC0CF0B9
:100EB800020E0201DA5DE96E000EDB59EA6E020EDF
:100EC800EA26EFCF0EF0BBEC0CF0DA05E96E000E67
:100ED800DB59EA6E020EEA26EFCF0EF0BBEC0CF0FF
:100EE800C50E0E6E0F6A51EC0CF05DDF600E0C6ED5
:100EF8000D6A0201015170D8600E0C6E0D6A04D89B
:100F080002D00A5024DF12000CC0E9FF0DC0EAFF2E
:100F1800EECF13F0EECF14F00CC011F00DC012F0AC
:100F28000E0E156E166A0F0E176E186A2CEC01F06D
:100F38000F0E156E07DF13501410D8B428D01306FF
:100F4800000E145A11C0E9FF12C0EAFFEFCF10F0EB
:100F5800112A000E122210C015F00E0E166E176A16
:100F68000F0E186E196ACCEC00F010500F0AD8B4A6
:100F780007D01050050AD8B403D0040E106203D06D
:100F8800050E156EDFDE10C015F0DCDED4D70E506E
:100F98000F0AD8B407D00E50050AD8B403D0040EEF
:100FA8000E6203D0050E156ECDDE0EC015F0CADE3A
:100FB8000F500F0AD8B407D00F50050AD8B403D081
:100FC800040E0F6203D0050E156EBCDE0FC015F0BF
:100FD800B9DE040E156EB6D60E6E020E0C24E96E3E
:100FE800000E0D20EA6E0EC0EFFF9DEC01F00F6EB3
:100FF800030E0C24E96E000E0D20EA6E0FC0EFFF01
:101008000CC0E9FF0DC0EAFF040EEE6EEF6A0E5049
:10101800F30AD8B40AD0030AD8B419D01E0AD8B42F
:1010280029D0030AD8B43AD059D0010E106E040E54
:101038000C24116E000E0D20126EC5D80CC0E9FFED
:101048000DC0EAFF070EEE26000EEF2247D0040E71
:101058000C24116E000E0D20126E1368146AA8DDA0
:10106800106E0CC0E9FF0DC0EAFF1050EE26000E0E
:10107800EF2234D0040E0C24116E000E0D20126ED7
:101088001368146AEFEC0CF0106E0CC0E9FF0DC089
:10109800EAFF1050EE26000EEF2220D0000E1CECC6
:1010A8000DF0106E040E0C24E96E000E0D20EA6E91
:1010B80010C0EFFF010E1CEC0DF0106E050E0C2495
:1010C800E96E000E0D20EA6E10C0EFFF0CC0E9FFBC
:1010D8000DC0EAFF020EEE26000EEF22120081BAC2
:1010E80003D0010E446E120081AA06D0442C03D00E
:1010F80087DA3DEC02F0446A1200D08E9F909F92EE
:10110800A2927F907F929F8A9D8AF28CF28CF28EB7
:101118001200F28CF28E1200F29CF29E12001B68F2
:10112800030E1C6E010E1D6E3FEF01F01B68030ECF
:101138001C6E1D683FEF01F01AC01BF019C01CF0AF
:101148001B5012001BC01CF01AC01DF01C501200CE
:10115800156A0F0E1414156E14380F0B146E14C084
:1011680018F00A0E0AEC02F01AC014F014501524F4
:101178001200156A166A090E146411D014C01DF005
:101188001E6A0A0E18EC02F01DC016F016C018F000
:101198000A0E0AEC02F01AC017F01750145E14C0B9
:1011A80015F01638F00B166E155016241200FDD8DF
:1011B800A20E146E156A166A01D9A20E146E010EDB
:1011C800156E166AFBD01050010AD8B404D0010A73
:1011D800D8B476D0E9D0A20E146E020E156E08D9D6
:1011E8007F0B146EB5DF136E11C0E9FF12C0EAFF62
:1011F80013C0EFFFA20E146E030E156EF9D87F0B05
:10120800146EA6DF136E1128E96E000E1220EA6E26
:1012180013C0EFFFA20E146E040E156EE9D83F0B33
:10122800146E96DF136E020E1124E96E000E122062
:10123800EA6E13C0EFFFA20E146E050E156ED8D815
:101248003F0B146E85DF136E030E1124E96E000E3A
:101258001220EA6E13C0EFFFA20E146E060E156E72
:10126800C7D8070B146E74DF136E060E1124E96ECF
:10127800000E1220EA6E13C0EFFFA20E146E070EC6
:10128800156EB6D81F0B146E63DF136E1306040EAB
:101298001124E96E000E1220EA6E13C0EFFFA20EB1
:1012A800146E080E156EA4D8146E52DF136E050E58
:1012B8001124E96E000E1220EA6E13C0EFFF74D0FD
:1012C80011C0E9FF12C0EAFFEFCF14F052DF136E2E
:1012D800A20E146E020E156E13C016F06FD81128E8
:1012E800E96E000E1220EA6EEFCF14F042DF136EA3
:1012F800A20E146E030E156E13C016F05FD8020E00
:101308001124E96E000E1220EA6EEFCF14F031DFDF
:10131800136EA20E146E040E156E13C016F04ED87E
:10132800030E1124E96E000E1220EA6EEFCF14F0BE
:1013380020DF136EA20E146E050E156E13C016F084
:101348003DD8060E1124E96E000E1220EA6EEFCF8A
:1013580014F00FDF136EA20E146E060E156E13C076
:1013680016F02CD8040E1124E96E000E1220EA6E35
:10137800EF28146EFEDE136EA20E146E070E156EA5
:1013880013C016F01BD8050E1124E96E000E1220AA
:10139800EA6EEFCF14F0EDDE136EA20E146E080E97
:1013A800156E13C016F00AD812000F01396B270EFC
:1013B8006E6E6D6A080E6C6E6C8A12001490A49E94
:1013C8006B80A4AEFED7A49E14C06FFFA4AEFED758
:1013D800A49E15C06FFFA4AEFED7A49E16C06FFFD3
:1013E800A4AEFED7A49E6B84A4AEFED7A49E120022
:1013F800FE0E1414166EA49E6B80A4AEFED7A49E97
:1014080016C06FFFA4AEFED7A49E15C06FFFA4AE92
:10141800FED7A49E6B84A4AEFED7A49EA49E6B8226
:10142800A4AEFED7A49E168016C06FFFA4AEFED74A
:10143800A49E6B86A4AEFED7A49E6B986FCF17F0C0
:101448006B84A4AEFED7A49E1750120037B0000CD0
:10145800020EEA6E0BC0E9FFEF50F80AD8B41FD0AD
:101468000F0AD8B422D0010AD8B42BD0080AD8B4AD
:1014780072D00B0AD8B474D0060AD8B47DD0070A43
:10148800D8B47BD0050AD8B4AED0010AD8B4B0D04D
:101498001E0AD8B4AED0030AD8B4ACD0ACD0AF0EC4
:1014A8000E6E0F6AFAD93780010CEA6A2E0E3224C2
:1014B800E96E35C0EFFF322A020E0F6E0BC00EF038
:1014C800B4D13206EA6A2E0E3224E96EEFCF0CF060
:1014D800020EEA6E0B28E96E0C283F0BEF6E020E27
:1014E800EA6E040E0B24E96E32C0EFFF020EEA6EBC
:1014F800030E0B24E96EEFCF0DF0020EEA6E020E1A
:101508000B24E96E0DC0EFFFC70E0E6E0F6AC5D92A
:1015180035C00EF02CDA020EEA6E0B28E96EEFCF1A
:101528000EF025DA020EEA6E040E0B24E96EEFCFF8
:101538000EF01DDA020EEA6E020E0B24E96EEFCFF2
:101548000EF015DAC50E0E6E0F6AA7D9020E0F6ED1
:101558000BC00EF06AD1020E0F6E0BC00EF065D1F3
:10156800600E0C6E0D6AF50E37DD600E0C6E0D6A9E
:10157800CBDCDCDDFF00000C010C020EEA6E060E6F
:101588000B24E96EEFCF28F0020EEA6E050E0B244D
:10159800E96EEFCF27F0020EEA6E040E0B24E96E17
:1015A800EFCF26F0020EEA6E070E0B24E96EEFCF9E
:1015B80029F0020EEA6E030E0B24E96EEFCF25F038
:1015C800020EEA6E020E0B24E96EEFCF24F0020E33
:1015D800EA6E0B28E96EEFCF23F0106A230E116E26
:1015E800126AF1DD010C0B280C6EBAEC02F0010C4A
:1015F800010C010C010C020E0F6E0BC00EF015D180
:10160800FD0E1B6E030E1C6E1D6A3FEC01F0366A60
:10161800FB0E1B6E030E1C6E1D6A3FEC01F0346A54
:10162800F90E1B6E030E1C6E1D6A3FEC01F0356A45
:1016380034C033F02C6A2D6A37901200FD0E126EFA
:10164800030E136E59EC01F0366EFB0E126E030E8C
:10165800136E59EC01F0346EF90E126E030E136E10
:1016680059EC01F0356E34C033F0120037B0C8DFE2
:101678002C502D10D8A412003350356201D012001E
:1016880033C018F00B0E0AEC02F01A500A6E1B5009
:101698000B6E450E0C6E0AC00DF00BC00EF00B0E53
:1016A8000F6E84EC01F04550F70AD8B40AD0010A4D
:1016B800D8B419D00A0AD8B47DD0020AD8B49BD0BD
:1016C800B3D0D60E0E6E0F6AE8D833283F0B336EB0
:1016D800FD0E1B6E030E1C6E010E1D6E3FEC01F01D
:1016E800010E366EA1D04752D8A407D0DF0E0E6E79
:1016F8000F6AD3D846C033F097D0010E47641DD087
:10170800FD0E0E6E0F6AC9D847C00EF030D949C019
:101718000EF02DD9C50E0E6E0F6ABFD84706450EBE
:10172800136E146A0AC015F00BC016F00B0E176E74
:1017380064EC01F046C033F077D04952D8A41BD0EE
:10174800130E0E6E010E0F6EA8D833283F0B336EA2
:10175800FB0E1B6E030E1C6E33C01DF03FEC01F038
:1017680033C034F0FD0E1B6E030E1C6E1D6A3FEC79
:1017780001F0366A59D02C0E0E6E010E0F6E8DD800
:1017880048C047F033C018F00B0E0AEC02F01A50AC
:101798000C6E1B500D6E450E136E146A0CC015F0BE
:1017A8000DC016F00B0E176E64EC01F033283F0BDA
:1017B800336E3AD0460E0C6E97EC03F04D52D8A417
:1017C80009D04EC01AF04FC01BF0BCDC1CC02CF076
:1017D8001DC02DF033283F0B336E3652D8A424D0C9
:1017E800FB0E1B6E030E1C6E33C01DF03FEC01F0A8
:1017F80033C034F019D046C01AF047C01BF0A2DC41
:101808001CC02CF01DC02DF033283F0B336E365210
:10181800D8A40AD0FB0E1B6E030E1C6E33C01DF03D
:101828003FEC01F033C034F0120035283F0B106E46
:1018380010503418D8B420D035C018F00B0E0AEC6C
:1018480002F01A50116E1B50126E0EC013F00FC02A
:1018580014F011C015F012C016F00B0E176E64ECE0
:1018680001F0F90E1B6E030E1C6E10C01DF03FEC4C
:1018780001F010C035F0010C000C030E026E080ECA
:10188800036E78EC06F0D8B01200030E026E080E54
:10189800036E11C004F04AEF06F0030E026E080E44
:1018A800036E78EC06F0D8B012000EC011F00FC02D
:1018B80012F0CAD8106E1052D8B40DD00E2A000EED
:1018C8000F2210C011F0D9DF0EC011F00FC012F0B6
:1018D800BBD8106EF0D712007FCF11F0CED7030E11
:1018E800026E080E036E78EC06F0D8B012007F6A1C
:1018F8007F6A7F6A630E7F6412D07FCF1DF01E6AF5
:10190800640E18EC02F01DC07FFF7F6A640E186E2B
:101918007F500AEC02F01AC07FFF7F507F5E090EED
:101928007F6412D07FCF1DF01E6A0A0E18EC02F0F9
:101938001DC07FFF7F6A7FCF18F00A0E0AEC02F005
:101948001AC07FFF7F507F5E090E7F647FCF7FFFC5
:101958007F50D8B404D0300E7F24116E8EDF300E45
:101968007F24116E8ADF300E7F24116E86D7030E16
:10197800026E080E036E78EC06F0D8B01200F00E76
:101988000E140F6E0F380F0B0F6E090E0F6407D071
:101998000A0E0F5E410E0F24116E6FDF04D0300E59
:1019A8000F24116E6ADF0F0E0E140F6E090E0F64EE
:1019B80007D00A0E0F5E410E0F24116E5EDF04D0B1
:1019C800300E0F24116E59D712000DC00EF0CFDF64
:1019D8000CC00EF0CCD7156A166A030E186E080EE6
:1019E800196E82EC06F0D8B01AD01350155C14505A
:1019F8001658D8B014D0030E186E080E196E2DECB8
:101A080006F0176E11C0E9FF12C0EAFF17C0EFFF1A
:101A1800112A000E1222152A000E1622DED71550A2
:101A28001200000C1C50E96E1D50EA6EEF501200B7
:101A3800116E11504E0FF66E1A0EF76AF722F86AF9
:101A48000800F550120000011150640FF66E1A0ECE
:101A58001220F76EF86A0800F55012005761697491
:101A680000453A30353B204552524F523A20547285
:101A78006163656275666665722066756C6C0045A3
:101A88003A30343B204552524F523A20436F6D6DE5
:101A9800616E646275666665722066756C6C004579
:101AA8003A30333B204552524F523A2052656365D3
:101AB8006976656275666665722066756C6C004548
:101AC8003A30323B204552524F523A204372632DEE
:101AD800436865636B206661696C656400453A30EC
:101AE800313B204552524F523A20454550524F4DB6
:101AF8002069732066756C6C0020636E74720043F5
:101B08007263206572726F723A2000436C6561726D
:101B1800696E6720736372697074206275666665A2
:101B2800720A00416464204C4F4F505F4F46463A5A
:101B380020004C4F4F505F4F4E0A00456E64206F97
:101B48006620696E66696E697465206C6F6F7020B7
:101B5800726561636865640A006E6F726D616C20FE
:101B68006C6F6F7020697465726174696F6E00457F
:101B78006E64206F6620746F70206C6F6F702072B7
:101B88006561636865640A00456E64206F66206954
:101B98006E6E6572206C6F6F702072656163686528
:041BA800640A0000CB
:00000001FF
