:020000040000FA
:0400000044EF00F0D9
:0400080023D81100E8
:10001800D8CF07F0E0CF08F0096E7EA209D05F2A9A
:10002800D2EC0FF07E92EC0E0F01506F780E4F6FEE
:100038009EA004D000016E2BCD909E90095008C060
:10004800E0FF07C0D8FF1000E9CF00F0EACF01F0C9
:100058009EAA11D0026A070E036EF1EC09F0D8B01F
:1000680008D0026A070E036EAECF04F0C3EC09F0A5
:1000780002D0AECF02F000C0E9FF01C0EAFF1200D3
:100088004CD80A6A01EC09F0090E0A6E01EC09F075
:10009800BCEC0BF0090E0A6E0FEC09F00A0E0A6EA2
:1000A80001EC09F046D90A0E0A6E0FEC09F0070EAA
:1000B8000A6E01EC09F059EC0AF0070E0A6E0FEC13
:1000C80009F0080E0A6E01EC09F09BEC0EF0080E20
:1000D8000A6E0FEC09F05F52D8B40CD0010E0A6E0C
:1000E80001EC09F034DA010E0A6E0FEC09F07D928A
:1000F8005F6A7D8200016E53D8B40BD0060E0A6E7B
:1001080001EC09F0D4DA060E0A6E0FEC09F0CD8086
:100118006E6B0A6A0FEC09F0B4D70FEE37F0ED6A90
:10012800EA50FDE1E950FBE1EF6A720ED36E9B8C59
:10013800816A8A6A0F01396B0A6A070E0B6E93ECA3
:1001480009F010EC0AF0E7EC08F039D949EC0AF0AC
:100158002AEC0CF081EC0EF0A2EC11F0DBEC0FF0C5
:10016800D3EC0BF0E2EC0BF00F6AEEEC0FF0140E90
:100178000001626F636B0D6A050E0E6EEC0E0F6E5A
:10018800106A41EC0BF00D6A050E0E6ED9EF0AF0FD
:1001980017C0E9FF18C0EAFFEFCF1CF019C0E9FF4C
:1001A8001AC0EAFFEFCF1DF016501C181B6EF00B9B
:1001B8001B3A1B1A1B50F00B1D181C6E1B341B34EA
:1001C8001C1AE00B1C1A1B3A1B181D6E17C0E9FFFE
:1001D80018C0EAFF1CC0EFFF19C0E9FF1AC0EAFF08
:1001E8001DC0EFFF12007FCF16F0186A7F28176E28
:1001F8007FCF19F01A6ACCD77F50D8B412007F503D
:10020800D8B412007F50D8B412007F687F687F6A24
:100218007F507F6012D07F507F24E4EC11F07F6E16
:100228007FCF16F07F0E176E0F0E186E7F0E196EA9
:100238000F0E1A6EADDF7F2AEBD77FCFE9FFEA6A90
:100248007FCFEFFF7FCFE9FFEA6A7FCFEFFF120092
:1002580016501710D8B4120018501910D8B412003C
:1002680016C0E9FF17C0EAFFEF6A18C0E9FF19C016
:10027800EAFFEF6A12001F90F2BE1F801DC0AAFF9E
:100288001CC0A9FF1EC0A8FFA69CA69EA684F29E1D
:10029800550EA76EAA0EA76EA6821FA0F29E1FB0CB
:1002A800F28EA694A6B2FED7120013C0AAFF12C0FF
:1002B800A9FFA69CA69EA680A8CF14F014501200F1
:1002C80014501510D8B41200196A1850196017D0B4
:1002D80014C01AF015C01BF016C01CF017C01DF092
:1002E8001AC0E9FF1BC0EAFFEFCF1EF0C4DF162AD1
:1002F800000E1722142A000E1522192AE6D712001A
:100308000C52D8B41200106A0F50106011D00DC0F2
:1003180012F00EC013F0C9DF116EEA6A10500C24F7
:10032800E96E11C0EFFF0D2A000E0E22102AECD73D
:100338001200850E026E036AF1EC09F0D8A009D00C
:10034800850E0A6E0B6A93EC09F0080E0F6EEEEF3D
:100358000FF01200226E080E256E246A21502232F8
:10036800D8B0242624322332252EF9D72350120060
:10037800236E246A110E256E08D0243626362350A3
:10038800245C26B0D880D8B0246E21362236252E9B
:10039800F4D72150120000016F69706971697269A0
:1003A800C80E1A6E1B6AEFEC0BF01CC077F01DC06C
:1003B80078F0736B746B756B6F0E0C6E7ED1BDEC41
:1003C80008F0600E0A6E0A06030E0A24E96E080E8B
:1003D800EA6AEA22EF6A0A52D8A4F5D7600E0A6ED2
:1003E8000A06630E0A24E96E080EEA6AEA22EF6A30
:1003F8000A52D8A4F5D7C00E0A6E0A06D8900A3455
:10040800E96EEA6AEA36C30EE926080EEA22EE6ABF
:10041800EF6A0A52D8A4F1D7C00E0A6E0A06D8901D
:100428000A34E96EEA6AEA36830EE926090EEA22F8
:10043800EE6AEF6A0A52D8A4F1D70C0E0A6E0A06C1
:10044800430E0A24E96E0A0EEA6AEA22EF6A0A52A1
:10045800D8A4F5D7600E0A6E0A064F0E0A24E96E74
:100468000A0EEA6AEA22EF6A0A52D8A4F5D70A0104
:10047800AF6BB06B12000E6A600E0E6067D0020E92
:10048800EA6E0DC0E9FFEFCF0FF00D2A020EEA6EFB
:100498000DC0E9FFEFCF10F00D2A020EEA6E0DC075
:1004A800E9FFEFCF11F00D2A030E0E24E96E080EB6
:1004B800EA6AEA2211C0EFFFD8900E34E96EEA6AC0
:1004C800EA36C30EE926080EEA22EE6AEF6A630EE0
:1004D8000E24E96E080EEA6AEA22EF6A0E2A030E73
:1004E8000E24E96E080EEA6AEA2210C0EFFFD890DF
:1004F8000E34E96EEA6AEA36C30EE926080EEA22E5
:10050800EE6AEF6A630E0E24E96E080EEA6AEA22C2
:10051800EF6A0E2A030E0E24E96E080EEA6AEA2232
:100528000FC0EFFFD8900E34E96EEA6AEA36C30EC0
:10053800E926080EEA22EE6AEF6A630E0E24E96ED7
:10054800080EEA6AEA22EF6A0E2A96D71200430ECC
:100558000D6E0A0E0E6E010E0B6E0A6A600E0A60B0
:1005680024D0630E0A24E96E080EEA6AEA22EF50E4
:10057800D8B419D0D8900A34E96EEA6AEA36C30EBC
:10058800E926080EEA22EE50EF10D8B40CD0D89025
:100598000A34E96EEA6AEA36C30EE926080EEA2248
:1005A800EE06000EEF5A0A2AD9D70A6A600E0A60C8
:1005B8007DD0630E0A24E96E080EEA6AEA22EF503B
:1005C800D8B469D0D8900A34E96EEA6AEA36C30E1C
:1005D800E926080EEA22EE50EF10D8A45CD04F0EA0
:1005E8000A24E96E0A0EEA6AEA22EFCF0CF0630EDB
:1005F8000A24E96E080EEA6AEA220C50EF6010D06D
:10060800630E0A24E96E080EEA6AEA22EFCF0CF0BC
:10061800630E0A24E96E080EEA6AEA22EF6A08D035
:10062800630E0A24E96E080EEA6AEA220C50EF5EAD
:10063800D8900A34E96EEA6AEA36830EE926090E8A
:10064800EA22EECF0FF0EECF10F0D8900A34E96E20
:10065800EA6AEA36C30EE926080EEA220FC0EEFF60
:1006680010C0EEFF0DC0E9FF0EC0EAFF0B50EF14FB
:10067800D8B409D0030E0A24E96E080EEA6AEA2201
:100688000C50EF5E08D0030E0A24E96E080EEA6AE1
:10069800EA220C50EF26D8900B36D8A405D00D2AA4
:1006A800000E0E22010E0B6E0A2A80D71200030ECE
:1006B8000A6E080E0B6ECFEF08F0EA6A080E0C24DB
:1006C800E96EEECF21F0EECF22F0F5EC0BF023C06F
:1006D8000DF024C00EF0430E0F6E0A0E106E010EC0
:1006E800116EEA6A040E0C24E96EEFCF14F0EA6A80
:1006F800050E0C24E96EEFCF15F0EA6A060E0C24FD
:10070800E96EEFCF16F00CC01AF0010E1C6E1B6AD2
:10071800600E1B6080D11AC0E9FFEA6A1C50EF1412
:10072800D8B453D1030E1B24E96E080EEA6AEA22F4
:10073800EFCF17F01750166009D01650175E0FC08C
:10074800E9FF10C0EAFF1150EF1209D01750165CEC
:10075800176E0FC0E9FF10C0EAFF111CEF16D89002
:100768001136D8A405D00F2A000E1022010E116EE2
:10077800010E186E126A136A1752D8B419D017C02E
:1007880021F0226A1850F4DD21C019F00DC021F0C3
:100798000EC022F01950ECDD21C012F022C013F077
:1007A80012501310D8B4182A12501310D8B4E7D71F
:1007B8004F0E1B24E96E0A0EEA6AEA2218C0EFFF00
:1007C800630E1B24E96E080EEA6AEA2217C0EFFFDF
:1007D800D8901B34E96EEA6AEA36830EE926090ED8
:1007E800EA2212C0EEFF13C0EEFFD8901B34E96E68
:1007F800EA6AEA36C30EE926080EEA2212C0EEFFBC
:1008080013C0EEFF1B2A030E1B24E96E080EEA6ACA
:10081800EA22EFCF17F01750156009D01550175E70
:100828000FC0E9FF10C0EAFF1150EF1209D01750AE
:10083800155C176E0FC0E9FF10C0EAFF111CEF1618
:10084800D8901136D8A405D00F2A000E1022010E18
:10085800116E010E186E126A136A1752D8B419D0A5
:1008680017C021F0226A185083DD21C019F00DC08D
:1008780021F00EC022F019507BDD21C012F022C0F9
:1008880013F012501310D8B4182A12501310D8B4F9
:10089800E7D74F0E1B24E96E0A0EEA6AEA2218C04F
:1008A800EFFF630E1B24E96E080EEA6AEA2217C0FE
:1008B800EFFFD8901B34E96EEA6AEA36830EE92620
:1008C800090EEA2212C0EEFF13C0EEFFD8901B34C7
:1008D800E96EEA6AEA36C30EE926080EEA2212C071
:1008E800EEFF13C0EEFF1B2A030E1B24E96E080E51
:1008F800EA6AEA22EFCF17F01750146009D01450B3
:10090800175E0FC0E9FF10C0EAFF1150EF1209D0BF
:100918001750145C176E0FC0E9FF10C0EAFF111CD6
:10092800EF16D8901136D8A405D00F2A000E102241
:10093800010E116E010E186E126A136A1752D8B49E
:1009480019D017C021F0226A185012DD21C019F001
:100958000DC021F00EC022F019500ADD21C012F09E
:1009680022C013F012501310D8B4182A12501310C2
:10097800D8B4E7D74F0E1B24E96E0A0EEA6AEA22BA
:1009880018C0EFFF630E1B24E96E080EEA6AEA221C
:1009980017C0EFFFD8901B34E96EEA6AEA36830E77
:1009A800E926090EEA2212C0EEFF13C0EEFFD89026
:1009B8001B34E96EEA6AEA36C30EE926080EEA2213
:1009C80012C0EEFF13C0EEFF1DD01B2A1B2AD890C1
:1009D8001136D8A405D00F2A000E1022010E116E70
:1009E800D8901136D8A405D00F2A000E1022010E77
:1009F800116ED8901136D8A405D00F2A000E1022F7
:100A0800010E116ED8901C36D8A403D01A2A010EF4
:100A18001C6E1B2A7DD61200EA6A080E0C24E96EA9
:100A2800EECF21F0EECF22F0F5EC0BF023C00DF065
:100A380024C00EF0EA6A060E0C24E96E7F0EEF144D
:100A48000F6EEA6A070E0C24E96EEF04106E104868
:100A580003D01052D8A402D0010E106E0CC0E9FFCA
:100A6800EA6AEFCF11F0EA6A030E0C24E96E11501E
:100A7800EF6007D0EA6A030E0C24E96EEF50115EAE
:100A880007D0EA6A030E0C24E96E1150EF5C116E70
:100A980011C021F0226A10506BDC21C011F0EA6A03
:100AA8000C28E96EEFCF12F0EA6A040E0C24E96E06
:100AB8001250EF6007D0EA6A040E0C24E96EEF507A
:100AC800125E07D0EA6A040E0C24E96E1250EF5C3D
:100AD800126E12C021F0226A10504ADC21C012F0B6
:100AE800EA6A020E0C24E96EEFCF13F0EA6A050EEB
:100AF8000C24E96E1350EF6007D0EA6A050E0C2447
:100B0800E96EEF50135E07D0EA6A050E0C24E96E11
:100B18001350EF5C136E13C021F0226A105028DCCA
:100B280021C013F00CC0E9FFEA6AEFCF14F0EA6ABB
:100B38000C28E96EEFCF15F0EA6A020E0C24E96E74
:100B4800EFCF16F0430E1D6E0A0E1E6E010E1F6EBD
:100B58000FC021F0030EAEEC01F023C00FF010C05F
:100B680021F0030EAEEC01F023C010F010500F245A
:100B7800206E196A600E1960FBD22050195CD8A04B
:100B88006BD1EA6A030E0C24E96EEFCF14F0EA6A1F
:100B9800040E0C24E96EEFCF15F0EA6A050E0C245A
:100BA800E96EEFCF16F0030E1924E96E080EEA6A13
:100BB800EA22EFCF1AF01A50166009D016501A5EC2
:100BC8001DC0E9FF1EC0EAFF1F50EF1209D01A50DE
:100BD800165C1A6E1DC0E9FF1EC0EAFF1F1CEF1647
:100BE800D8901F36D8A405D01D2A000E1E22010E4B
:100BF8001F6E010E1B6E176A186A1A52D8B41BD0E2
:100C08001AC021F0226A1B50BCEC01F021C01CF074
:100C18000DC021F00EC022F01C50BCEC01F021C028
:100C280017F022C018F017501810D8B41B2A175004
:100C38001810D8B4E5D74F0E1924E96E0A0EEA6ADF
:100C4800EA221BC0EFFF630E1924E96E080EEA6A58
:100C5800EA221AC0EFFFD8901934E96EEA6AEA3638
:100C6800830EE926090EEA2217C0EEFF18C0EEFF30
:100C7800D8901934E96EEA6AEA36C30EE926080EF6
:100C8800EA2217C0EEFF18C0EEFF192A030E192436
:100C9800E96E080EEA6AEA22EFCF1AF01A501560D8
:100CA80009D015501A5E1DC0E9FF1EC0EAFF1F508B
:100CB800EF1209D01A50155C1A6E1DC0E9FF1EC04C
:100CC800EAFF1F1CEF16D8901F36D8A405D01D2A9E
:100CD800000E1E22010E1F6E010E1B6E176A186A87
:100CE8001A52D8B41BD01AC021F0226A1B50BCEC8F
:100CF80001F021C01CF00DC021F00EC022F01C50E4
:100D0800BCEC01F021C017F022C018F017501810E1
:100D1800D8B41B2A17501810D8B4E5D74F0E192489
:100D2800E96E0A0EEA6AEA221BC0EFFF630E192475
:100D3800E96E080EEA6AEA221AC0EFFFD890193461
:100D4800E96EEA6AEA36830EE926090EEA2217C036
:100D5800EEFF18C0EEFFD8901934E96EEA6AEA3659
:100D6800C30EE926080EEA2217C0EEFF18C0EEFFF0
:100D7800192A030E1924E96E080EEA6AEA22EFCF4F
:100D88001AF01A50146009D014501A5E1DC0E9FFF9
:100D98001EC0EAFF1F50EF1209D01A50145C1A6ED9
:100DA8001DC0E9FF1EC0EAFF1F1CEF16D8901F36B2
:100DB800D8A405D01D2A000E1E22010E1F6E010E9A
:100DC8001B6E176A186A1A52D8B41BD01AC021F0C1
:100DD800226A1B50BCEC01F021C01CF00DC021F0B0
:100DE8000EC022F01C50BCEC01F021C017F022C04C
:100DF80018F017501810D8B41B2A17501810D8B468
:100E0800E5D74F0E1924E96E0A0EEA6AEA221BC0DA
:100E1800EFFF630E1924E96E080EEA6AEA221AC087
:100E2800EFFFD8901934E96EEA6AEA36830EE926AC
:100E3800090EEA2217C0EEFF18C0EEFFD890193449
:100E4800E96EEA6AEA36C30EE926080EEA2217C0F6
:100E5800EEFF18C0EEFF8CD10F50195CD8A07DD1E1
:100E6800030E1924E96E080EEA6AEA22EFCF1AF097
:100E78001A50166009D016501A5E1DC0E9FF1EC030
:100E8800EAFF1F50EF1209D01A50165C1A6E1DC0E7
:100E9800E9FF1EC0EAFF1F1CEF16D8901F36D8A422
:100EA80005D01D2A000E1E22010E1F6E010E1B6E9C
:100EB800176A186A1A52D8B41BD01AC021F0226ACD
:100EC8001B50BCEC01F021C01CF00DC021F00EC07D
:100ED80022F01C50BCEC01F021C017F022C018F021
:100EE80017501810D8B41B2A17501810D8B4E5D7C3
:100EF8004F0E1924E96E0A0EEA6AEA221BC0EFFFB8
:100F0800630E1924E96E080EEA6AEA221AC0EFFF96
:100F1800D8901934E96EEA6AEA36830EE926090E92
:100F2800EA2217C0EEFF18C0EEFFD8901934E96E18
:100F3800EA6AEA36C30EE926080EEA2217C0EEFF6F
:100F480018C0EEFF192A030E1924E96E080EEA6A82
:100F5800EA22EFCF1AF01A50156009D015501A5E20
:100F68001DC0E9FF1EC0EAFF1F50EF1209D01A503A
:100F7800155C1A6E1DC0E9FF1EC0EAFF1F1CEF16A4
:100F8800D8901F36D8A405D01D2A000E1E22010EA7
:100F98001F6E010E1B6E176A186A1A52D8B41BD03E
:100FA8001AC021F0226A1B50BCEC01F021C01CF0D1
:100FB8000DC021F00EC022F01C50BCEC01F021C085
:100FC80017F022C018F017501810D8B41B2A175061
:100FD8001810D8B4E5D74F0E1924E96E0A0EEA6A3C
:100FE800EA221BC0EFFF630E1924E96E080EEA6AB5
:100FF800EA221AC0EFFFD8901934E96EEA6AEA3695
:10100800830EE926090EEA2217C0EEFF18C0EEFF8C
:10101800D8901934E96EEA6AEA36C30EE926080E52
:10102800EA2217C0EEFF18C0EEFF192A030E192492
:10103800E96E080EEA6AEA22EFCF1AF01A50146035
:1010480009D014501A5E1DC0E9FF1EC0EAFF1F50E8
:10105800EF1209D01A50145C1A6E1DC0E9FF1EC0A9
:10106800EAFF1F1CEF16D8901F36D8A405D01D2AFA
:10107800000E1E22010E1F6E010E1B6E176A186AE3
:101088001A52D8B41BD01AC021F0226A1B50BCECEB
:1010980001F021C01CF00DC021F00EC022F01C5040
:1010A800BCEC01F021C017F022C018F0175018103E
:1010B800D8B41B2A17501810D8B4E5D74F0E1924E6
:1010C800E96E0A0EEA6AEA221BC0EFFF630E1924D2
:1010D800E96E080EEA6AEA221AC0EFFFD8901934BE
:1010E800E96EEA6AEA36830EE926090EEA2217C093
:1010F800EEFF18C0EEFFD8901934E96EEA6AEA36B6
:10110800C30EE926080EEA2217C0EEFF18C0EEFF4C
:10111800EA6A030E0C24E96E1450EF6003D01150F4
:10112800145E02D011501426EA6A040E0C24E96EEB
:101138001550EF6003D01250155E02D012501526DC
:10114800EA6A050E0C24E96E1650EF6003D01350BE
:10115800165E0CD01350162609D0D8901F36D8A486
:1011680005D01D2A000E1E22010E1F6E192A02D557
:1011780012000F013A6B94969488949AC78EC69879
:10118800C78CC680C68A12009E960EC0C9FF9EA64E
:10119800FED7C9501200600E0A240C6E000E0B20F8
:1011A8000D6E0C500A5C0D500B58D8B00BD00AC00D
:1011B800E9FF0BC0EAFFEFCF0EF0E6DF0A2A000EC8
:1011C8000B22EFD71200370ECD6E9D80370E0F0120
:1011D8004E6F7D82EC0E506F780E4F6F7F0E516F01
:1011E8007D90FA0E526F4F0EBA6EBA949D924B0EC6
:1011F800BB6E360EB16EB1801200B2CF0BF0B3CF1A
:101208000CF0EA6AD8900A34470FE96E0BC0EEFF7B
:101218000CC0EEFF1200B2CF0BF0B3CF0CF0EA6AAD
:10122800D8900A34470FE96E0B50EE5C0C50EF581B
:10123800D8B00AD0EA6AD8900A34470FE96EEE505F
:101248000B5EEF500C5A0DD0EA6AD8900A34470F5B
:10125800E96EEE1C0D6EEF1C0E6E0D500B260E5037
:101268000C22EA6AD8900A342F0FE96E0B50EE5C14
:101278000C50EF58D8B009D0EA6AD8900A342F0F2A
:10128800E96E0BC0EEFF0CC0EEFFEA6AD8900A3494
:10129800470FE96EEE6AEF6A1200166A176A17506E
:1012A800D8A43AD00C0E166037D01450165C1550DE
:1012B8001758D8B031D0D8901634E96E1734EA6E82
:1012C8002F0EE926000EEA22EECF18F0EECF19F025
:1012D80018C01AF019C01BF07EDA1CC018F01DC027
:1012E80019F012C0E9FF13C0EAFF18C0EEFF19C0D9
:1012F800EEFF020E1226000E1322D8901634E96E65
:101308001734EA6E2F0EE926000EEA22EE6AEF6A1B
:10131800162A000E1722C3D71650162412000A5098
:10132800E96E0B28EA6EEF6A0A28E96E010E0B20B7
:10133800EA6EEF6A020E0A24E96E010E0B20EA6ECD
:10134800EF9012001950E96E1A28EA6EEFCF1BF0E1
:101358001B501924E96E000E1A20EA6EEFCF1CF01C
:101368001950E96E1A28EA6E1B28EF6E020E19242E
:10137800E96E010E1A20EA6EEF901C501200022846
:10138800E96E010E0320EA6EEF28056E0250E96E41
:101398000328EA6E0550EF18D8B417D00228E96E72
:1013A800010E0320EA6EEFCF06F006500224E96E24
:1013B800000E0320EA6E04C0EFFF0228E96E010E5A
:1013C8000320EA6E05C0EFFF07D0020E0224E96E83
:1013D800010E0320EA6EEF801200020E0224E96E6D
:1013E800010E0320EA6ED890EFB0D88012001928B9
:1013F8001D6E010E1A201E6EE5EC11F01B6E1950C1
:101408001D6E1A281E6EE5EC11F01C6ED8901B504C
:101418001C6201D0D8801200949CAC84B886220E3D
:10142800AF6EB06AAB8EAC98AC9CAB9CAB88AC8A08
:101438009D8AAB9612009EA8FED716C0ADFF12007B
:101448000B6E6E0E02016E6123D002EE00F06E513B
:10145800E9260BC0EFFF6E2B0BC016F0700E176E4F
:10146800020E186E710E196E020E1A6ECCEC00F098
:10147800120002016E6B700E166E020E176E710E60
:10148800186E020E196E2CEF01F002016F6BF1D786
:101498000D6A050E0E6E01C20FF0030E106EEDD828
:1014A8000D6A050E0E6E81D8F0D7026A070E036E1C
:1014B80094DFD8A009D0260E0F6EEEEC0FF00A6A62
:1014C800070E0B6E2CDFE4D7196A070E1A6E8FDF32
:1014D800D8B06AD0196A070E1A6E34DF0A6E020194
:1014E8006F51D8B40AD0010AD8B40ED0030AD8B4C0
:1014F80024D0010AD8B427D0E7D70F0E0A62E4D760
:10150800010E02016F6FE0D7B4DF0A500F0AD8B49A
:10151800DBD70B0AD8B404D0010AD8B404D007D05A
:1015280002016F6BD1D7020E02016F6FCDD70A503F
:1015380087DF030E02016F6FC7D70A5081DF030EE2
:1015480002016F6FC1D7050E0A6204D0020E0201B4
:101558006F6FBAD70F0E0A6204D0010E02016F6FC7
:10156800B3D7040E0A621DD002016F6B030E0B6E17
:101578007153D8A407D07053D8A404D00C6AB5DA34
:101588000B6E02D0020E0B6E0D6A050E0E6E00C2B7
:101598000FF00BC010F071D80D6A050E0E6E05D84D
:1015A80093D70A504DDF90D712000DC0E9FF0EC047
:1015B800EAFFEECF14F0EECF15F00DC012F00EC01A
:1015C80013F00F0E166E176A100E186E196A2CECAF
:1015D80001F00F0E166E2FDF14501510D8B428D056
:1015E8001406000E155A12C0E9FF13C0EAFFEFCF28
:1015F80011F0122A000E132211C016F00F0E176EEA
:10160800186A100E196E1A6ACCEC00F011500F0A05
:10161800D8B407D01150050AD8B403D0040E11620B
:1016280003D0050E166E07DF11C016F004DFD4D7FD
:101638000F500F0AD8B407D00F50050AD8B403D0FA
:10164800040E0F6203D0050E166EF5DE0FC016F0FD
:10165800F2DE10500F0AD8B407D01050050AD8B4DB
:1016680003D0040E106203D0050E166EE4DE10C01F
:1016780016F0E1DE040E166EDED6020E0D24E96EBB
:10168800000E0E20EA6E0FC0EFFF030E0D24E96E68
:10169800000E0E20EA6E10C0EFFF0DC0E9FF0EC06D
:1016A800EAFF040EEE6EEF6A0F50F30AD8B40AD0C0
:1016B800030AD8B419D01E0AD8B429D0030AD8B45A
:1016C8003AD055D0010E116E040E0D24126E000E84
:1016D8000E20136EC7D80DC0E9FF0EC0EAFF070E33
:1016E800EE26000EEF2243D0040E0D24126E000EDB
:1016F8000E20136E1468156AD0DD116E0DC0E9FF57
:101708000EC0EAFF1150EE26000EEF2230D0040E74
:101718000D24126E000E0E20136E1468156A81ECEB
:1017280010F0116E0DC0E9FF0EC0EAFF1150EE2651
:10173800000EEF221CD060C011F0040E0D24E96EDB
:10174800000E0E20EA6E11C0EFFF61C011F0050E09
:101758000D24E96E000E0E20EA6E11C0EFFF0DC0D9
:10176800E9FF0EC0EAFF020EEE26000EEF2212007D
:1017780081BA04D0010E0001796F120081AA0ED03F
:101788000001792D09D06DA105D0CFEC01F0000141
:101798006D9102D000016D810001796B1200D08E2D
:1017A8009F909F92A2927F907F929F8A9D8AF28CAF
:1017B800F28CF28E1200F28CF28E12001C68030E6C
:1017C8001D6E010E1E6E3FEF01F01C68030E1D6EAC
:1017D8001E683FEF01F01BC01CF01AC01DF01C5022
:1017E800120022C023F021C024F023501200166AF0
:1017F8000F0E1514166E15380F0B156E15C021F047
:101808000A0EAEEC01F023C015F015501624120094
:10181800166A176A090E156411D015C021F0226ADC
:101828000A0EBCEC01F021C017F017C021F00A0E17
:10183800AEEC01F023C018F01850155E15C016F074
:101848001738F00B176E165017241200FDD8A20E89
:10185800156E166A176A01D9A20E156E010E166E5C
:10186800176AFBD01150010AD8B404D0010AD8B4C1
:1018780076D0E9D0A20E156E020E166E08D97F0B2F
:10188800156EB5DF146E12C0E9FF13C0EAFF14C06D
:10189800EFFFA20E156E030E166EF9D87F0B156EAC
:1018A800A6DF146E1228E96E000E1320EA6E14C02B
:1018B800EFFFA20E156E040E166EE9D83F0B156EDB
:1018C80096DF146E020E1224E96E000E1320EA6EE3
:1018D80014C0EFFFA20E156E050E166ED8D83F0B7A
:1018E800156E85DF146E030E1224E96E000E1320A8
:1018F800EA6E14C0EFFFA20E156E060E166EC7D85C
:10190800070B156E74DF146E060E1224E96E000EB6
:101918001320EA6E14C0EFFFA20E156E070E166EA6
:10192800B6D81F0B156E63DF146E1406040E12244E
:10193800E96E000E1320EA6E14C0EFFFA20E156EBA
:10194800080E166EA4D8156E52DF146E050E1224FA
:10195800E96E000E1320EA6E14C0EFFF74D012C0B7
:10196800E9FF13C0EAFFEFCF15F052DF146EA20EA5
:10197800156E020E166E14C017F06FD81228E96E95
:10198800000E1320EA6EEFCF15F042DF146EA20EA0
:10199800156E030E166E14C017F05FD8020E1224CF
:1019A800E96E000E1320EA6EEFCF15F031DF146EEA
:1019B800A20E156E040E166E14C017F04ED8030E44
:1019C8001224E96E000E1320EA6EEFCF15F020DF27
:1019D800146EA20E156E050E166E14C017F03DD8C3
:1019E800060E1224E96E000E1320EA6EEFCF15F0F2
:1019F8000FDF146EA20E156E060E166E14C017F0C9
:101A08002CD8040E1224E96E000E1320EA6EEF287B
:101A1800156EFEDE146EA20E156E070E166E14C03D
:101A280017F01BD8050E1224E96E000E1320EA6E7B
:101A3800EFCF15F0EDDE146EA20E156E080E166EC1
:101A480014C017F00AD812000F01396B270E6E6EFA
:101A58006D6A080E6C6E6C8A12001590A49E6B80DD
:101A6800A4AEFED7A49E15C06FFFA4AEFED7A49E59
:101A780016C06FFFA4AEFED7A49E17C06FFFA4AE1A
:101A8800FED7A49E6B84A4AEFED7A49E1200FE0EC1
:101A98001514176EA49E6B80A4AEFED7A49E17C023
:101AA8006FFFA4AEFED7A49E16C06FFFA4AEFED7EC
:101AB800A49E6B84A4AEFED7A49EA49E6B82A4AE03
:101AC800FED7A49E178017C06FFFA4AEFED7A49EB2
:101AD8006B86A4AEFED7A49E6B986FCF18F06B846C
:101AE800A4AEFED7A49E1850120000016DB3010CDD
:101AF800020EEA6E0CC0E9FFEF50F80AD8B425D000
:101B08000F0AD8B428D0010AD8B432D0080AD8B4F9
:101B180078D00B0AD8B47AD0060AD8B485D0070A88
:101B2800D8B483D0050AD8B4B6D0010AD8B4B8D08E
:101B38001E0AD8B4B6D0030AD8B4B4D0110AD8B49F
:101B4800B2D0050AD8B4B4D0B8D0460E0F6E42DA77
:101B580000016D83000CEA6A640E00016825E96ED5
:101B68006BC0EFFF682B020E106E0CC00FF0EAD1AD
:101B780000016807EA6A640E6825E96EEFCF0DF088
:101B8800020EEA6E0C28E96E0D283F0BEF6E020E6E
:101B9800EA6E040E0C24E96E68C0EFFF020EEA6ECE
:101BA800030E0C24E96EEFCF0EF0020EEA6E020E61
:101BB8000C24E96E0EC0EFFF5E0E0F6E0BDA6BC0E1
:101BC8000FF068DA020EEA6E0C28E96EEFCF0FF01C
:101BD80061DA020EEA6E040E0C24E96EEFCF0FF004
:101BE80059DA020EEA6E020E0C24E96EEFCF0FF0FE
:101BF80051DA5C0E0F6EEED9020E106E0CC00FF0AB
:101C0800A1D1020E106E0CC00FF09CD10D6A050E0A
:101C18000E6EF50E0F6E106A30DD0D6A050E0E6E33
:101C2800C4DCD3DDFF00000C000C020EEA6E060EC9
:101C38000C24E96EEFCF2CF0020EEA6E050E0C2490
:101C4800E96EEFCF2BF0020EEA6E040E0C24E96E5B
:101C5800EFCF2AF0020EEA6E070E0C24E96EEFCFE2
:101C68002DF0020EEA6E030E0C24E96EEFCF29F078
:101C7800020EEA6E020E0C24E96EEFCF28F0020E77
:101C8800EA6E0C28E96EEFCF27F0116A270E126E64
:101C9800136AE8DD000C0C280D6E3FEC02F0000C16
:101CA800000C000C000C020E106E0CC00FF04AD194
:101CB800020E106E0CC00FF045D1040CFD0E1C6E08
:101CC800030E1D6E1E6A3FEC01F000016C6BFB0EEB
:101CD8001C6E030E1D6E1E6A3FEC01F06A6BF90E56
:101CE8001C6E030E1D6E1E6A3FEC01F06B6B6AC022
:101CF80069F0626B636B6D931200FD0E126E030E3A
:101D0800136E59EC01F000016C6FFB0E126E030E9E
:101D1800136E59EC01F06A6FF90E126E030E136E12
:101D280059EC01F06B6F6AC069F06D811200000117
:101D38006DB3C4DF00016DA112000001625163118F
:101D4800D8A41200000169516B6301D0120069C068
:101D580021F00B0EAEEC01F023500A6E24500B6EEE
:101D68007A0E0C6E0AC00DF00BC00EF00B0E0F6E43
:101D780084EC01F000017A51F70AD8B40DD0010AB9
:101D8800D8B41CD00A0AD8B47DD0050AD8B49DD0DE
:101D9800070AD8B4BCD0D5D06D0E0F6E1BD9000180
:101DA80069293F0B696FFD0E1C6E030E1D6E010E37
:101DB8001E6E3FEC01F0010E6C6FC3D000017C5326
:101DC800D8A406D0760E0F6E05D97BC069F0B9D0BD
:101DD800010E00017C651BD0940E0F6EFBD87CC0F1
:101DE8000FF058D97EC00FF055D95C0E0F6EF2D89F
:101DF8007C077A0E146E156A0AC016F00BC017F02D
:101E08000B0E186E64EC01F07BC069F09AD00001EB
:101E18007E53D8A419D0AA0E0F6EDCD869293F0BBF
:101E2800696FFB0E1C6E030E1D6E69C01EF03FEC41
:101E380001F069C06AF0FD0E1C6E030E1D6E1E6A6D
:101E48003FEC01F06C6B7DD0C30E0F6EC3D87DC024
:101E58007CF069C021F00B0EAEEC01F023500C6E43
:101E680024500D6E7A0E146E156A0CC016F00DC053
:101E780017F00B0E186E64EC01F0000169293F0B96
:101E8800696F5FD07B0E0C6E61EC03F0000182532A
:101E9800D8A409D083C021F084C022F0A2DC23C0DA
:101EA80062F024C063F0000169293F0B696F6C532D
:101EB800D8A447D0FB0E1C6E030E1D6E69C01EF021
:101EC8003FEC01F069C06AF03CD07B0E0C6E10EC60
:101ED80005F0000181BF09D083C021F084C022F041
:101EE80080DC23C062F024C063F0000169293F0B45
:101EF800696F6C53D8A425D0FB0E1C6E030E1D6EA3
:101F080069C01EF03FEC01F069C06AF01AD07BC0CE
:101F180021F07CC022F065DC23C062F024C063F0AD
:101F2800000169293F0B696F6C53D8A40AD0FB0ED6
:101F38001C6E030E1D6E69C01EF03FEC01F069C0F7
:101F48006AF0120000016DA16D8100016B293F0B41
:101F5800116E11506A19D8B420D06BC021F00B0E45
:101F6800AEEC01F02350126E2450136E0FC014F023
:101F780010C015F012C016F013C017F00B0E186E33
:101F880064EC01F0F90E1C6E030E1D6E11C01EF0FC
:101F98003FEC01F011C06BF0000C010C0001625124
:101FA8006311D8B403D06207000E635B1200850E7C
:101FB8000A6E0B6A93EF09F0850E026E036AF1EC64
:101FC80009F0D8B01200850E026E036A11C004F041
:101FD800C3EF09F0850E026E036AF1EC09F0D8B080
:101FE80012000F50F4D9106E1052D8B408D00F2A2E
:101FF80010C011F0E1DF0F50EAD9106EF5D71200CA
:102008007FCF11F0D9D7850E026E036AF1EC09F083
:10201800D8B012007F6A7F6A7F6A630E7F6412D02D
:102028007FCF21F0226A640EBCEC01F021C07FFF53
:102038007F6A640E216E7F50AEEC01F023C07FFFF3
:102048007F507F5E090E7F6412D07FCF21F0226A15
:102058000A0EBCEC01F021C07FFF7F6A7FCF21F020
:102068000A0EAEEC01F023C07FFF7F507F5E090EA1
:102078007F647FCF7FFF7F50D8B404D0300E7F2499
:10208800116E9ADF300E7F24116E96DF300E7F249A
:10209800116E92D7850E026E036AF1EC09F0D8B082
:1020A8001200F00E0F14106E10380F0B106E090E80
:1020B800106407D00A0E105E410E1024116E7CDFEA
:1020C80004D0300E1024116E77DF0F0E0F14106E2F
:1020D800090E106407D00A0E105E410E1024116E0E
:1020E8006BDF04D0300E1024116E66D712007FCF3C
:1020F8000FF0D0DF7FCF0FF0CDD7166A176A850EA5
:10210800196E1A6AFBEC09F0D8B019D01450165C95
:1021180015501758D8B013D0850E196E1A6AA6EC48
:1021280009F0186E12C0E9FF13C0EAFF18C0EFFFEC
:10213800122A000E1322162A000E1722E0D7165074
:102148001200F00E7F6003D0500E7F60010C000C6F
:102158007FCFF8FF7FCFF7FF7FCFF6FF7F6A7F6AD9
:102168007F507F5C7F507F58D8B00ED009007FCF5A
:10217800E9FF7FCFEAFFF5CFEFFF7F2A000E7F222E
:102188007F2A000E7F22ECD712007FCF7FFF7FCF00
:102198007FFF7FCF7FFF7F0E7F6E0F0E7F6E020E59
:1021A8007F6E7F6AD5DF7F5012007F507F247F6E5D
:1021B8007F507F207F6E7FCF7FFF7FCF7FFFC1DF84
:1021C800000AD8B412007FCF7FFF7FCF7FFFB9DF2F
:1021D800000AD8B412007F507F5C7F507F58D8B077
:1021E80078D07F507F6EC00E7F147F6E7F507F5CEB
:1021F8007F6E7F507F587F6E7F6A7FCF7FFF7FCF54
:102208007FFF7F0E7F6E0F0E7F6E400E7F6E7F6AA0
:102218009FDF7FCF7FFF7FCF7FFF5CD87F6A7F6A9A
:102228007F50D8A425D0400E7F6022D07F507F5C9D
:102238007F507F58D8A018D07F507F247F6E7F5062
:102248007F207F6E7F507F5C7F507F58D8B00CD046
:102258007F503BD97F6E7F2A7F0E7F24E96E0F0E59
:102268007F20EA6E7FCFEFFF7F2A000E7F22D8D72C
:10227800F86A7FCFF7FF7FCFF6FF7F6A7F6A7F50CC
:10228800D8A410D0400E7F600DD07F0E7F24E96E59
:102298000F0E7F20EA6EEFCFF5FF0D007F2A000EAC
:1022A8007F22EDD7F86A7FCFF7FF7FCFF6FFA68EA4
:1022B800A69CA684F29E550EA76EAA0EA76EA682AD
:1022C800F28EA694400E7F247F6E000E7F207F6ED4
:1022D80082D712007F507F6EC00E7F147F6E7FCF33
:1022E8007FFF7FCF7FFF2DDF000AD8B41200F86A86
:1022F8007FCFF7FF7FCFF6FFA68EA69CA684A68881
:10230800F29E550EA76EAA0EA76EA682F28E0A003E
:1023180012007F6E7F507F6EC00E7F147F6E7F50DD
:10232800D8B40BD07F067FCF7FFF7FCF7FFFD2DF70
:10233800400E7F26000E7F22F2D71200DE0E47D80D
:102348000A6E300E0A5E0AC021F0640EAEEC01F08F
:1023580023C00AF00AC060F0DF0E39D80A6E300ECA
:102368000A5E0AC021F00A0EAEEC01F023C00AF0A2
:102378000A5000016027E00E2AD8D00F6027E20E2D
:1023880026D80A6E300E0A5E0AC021F0640EAEEC42
:1023980001F023C00AF00AC061F0E30E18D80A6EF3
:1023A800300E0A5E0AC021F00A0EAEEC01F023C01E
:1023B8000AF00A506127E40E0AD8D00F61271200EC
:1023C800000C1D50E96E1E50EA6EEF501200116E9F
:1023D8001150EC0FF66E230EF76AF722F86A080020
:1023E800F55012005374617274757000453A3035B7
:1023F8003B204552524F523A2054726163656275D0
:10240800666665722066756C6C00453A30333B2011
:102418004552524F523A2052656365697665627536
:10242800666665722066756C6C00436C65617269DE
:102438006E67207363726970742062756666657270
:102448003B00416464204C4F4F505F4F46463A2052
:10245800004C4F4F505F4F4E3B00456E64206F66F7
:1024680020696E66696E697465206C6F6F70207282
:102478006561636865643B006E6F726D616C206CAA
:102488006F6F7020697465726174696F6E00456E54
:1024980064206F6620746F70206C6F6F7020726597
:1024A80061636865643B00456E64206F6620696EF1
:1024B8006E6572206C6F6F70207265616368656409
:0E24C8003B003030302E303033007F6E000C81
:00000001FF
