:020000040000FA
:02000000622874
:100008002000911E112854180D2823001908F824DF
:100018001128230019082000A0002000911C18288E
:100028009110D60AD608DA262000931C1D289310B2
:100038006D1409002000A400003023009200200065
:10004800240C7F393C3E23009100031C2C28920A83
:1000580023009517151400000000200024183828E4
:10006800230013087F3908002300130D140D08001E
:10007800A02252294F293A10D232E332693B653126
:100088007533E6327210E63A6C3600104529D227ED
:10009800521DA021D221AD21E832E3352033E134CD
:1000A800EC326400A02252294F293A10C522502967
:1000B800CF26A0347310E63A6C360000EF30840087
:1000C8002130850000301B00851A672885001B0039
:1000D800041A6B287B20F62673210C26A3268C2273
:1000E80020006D1C7A28C02420006D106F28723003
:1000F8002100990020008D0122008D0123008D012F
:10010800E72469250D2557252322E42621000E1012
:1001180020000E1021000C1020005510D510D7011A
:10012800D80152307C2544307C2559307C2521006B
:1001380091160B178B1708008501200026088400EC
:100148000008A9008501270884000008AA002508DE
:100158002906A800F039A80EA8062808F0392A06AA
:10016800A900280D280DA906E039A906A80E280619
:10017800AA0085012608840029088000850127082F
:1001880084002A0880000800FF08031DCC28080006
:10019800FF08031DD0280800FF08031DD428080005
:1001A800FF30FF00FF30FF00FF017F087F020318C8
:1001B800ED287F087F07840085010008FF007F087D
:1001C8002000A5007F30A6007F30A700A020FF0AEE
:1001D800D92885017F0884007F08800085017F0871
:1001E80084007F08800008002000A508031DFD2862
:1001F80008002000A608031D022908008501200028
:1002080025088400FF308000850126088400FF301F
:10021800800008002000B0002F0823009100200073
:10022800300823009300151395131515200031107D
:100238008B1B31148B13553023009600AA3096007F
:1002480095142000311C8B1331188B1723001511BE
:100258002300951C30292C2908002000B4003408FC
:100268002300910015139513151413082000B500E9
:10027800350808002000AA00A808031D4429080022
:100288002000AB0120002A082B020318572929084F
:10029800AF0085012808840000080E212000A90A63
:1002A800A80AAB0A462908002000B100AF08031DC0
:1002B8005E2908002000B20120003108320203182C
:1002C8007229300831212000B30032082F0784003A
:1002D800850133088000B00AB20A602908002000AE
:1002E800541C7E29D701D80178307C252000A20132
:1002F8008725E7242000551C86291B30A200872566
:10030800200055102000D51C8E293430A2008725E6
:100318002000D51008002000BC0003103C0CBD00D4
:100328000310BD0C0310BD0C03103D0D3D073D0728
:100338003D073D073D073D073C02BE003B088500E1
:100348003D083A0784000318850A0008BF000130F9
:10035800C0003E080319B629C10003102000C00DD3
:10036800C10BB12920004008BF043B0885003D08A7
:100378003A0784000318850A3F0880000800200017
:10038800BC0003103C0CBD000310BD0C0310BD0CD9
:1003980003103D0D3D073D073D073D073D073D0760
:1003A8003C02BE003B0885003D083A07840003185C
:1003B800850A0008BF000130C0003E080319EA2979
:1003C800C10003102000C00DC10BE5292000C009A1
:1003D8004008BF053B0885003D083A07840003181C
:1003E800850A3F08800008002000AA0003102A0C94
:1003F800AB000310AB0C0310AB0C03102B0D2B0739
:100408002B072B072B072B072B072A02AC002908E1
:1004180085002B08280784000318850A0008AD000A
:100428000130AE002C0803191F2AAF00031020006A
:10043800AE0DAF0B1A2A20002E082D0508005F30DC
:100448002000A200203085005030200022078400C0
:100458000318850A8001A203A208031D262A0800A2
:10046800043020002D07840085010008AE00053007
:100478002D07840085010008AF0006302D07840091
:1004880085010008B0002D08B1000130B300B201A9
:100498006030200032020318862A85013108840062
:1004A80033080005003A0319772A203085005030B8
:1004B800320784000318850A30088000B20A203009
:1004C80085005030320784000318850A2F08800001
:1004D800B20A203085005030320784000318850A9C
:1004E8002E0880007A2A2000B20AB20A03102000DF
:1004F800B30DB308031D832AB10A0130B3002000ED
:10050800B20A4C2A50302000B1002030B200372DFA
:10051800D0302000A5002130A6000130A400A3019E
:100528006030200023020318F12A20308500B03003
:10053800230784000318850A00080319E32A2130D9
:1005480085001030230784000318850A0008031D5E
:10055800E32A20308500B030230784000318850A79
:100568008003213085007030230784000318850A32
:100578000008A700213085001030230784000318E5
:10058800850A27088000D030A8002130A900230858
:10059800F821003A0319DA2A20308500503020006B
:1005A800230784000318850A8003E32A2030850086
:1005B80050302000230784000318850A800A03109E
:1005C8002000A40DA408031DEE2AA50A0319A60AF3
:1005D8000130A4002000A30A942A50302000B10062
:1005E8002030B200372DD0302000B5002130B600C1
:1005F800AE01603020002E020318142B2030850035
:10060800B0302E0784000318850A80012130850048
:1006180010302E0784000318850A8001AE0AFD2ACF
:100628002000AE010C3020002E020318252B2130AB
:100638008500D0302E0784000318850A8001AE0A91
:10064800162B01302000AF002D08B7000130B9008B
:10065800B8016030200038020318BF2C8501370824
:10066800840039080005003A0319B02C06302D071C
:10067800840085010008B400203085005030380718
:1006880084000318850A0008B300330834020318ED
:10069800572B34083302B000D030BA002130BB00E9
:1006A80038088F21612B200033083402B000D03085
:1006B800BA002130BB003808C32121308500103032
:1006C8002000380784000318850A8001213085003E
:1006D8007030380784000318850A800120308500AF
:1006E800B030380784000318850A30088000B00845
:1006F8000319B52B07302D07840085016430BB0032
:10070800B1010830BA0003102000B10DB20DBB0DC5
:10071800031C922B0008B1070318B20A2000BA0B79
:10072800872B213085007030380784000318850A2C
:100738003108BB003208BC00BD011030BA002000EF
:10074800BB0DBC0DBD0D0318AD2B30083D02031CBD
:10075800B12B20003008BD020314800D2000BA0B15
:10076800A32B2000B80A05302D0784008501000856
:10077800B400203085005030380784000318850AFB
:100788000008B300330834020318D42B34083302AA
:10079800B000D030BA002130BB0038088F21DE2BE2
:1007A800200033083402B000D030BA002130BB003A
:1007B8003808C32121308500103020003807840014
:1007C8000318850A800121308500703038078400BD
:1007D8000318850A800120308500B030380784006E
:1007E8000318850A30088000B0080319322C073036
:1007F8002D07840085016430BB00B1010830BA00C0
:1008080003102000B10DB20DBB0D031C0F2C000806
:10081800B1070318B20A2000BA0B042C2130850056
:100828007030380784000318850A3108BB00320885
:10083800BC00BD011030BA002000BB0DBC0DBD0DC1
:1008480003182A2C30083D02031C2E2C20003008E7
:10085800BD020314800D2000BA0B202C2000B80A1A
:1008680004302D07840085010008B400203085007D
:100878005030380784000318850A0008B30033088D
:1008880034020318512C34083302B000D030BA00B7
:100898002130BB0038088F215B2C2000330834023C
:1008A800B000D030BA002130BB003808C321213055
:1008B800850010302000380784000318850A80015D
:1008C800213085007030380784000318850A8001BC
:1008D80020308500B030380784000318850A3008B6
:1008E8008000B0080319AF2C07302D07840085015C
:1008F8006430BB00B1010830BA0003102000B10D0C
:10090800B20DBB0D031C8C2C0008B1070318B20AEA
:100918002000BA0B812C2130850070303807840004
:100928000318850A3108BB003208BC00BD0110302D
:10093800BA002000BB0DBC0DBD0D0318A72C300854
:100948003D02031CAB2C20003008BD020314800DAF
:100958002000BA0B9D2CB32C2000B80AB80A03104B
:100968002000B90DB908031DBC2CB70A0130B90025
:100978002000B80A2D2B08002000A20160302000BA
:1009880022020318E62C20308500B03022078400AC
:100998000318850A00080319E32C2130850010305C
:1009A800220784000318850A00080319E32C213064
:1009B80085001030220784000318850A8003200070
:1009C800A20AC22C08002000D201D301541008004A
:1009D800423020005207840085010008A500520A11
:1009E8000F39D200250808002000A000530A0F394B
:1009F800A1002108520603190A2D4230530784002A
:100A08008501200880002108D3000C2D20005414F3
:100A1800080021008E110E168E12240095109417CE
:100A280015121417951608002000B5003508240083
:100A3800910020009119212D1D2D24001108080076
:100A4800FF00FF08031D292D08007F08FF00FF088D
:100A5800031D362D7F087F078400850100081825AF
:100A6800FF032B2D080020003208B4006030310746
:100A7800B3000318B40A200034083202031C4A2DBC
:100A8800031D562D330831020318562D2000320855
:100A9800850031088400000818252000B10A0319D0
:100AA800B20A3F2D08007D3020009C0021009114DF
:100AB800FF302800960005309700210093140800A5
:100AC800FF007F0820009B00080021000E13230070
:100AD8001E159F1119309B009C019D171E121E1395
:100AE8001D131D169E162100911623009D11080046
:100AF8002000A5002000111A822D7E2D2000250837
:100B080023009A000800200022081E202000A300CD
:100B18002000A3080319992DA20A23087C25200088
:100B280022081E202000A3008C2D0800FF00FF08CB
:100B3800031D9F2D0800FF017F087F020318AC2DBD
:100B480085017F08840000087C25FF0AFF0AA02D84
:100B5800080020006B086C04031DEB2DAD08031D75
:100B6800B62D0034FF3031212000AE00AE08031D41
:100B7800BE2D003420006A1CD12DFE30312120000A
:100B8800AE00AE08031DCC2DFF3031212000AE0091
:100B9800FE302000AF002E080E2120002D08AF00E7
:100BA8000A302E02B0000A30582120006A1CE22DBB
:100BB800FE30AF000A302E020E21E82DFF30200053
:100BC800AF000A302E020E2120002D080800003444
:100BD8002000A600A508031DF32D03100800FF3010
:100BE80031212000A700F5302702031CFD2D03103A
:100BF8000800FF302000AF000A3027070E21200030
:100C08002508A8002708A90026083E210314080083
:100C18002000541C112ED701D80120005308520679
:100C28000319A22EA301A401EC242000A200D808D5
:100C3800031D4B2E220A031D332E0130D700220834
:100C4800D9006830A5006930A600F82020002208E5
:100C5800A5006830A6006930A700A0204A2E0D30F4
:100C68002000A3002308220203184A2E5703031D5D
:100C78004A2E2208D8002208DA000230D7002208BB
:100C8800A5006830A6006930A700A020A22E593020
:100C9800200057078400850122088000D70A033006
:100CA8005802031C5E2E2208A5006830A600693091
:100CB800A700A0202000D803D808031DA22E5B0897
:100CC800F83A0319742E023A03197B2E033A0319D2
:100CD8007E2E0E3A0319812E013A0319872E8F2E84
:100CE800FF302000AF0000300E2144307C2D200062
:100CF8000E10080020000E14080020006A144C3062
:100D08007C2531307C2D20006A10EB01EC014C3041
:100D18007C2530307C2D5B302000A5000430570244
:100D2800EC25031C9C2E47307C2543307C259E2EC9
:100D38002000D514A22E20005514080008002230E7
:100D48002000AD00AD252000AC00AC080319D92E59
:100D58002208FD3A0319BA2E013A0319BF2E023AA6
:100D68000319C42E053A0319D82ED92E2330200092
:100D7800AD003422D92E23302000AD00F722D92E21
:100D880023302000AD0085012D0884000008EB0009
:100D9800EC016B08EC00EB012D0A840085010008CA
:100DA800EB070318EC0AD92ED92E080020006B088F
:100DB8006C040319E32EEB036B0A0319EC03080018
:100DC800FF303121FF3A031DEE2EFF302000AF0027
:100DD80000300E2120006A10EB01EC01FE30AF005C
:100DE80000300E2920008D1CFB2E0C10FD2E20003B
:0E0DF8000C1420008D1A022F8A0182010800BF
:00000001FF
