:020000040000FA
:02000000552881
:100008002000911E11284B180D2823001908BC2226
:100018001128230019082000A00009002000A400CE
:100028000030230092002000240C7F392F3E23004B
:1000380091000318920A2300951715140000000078
:10004800200024182B28230013087F3908002300D8
:10005800130D140D0800A02252294F293A10D2324C
:10006800E332693B65317533E6327210E63A6C3635
:1000780000104529D227521DA021D221AD21E832F6
:10008800E3352033E134EC326400A02252294F29B1
:100098003A10C5225029CF26A0347310E63A6C36A0
:1000A80000005A209020A9203421562872302100BF
:1000B8009900AB221923D1221A22FF30DE21FF3A00
:1000C800031D6B28FF302000AA000030BC21FD3042
:1000D8002000AA000030BC2121000E1020000E10C4
:1000E8006010E010CC01CD01E101A2011030200028
:1000F8002202031886284E302207840085018001D9
:10010800A20A7A28210091160B178B1752302C233C
:1001180044302C2359302C2B20004B1C9828CC0120
:10012800CD01A2013623AB222000601CA0281B3081
:10013800A2003623200060102000E01CA8283430DC
:10014800A20036232000E010080020004B1CAE2837
:10015800CC01CD0120004A08490603193329A3011F
:10016800A401B0222000A200CD08031DE628220F1A
:10017800CF280130CC002208CE005E30A5005F30C9
:10018800A600A82120002208A5005E30A6005F3046
:10019800A700532133290E302000A3002308220290
:1001A800031833294C0B33292208CD002208CF002D
:1001B8000230CC002208A5005E30A6005F30A70000
:1001C800532133294E3020004C0784008501220832
:1001D8008000CC0A03304D02031CF9282208A50030
:1001E8005E30A6005F30A70053212000CD0B3329D5
:1001F8005008F83A03190729023A03190C29033A57
:1002080003190F291229FF302000AA000030BC2949
:1002180020000E10080020000E140800FF30DE2118
:100228002000A500F530250203182029FF30AA0078
:100238000A302507BC2123292000E014080050308B
:100248002000A6002508A70004304C02EB21473007
:100258002C2343302C233329200060140800080085
:10026800FF30DE212000A200A208031952290A301B
:100278002202DE21FD3A03194829013A03194C29C3
:10028800073A03194C294C2922302000A3006E227A
:10029800FF302000AA000A302202BC29080085018C
:1002A8002000260884000008A9008501270884008A
:1002B8000008AA0025082906A800F039A80EA806F3
:1002C8002808F0392A06A900280D280DA906E039C2
:1002D800A906A80E2806AA00850126088400290870
:1002E80080008501270884002A0880000800FF088C
:1002F80003190800FF0803190800FF08031908007C
:10030800FF30FF00FF30FF00FF017F087F02031866
:100318009D297F087F07840085010008FF007F086A
:100328002000A5007F30A6007F30A7005321FF0AD8
:10033800892985017F0884007F08800085017F085E
:1003480084007F08800008002000A5080319080021
:100358002000A6080319080085012000250884004C
:10036800FF308000850126088400FF3080000800E7
:100378002000AB002A082300910020002B0823004E
:10038800930015139513151520002C108B1B2C1496
:100398008B13553023009600AA3096009514200040
:1003A8002C1C8B132C188B17230015112300951860
:1003B800DA2908002000AE002E082300910015134A
:1003C8009513151413082000AF002F08080020000B
:1003D800A800A608031908002000A9012000280881
:1003E80029020318032A2708AA0085012608840081
:1003F8000008BC212000A70AA60AA90AF2290800B9
:10040800FF00FF0803190800FF017F087F02031897
:10041800192A7F08DE21FF007F087F0784008501F5
:100428007F088000FF0AFF0A092A08002000A301AC
:1004380060302000230203182B2A20308500423028
:10044800230784000318850A8001A30A1C2A0800D0
:100458002000B1000130B300B20160302000320248
:100468000318682A85012E0884003308000503193B
:100478005B2A203085004230320784000318850A41
:1004880031088000B20A20308500423032078400EB
:100498000318850A30088000B20A203085004230EF
:1004A800320784000318850A2F0880005E2A20007E
:1004B800B20AB20A2000B30D031C652AAE0A013045
:1004C800B3002000B20A312A42302000B4002030A4
:1004D800B500F92A850120002308840005300002B0
:1004E800DE212000A40085012308840004300002D6
:1004F800DE212000A50085012308840003300002C6
:10050800DE212000A600A7010430200027020318DE
:10051800A22A8501230884000008A90009302902BD
:100528002707A9002908DE212000A8002A3027076C
:100538008400850128088000A70A882A2A3020001C
:10054800AE002408AF002508B00026082C2A200099
:10055800C901CA014B10080039302000490784003E
:1005680085010008A500490A0F39C90025080800B7
:100578002000A0004A0A0F39A100210849060319E2
:10058800CE2A39304A0784008501200880002108D6
:10059800CA00D02A20004B14080021008E110E1624
:1005A8008E1224009510941315161413951608002E
:1005B8002000B8003808240091002000911DE12A8D
:1005C800240011080800FF00FF08031908007F082D
:1005D800FF00FF08031DF82A7F087F0784008501B4
:1005E8000008DC22FF03ED2A080020003508B700C8
:1005F80060303407B6000318B70A20003708350200
:10060800031C0C2B031D182B360834020318182B57
:10061800200035088500340884000008DC2220000A
:10062800B40A0319B50A012B080021000E13230090
:100638001E159F1119309B009C019D171E121E1339
:100648001D131D169E162100911623009D110800EA
:100658002000A6002000111E2E2B200026082300B3
:100668009A0008002000220812202000A300200081
:10067800A3080319482BA20A23082C2320002208C8
:1006880012202000A3003B2B0800FF00FF080319DD
:100698000800FF017F087F0203185A2B85017F0895
:0E06A800840000082C23FF0AFF0A4E2B0800D6
:00000001FF
