:020000001428C2
:100008002000911E132848180F282300190888314A
:10001800582080311328230019082000A000090067
:100028001920632080202C2115287A30210099007E
:1000380088314720803188316D2080318831E52131
:100048008031883112228031FF308831402180315F
:10005800FF3A031D3628FF302000AA0000308831FF
:100068001E2180312000A2012000220A0319452800
:100078002208AA00003088311E2180312000A20AFF
:10008800382821000E1020000E10DD01C901CA0118
:10009800A301103020002302031859284B302307EE
:1000A800840085018001A30A4D28210091160B17B1
:1000B8008B172000A40188318A2080310800200095
:1000C800481C6B280930A40088318A208031200020
:1000D8005D1C75282430A40088318A2080312000D6
:1000E8005D102000DD1C7F283D30A40088318A2067
:1000F80080312000DD10080020004708460603195B
:100108002B29A301A40188314C2080312000A200B2
:10011800CA08031DC028220FA7280130C9002208D9
:10012800CB005B30A5005C30A6008831D12180313E
:1001380020002208A5005B30A6005C30A7008831AB
:100148007C2180312B290E302000A30023082202B5
:1001580003182B29490B2B292208CA002208CC0096
:100168000230C9002208A5005B30A6005C30A70059
:1001780088317C2180312B294B30200049078400AD
:10018800850122088000C90A03304A02031CD528C9
:100198002208A5005B30A6005C30A70088317C21CE
:1001A80080312000CA0B2B294A3049078400850179
:1001B8005C080006031D2829493049078400850189
:1001C8005B080006031D28294D08F83A0319F3288F
:1001D800023A0319FB28033A0319FE280129FF30C4
:1001E8002000AA00003088311E218031080020003C
:1001F8000E10080020000E140800FF30883140213E
:1002080080312000A5002508AD0023308831B320B7
:100218008031F5302000250203181A29FF30AA0082
:100228000A30250788311E2180311D292000DD1460
:1002380008004D302000A6002508A7000430490218
:1002480088314D2180312B2920005D1408000800D9
:10025800FF308831402180312000A200A208031914
:1002680050290A302202883140218031FD3A031991
:100278004429013A03194829073A03194829482902
:1002880022302000A3005121FF302000AA000A30AC
:10029800220288311E2180310800850120002308B0
:1002A8008400053000028831402180312000A400FC
:1002B8008501230884000430000288314021803100
:1002C8002000A5008501230884000330000288313E
:1002D800402180312000A600A70104302000270219
:1002E800031889298501230884000B302707000299
:1002F8008831402180312000A80029302707840058
:10030800850128088000A70A712920002908AD0066
:1003180023308831B320803120002A08AD002330F3
:100328008831B320803120002B08AD00233088317C
:10033800B320803120002C08AD0023308831B32051
:10034800803120002408AD0052308831B32080313C
:1003580020002508AD0047308831B32080312000C7
:100368002608AD0042308831B32080312930200082
:10037800AD002408AE002508AF00260888313D22CC
:0403880080310800B8
:101000002000A6000830230092002000260C7F3923
:101010001D3E230091000318920A23009517151412
:1010200000000000200026181928230013087F392B
:1010300008002300130D140D08006937693AC437FE
:10104000EE3200104529D227521D2029E531E53422
:10105000F632E23A66336539203375366C00A022E9
:1010600052294F293A104329C3164334E5316B10F6
:10107000E6306936653200104529D227521DA0227C
:101080004528D2274D10E939203375366C002000F1
:10109000C601C7014810080036302000460784000A
:1010A00085010008A500460A0F39C600250808007A
:1010B0002000A000470A0F39A100210846060319A5
:1010C0006A283630470784008501200880002108FF
:1010D000C7006C2820004814080021000E132300CC
:1010E0001E159F1544309B009C019D171E121E1358
:1010F0001D131D169E162100911623009D11080038
:101100002000B3002000111E822820003308230095
:101110009A0008002000240800202000A5002000DC
:10112000A5080319A028A40AA5080319A0282000CF
:10113000250880202000240800202000A5008F28FA
:101140000800FF00FF0803190800FF017F087F0265
:101150000318B22885017F08840000088020FF0A58
:10116000FF0AA62808002000AE00B001B101B201BC
:1011700064302D02031CE2282D08B400B5010830AC
:10118000B3002000B40DB50D64303502031CCC282B
:1011900064302000B50203142000B00DB30BC12849
:1011A000AF016430B4000830B30003102000AF0D6D
:1011B000B40D031CDD283008AF072000B30BD52881
:1011C0002F08AD020A3020002D02031C05292D082E
:1011D000B400B5010830B3002000B40DB50D0A30DD
:1011E0003502031CF7280A302000B5020314200042
:1011F000B10DB30BEC28AF013108AF002F07AF07DB
:10120000AF070310AF0D2F08AD020A3020002D02EA
:1012100003180C292D08B2002000B0080319132967
:1012200030303007802030302000310780203030CF
:1012300020003207802020002E0880282000AB00EC
:101240002A082300910020002B0823009300151387
:101250009513151520002C108B1B2C148B13553057
:1012600023009600AA309600951420002C1C8B13A6
:101270002C188B1723001511230095183C29080002
:101280002000AD002D0823009100151395131514AF
:1012900013082000AE002E0808002000A800A608B1
:1012A000031908002000A9012000280829020318BA
:1012B00065292708AA0085012608840000081E2148
:1012C0002000A70AA60AA90A54290800FF00FF085F
:1012D00003190800FF017F087F0203187B297F089C
:1012E0004021FF007F087F07840085017F08800080
:1012F000FF0AFF0A6B2908008501200026088400E8
:101300000008A9008501270884000008AA00250814
:101310002906A800F039A80EA8062808F0392A06E0
:10132000A900280D280DA906E039A906A80E28064F
:10133000AA00850126088400290880008501270865
:1013400084002A0880000800FF0803190800FF082D
:1013500003190800FF0803190800FF30FF00FF30E1
:10136000FF00FF017F087F020318C6297F087F075F
:10137000840085010008FF007F082000A5007F3061
:10138000A6007F30A7007C21FF0AB22985017F08D3
:1013900084007F08800085017F0884007F0880002A
:1013A00008002000A508031908002000A60803195A
:1013B00008008501200025088400FF308000850199
:1013C00026088400FF308000080021008E110E16D0
:1013D0008E1224009514951608002000B3003308DF
:1013E000240091002000911DF2290800FF007F08D1
:1013F000240091002000911DFA2924001108080002
:10140000FF00FF08031908007F08FF00FF08031D05
:10141000112A7F087F07840085010008ED21FF0362
:10142000062A08002000A40120302000240203180E
:101430003C2A203085003E30240784000318850AAA
:1014400080010030ED21203085003E30200024074F
:1014500084000318850A80010030ED2120308500CA
:101460003E302000240784000318850A80010030E4
:10147000ED212000A40A142A08002000B000013049
:10148000B200B1012030200031020318692A850121
:101490002D08840000080319592AB2080319592A93
:1014A0003008ED2120002F08ED2120002E08ED212D
:1014B0005F2A0030ED210030ED210030ED212000C9
:1014C000B20D031C662AAD0A0130B2002000B10A39
:0414D000422A0800A4
:00000001FF
