:020000040000FA
:02000000552881
:100008002000911E11284B180D2823001908B6222C
:100018001128230019082000A00009002000A400CE
:100028000030230092002000240C7F392F3E23004B
:1000380091000318920A2300951715140000000078
:10004800200024182B28230013087F3908002300D8
:10005800130D140D0800A02252294F293A10D2324C
:10006800E332693B65317533E6327210E63A6C3635
:1000780000104529D227521DA021D221AD21E832F6
:10008800E3352033E134EC326400A02252294F29B1
:100098003A10C5225029CF26A0347310E63A6C36A0
:1000A80000005A209020A8202E21562872302100C6
:1000B8009900A5221323CB221422FF30D821FF3A1E
:1000C800031D6B28FF302000AA000030B621FD3048
:1000D8002000AA000030B62121000E1020000E10CA
:1000E8006010E010CC01CD01E101A2011030200028
:1000F8002202031886284E302207840085018001D9
:10010800A20A7A28210091160B178B175230262342
:10011800443026235930262B20004B1C9728A20157
:10012800302320004B102000601C9F281B30A200A9
:100138003023200060102000E01CA7283430A200E3
:1001480030232000E010080020004A08490603195F
:100158002D29A301A401AA222000A200CD08031D75
:10016800E028220FC9280130CC002208CE005E30DA
:10017800A5005F30A600A22120002208A5005E305D
:10018800A6005F30A7004D212D290E302000A300C6
:100198002308220203182D294C0B2D292208CD00F3
:1001A8002208CF000230CC002208A5005E30A6004D
:1001B8005F30A7004D212D294E3020004C078400C8
:1001C800850122088000CC0A03304D02031CF32865
:1001D8002208A5005E30A6005F30A7004D21200050
:1001E800CD0B2D295008F83A03190129023A0319B1
:1001F8000629033A031909290C29FF302000AA000F
:100208000030B62920000E10080020000E14080047
:10021800FF30D8212000A500F530250203181A293F
:10022800FF30AA000A302507B6211D292000E01456
:10023800080050302000A6002508A70004304C0212
:10024800E52147302623433026232D29200060143A
:1002580008000800FF30D8212000A200A2080319D6
:100268004C290A302202D821FD3A03194229013AC1
:1002780003194629073A031946294629223020003E
:10028800A3006822FF302000AA000A302202B62903
:10029800080085012000260884000008A9008501BF
:1002A800270884000008AA0025082906A800F039B4
:1002B800A80EA8062808F0392A06A900280D280D36
:1002C800A906E039A906A80E2806AA00850126086D
:1002D8008400290880008501270884002A088000F6
:1002E8000800FF0803190800FF0803190800FF08A1
:1002F80003190800FF30FF00FF30FF00FF017F08EF
:100308007F02031897297F087F078400850100086A
:10031800FF007F082000A5007F30A6007F30A700DF
:100328004D21FF0A832985017F0884007F0880000A
:1003380085017F0884007F08800008002000A50848
:10034800031908002000A6080319080085012000E9
:1003580025088400FF308000850126088400FF30CE
:10036800800008002000AB002A082300910020002C
:100378002B082300930015139513151520002C1036
:100388008B1B2C148B13553023009600AA30960033
:10039800951420002C1C8B132C188B172300151177
:1003A80023009518D42908002000AE002E08230049
:1003B800910015139513151413082000AF002F088A
:1003C80008002000A800A608031908002000A901B9
:1003D8002000280829020318FD292708AA008501FA
:1003E800260884000008B6212000A70AA60AA90A40
:1003F800EC290800FF00FF0803190800FF017F0827
:100408007F020318132A7F08D821FF007F087F077F
:10041800840085017F088000FF0AFF0A032A08007C
:100428002000A3016030200023020318252A203071
:1004380085004230230784000318850A8001A30A37
:10044800162A08002000B1000130B300B201603064
:10045800200032020318622A85012E08840033081E
:1004680000050319552A20308500423032078400E0
:100478000318850A31088000B20A2030850042300E
:10048800320784000318850A30088000B20A203039
:1004980085004230320784000318850A2F0880003F
:1004A800582A2000B20AB20A2000B30D031C5F2AA2
:1004B800AE0A0130B3002000B20A2B2A42302000D5
:1004C800B4002030B500F32A8501200023088400F9
:1004D80005300002D8212000A400850123088400EB
:1004E80004300002D8212000A500850123088400DB
:1004F80003300002D8212000A600A7010430200004
:10050800270203189C2A8501230884000008A900F3
:10051800093029022707A9002908D8212000A800A6
:100528002A3027078400850128088000A70A822A24
:100538002A302000AE002408AF002508B0002608A5
:10054800262A2000C901CA014B10080039302000B2
:100558004907840085010008A500490A0F39C90028
:10056800250808002000A0004A0A0F39A100210828
:1005780049060319C82A39304A078400850120082A
:1005880080002108CA00CA2A20004B140800210054
:100598008E110E168E12240095109413151614132E
:1005A800951608002000B8003808240091002000A3
:1005B800911DDB2A240011080800FF00FF08031919
:1005C80008007F08FF00FF08031DF22A7F087F0745
:1005D800840085010008D622FF03E72A08002000CE
:1005E8003508B70060303407B6000318B70A200092
:1005F80037083502031C062B031D122B360834025C
:100608000318122B200035088500340884000008E0
:10061800D6222000B40A0319B50AFB2A08002100D3
:100628000E1323001E159F1119309B009C019D1766
:100638001E121E131D131D169E162100911623004F
:100648009D1108002000A6002000111E282B200064
:10065800260823009A000800200022081220200003
:10066800A3002000A3080319422BA20A230826236B
:100678002000220812202000A300352B0800FF00CC
:10068800FF0803190800FF017F087F020318542B95
:1006980085017F08840000082623FF0AFF0A482BEB
:0206A800080048
:00000001FF
