:020000040000FA
:0400000027EF00F0F6
:10000800E9CF00F0EACF01F09EAA15EF00F036B074
:1000180013EF00F0AE5045EC04F015EF00F0AECF52
:1000280002F09EA21DEF00F09E92382A38523DEC55
:1000380006F07EA022EF00F07E904F8000C0E9FF1E
:1000480001C0EAFF11000FEE37F0ED6AEA50FDE15A
:10005800E950FBE1EF6A43EC00F05CEC06F035ECAC
:1000680001F059EC05F0FEEC05F027EC02F04FA08A
:1000780041EF00F012EC04F04F9031EF00F0720EF7
:10008800D36E816A8A6A0F01396B36EC04F0AAECE8
:1000980004F05AEC04F09DEC04F0CDEC01F046ECD1
:1000A80006F037903792396A3A6A520EB9EC04F082
:1000B800440EB9EC04F0590EB9EC04F09D8AF28CA8
:1000C800F28E120008C0E9FFEA6AEFCF0BF009C010
:1000D800E9FFEA6AEFCF0CF007500B180A6EF00B35
:1000E8000A3A0A1A0A50F00B0C180B6E0A340A3432
:1000F8000B1AE00B0B1A0A3A0A180C6E08C0E9FF33
:10010800EA6A0BC0EFFF09C0E9FFEA6A0CC0EFFF1B
:1001180012007F50D8A492EF00F012007F50D8A4AC
:1001280097EF00F012007F50D8A49CEF00F0120067
:100138007F687F687F6A7F507F60B4EF00F0EA6A6B
:100148007F507F24E96EEFCF7FFF7FCF07F07F0ED0
:10015800086E7F0E096E66EC00F07F2A9FEF00F0B4
:100168007FCFE9FFEA6A7FCFEFFF7FCFE9FFEA6A37
:100178007FCFEFFF12000752D8A4C4EF00F012009F
:100188000852D8A4C9EF00F0120007C0E9FFEA6AD4
:10019800EF6808C0E9FFEA6AEF681200136E14906E
:1001A800F2BE1480AA6A11C0A9FF13C0A8FFA69CBA
:1001B800A69EA684F29E550EA76EAA0EA76EA682CC
:1001C80014A0F29E14B0F28EA694A6A2EEEF00F050
:1001D800E9EF00F01200AA6A17C0A9FFA69CA69E24
:1001E800A680A8CF19F0195012000D6E0A52D8A493
:1001F800FFEF00F012000E6A0D500E6015EF01F0CF
:100208000BC011F00CC012F00AC0E9FFEA6AEF5007
:10021800D2EC00F00B2A000E0C220A2A0E2A00EF5C
:1002280001F01200146E1152D8A41CEF01F0120054
:10023800156A1450156034EF01F012C017F013C09E
:1002480018F0EFEC00F0166EEA6A15501124E96E0A
:1002580016C0EFFF122A000E1322152A1DEF01F017
:10026800120036A03FEF01F0396A3A6A046AC2EC1C
:1002780004F036EC04F037A047EF01F01B0E046ED3
:10028800C2EC04F0379037A24FEF01F0340E046E41
:10029800C2EC04F0379212001E6ED8901E301F6E0A
:1002A800D8901F32D8901F32080E1F02F3501E5CE0
:1002B800206E1F501C24E96E000E1D20EA6EEFCF41
:1002C80021F0010E226E2050D8B471EF01F0236E98
:1002D800D8902236232E6CEF01F0225021121F50A5
:1002E8001C24E96E000E1D20EA6E21C0EFFF1200EB
:1002F8001E6ED8901E301F6ED8901F32D8901F32B5
:10030800080E1F02F3501E5C206E1F501C24E96E5D
:10031800000E1D20EA6EEFCF21F0010E226E205054
:10032800D8B49DEF01F0236ED8902236232E98EF93
:1003380001F0221E225021161F501C24E96E000EC7
:100348001D20EA6E21C0EFFF12000C6ED8900C3011
:100358000D6ED8900D32D8900D32080E0D02F35064
:100368000C5C0E6E0D500A24E96E000E0B20EA6E2E
:10037800EFCF0FF0010E106E0E50D8B4CAEF01F097
:10038800116ED8901036112EC5EF01F010500F14D1
:1003980012005F0E046E0450E96E010EEA6EEF6AF9
:1003A80004060452D8A4CFEF01F01200EA6A040E42
:1003B8000F24E96EEFCF10F0EA6A050E0F24E96EFC
:1003C800EFCF11F0EA6A060E0F24E96EEFCF12F0B4
:1003D8000FC013F0010E156E146A600E146022EF40
:1003E80002F013C0E9FFEA6A1550EF14000AD8B406
:1003F80014EF02F01450E96E010EEA6E12C0EFFF1E
:10040800142A1450E96E010EEA6E11C0EFFF142A87
:100418001450E96E010EEA6E10C0EFFF16EF02F0FD
:10042800142A142AD89015361552D8A41FEF02F0B2
:10043800132A010E156E142AF1EF01F0136A010E4A
:10044800146E83EF04F0800E076E020E086E010E24
:10045800066E056A600E056082EF02F0600E0524E4
:10046800E96E010EEA6AEA22EF50D8B474EF02F09E
:10047800C00E0524E96E010EEA6AEA22EF50D8A4FC
:1004880074EF02F0600E0524E96E010EEA6AEA22B2
:10049800EF06200E0524E96E020EEA6AEA22EFCF83
:1004A80009F0C00E0524E96E010EEA6AEA2209C0C5
:1004B800EFFF800E0A6E020E0B6E0550A9EC01F0DC
:1004C800000AD8B46FEF02F00550E96E010EEA6E2B
:1004D800EF0674EF02F00550E96E010EEA6EEF2A9E
:1004E800D89006360652D8A47FEF02F0072A000EED
:1004F8000822010E066E052A2EEF02F0136A010E7D
:10050800146E83EF04F0800E176E020E186E106AD8
:10051800600E1060A1EF02F0600E1024E96E010E6B
:10052800EA6AEA22EF6AC00E1024E96E010EEA6A4E
:10053800EA22EF6A102A8CEF02F0106A0C0E1060A3
:10054800B0EF02F0800E1024E96E020EEA6AEA2289
:10055800EF6A102AA2EF02F0010E116E0FC019F017
:10056800010E1B6E1A6A600E1A6011EF04F019C0B2
:10057800E9FFEA6A1B50EF14000AD8B403EF04F04D
:10058800EA6A060E0F24E96EEFCF16F01A50E96EEC
:10059800010EEA6EEFCF15F015501660E0EF02F08D
:1005A8001650155C126E800E1C6E020E1D6E1A50CF
:1005B80050EC01F0EAEF02F01550165C126E800E56
:1005C8001C6E020E1D6E1A507CEC01F0C00E1A242F
:1005D800E96E010EEA6AEA22EF6A200E1A24E96E31
:1005E800020EEA6AEA22EF6A600E1A24E96E010E28
:1005F800EA6AEA2212C0EFFF1252D8B42DEF03F0D4
:10060800EA6A070E0F24E96E640EEF02F3CF13F0C7
:10061800F4CF14F0200E1A24E96E020EEA6AEA22D8
:1006280013501D6E14501E6E1F6A100E1C6E1D3660
:100638001E361F36D8B026EF03F012501F5CD8A024
:1006480029EF03F012501F5ED880EF361C2E1BEFE7
:1006580003F01A2AEA6A050E0F24E96EEFCF16F0A6
:100668001A50E96E010EEA6EEFCF15F015501660BC
:100678004AEF03F01650155C126E800E1C6E020EC7
:100688001D6E1A5050EC01F054EF03F01550165C33
:10069800126E800E1C6E020E1D6E1A507CEC01F05C
:1006A800C00E1A24E96E010EEA6AEA22EF6A200EE9
:1006B8001A24E96E020EEA6AEA22EF6A600E1A2428
:1006C800E96E010EEA6AEA2212C0EFFF1252D8B4AC
:1006D80097EF03F0EA6A070E0F24E96E640EEF0243
:1006E800F3CF13F0F4CF14F0200E1A24E96E020EA3
:1006F800EA6AEA2213501D6E14501E6E1F6A100E0D
:100708001C6E1D361E361F36D8B090EF03F01250FF
:100718001F5CD8A093EF03F012501F5ED880EF360D
:100728001C2E85EF03F01A2AEA6A040E0F24E96EDC
:10073800EFCF16F01A50E96E010EEA6EEFCF15F002
:1007480015501660B4EF03F01650155C126E800E4B
:100758001C6E020E1D6E1A5050EC01F0BEEF03F035
:100768001550165C126E800E1C6E020E1D6E1A500D
:100778007CEC01F0C00E1A24E96E010EEA6AEA2246
:10078800EF6A200E1A24E96E020EEA6AEA22EF6A7C
:10079800600E1A24E96E010EEA6AEA2212C0EFFF1F
:1007A8001252D8B401EF04F0EA6A070E0F24E96E7A
:1007B800640EEF02F3CF13F0F4CF14F0200E1A24D6
:1007C800E96E020EEA6AEA2213501D6E14501E6E7C
:1007D8001F6A100E1C6E1D361E361F36D8B0FAEF73
:1007E80003F012501F5CD8A0FDEF03F012501F5EFB
:1007F800D880EF361C2EEFEF03F005EF04F01A2A2D
:100808001A2AD8901B361B52D8A40EEF04F0192AC6
:10081800010E1B6E1A2AB7EF02F01200046A600E6E
:10082800046035EF04F0600E0424E96E010EEA6AF4
:10083800EA22EF50D8B432EF04F0C00E0424E96E77
:10084800010EEA6AEA22EF50D8B432EF04F0C00E83
:100858000424E96E010EEA6AEA22EF06042A13EF7D
:1008680004F01200346A356A36901200EA6A240EDF
:100878003424E96EEFCF07F034280F0B346E07509D
:100888001200026E35280F0B036E03503418D8B4CB
:1008980058EF04F0EA6A240E3524E96E02C0EFFF2F
:1008A80003C035F059EF04F036801200949694880E
:1008B800949AC78EC698C78CC68A1200176E17C03E
:1008C800C9FF9EB66AEF04F065EF04F0C950120044
:1008D8007F6E7F50D8A472EF04F012007FCF7FFFA5
:1008E8007F50D8A482EF04F0EA6A7F507F24E96E33
:1008F800EF5062EC04F07F0674EF04F01200600E13
:100908001324156E000E1420166E1550135C165025
:100918001458D8B09CEF04F013C0E9FF14C0EAFFE4
:10092800EF5062EC04F0132A000E142289EF04F051
:1009380012007D0EBA6E9D820F015269050E516F2D
:100948007D8012007F6E7FCFBBFF1200949CAC8429
:10095800B896190EAF6EB06AAB8EAC98AC9CAB9CD7
:10096800AB88AC8A9D8AAB961200076E9EB8BFEF23
:1009780004F0BAEF04F007C0ADFF1200045069ECB0
:1009880006F0056E0552D8B4D4EF04F0042A0550D9
:10099800B9EC04F0045069EC06F0056EC6EF04F0FB
:1009A80012007F6E7F50D8A4DBEF04F012007F6A3C
:1009B8007F507F60EAEF04F07FCFE9FFEA6AEF50EB
:1009C800B9EC04F07F2A7F2ADCEF04F012004D50C6
:1009D8004E10D8A436EF05F00F52D8A4F5EF04F066
:1009E800000C1768186AEFEC00F0106E1052D8A4CB
:1009F800FFEF04F0000C4CA017EF05F0FE0E176E89
:100A0800186AEFEC00F0106E1052D8A411EF05F040
:100A18001768186AEFEC00F0106EFE0E116E126A7D
:100A28001050D2EC00F00FC011F0F60E1024126E28
:100A3800FF0E136A13220A0E16EC01F04CA02EEFDB
:100A480005F0FE0E116E126A0A0E105CD2EC00F070
:100A580034EF05F01168126A0A0E105CD2EC00F04F
:100A68000F501200000C086E0752D8A43EEF05F094
:100A7800D89012001768186AEFEC00F0096EF40EAF
:100A8800096449EF05F0D89012001168126A0A0E3D
:100A98000924D2EC00F007C00AF009C00BF00C6A78
:100AA8000850F9EC00F0D880120036A05EEF05F08F
:100AB800396A3A6A35503418D8B4FDEF05F0056A3A
:100AC800066A3AEC04F0046E3A52D8A49EEF05F098
:100AD8000428D8A484EF05F0010E396E04C03BF059
:100AE8004A0E076E4B0E086EBFEC00F004C007F00C
:100AF8004A0E086E4B0E096E66EC00F09CEF05F08E
:100B08000D0E056E055004609CEF05F03904D8A45D
:100B18009CEF05F004C03AF004C03CF0020E396EB8
:100B280004C007F04A0E086E4B0E096E66EC00F022
:100B3800FDEF05F0EA6A3B0E3924E96E04C0EFFFC9
:100B4800392A020E3A64B1EF05F004C007F04A0EE4
:100B5800086E4B0E096E66EC00F03A063A52D8A4BD
:100B6800FDEF05F03D50F80AD8B4CDEF05F0020AC4
:100B7800D8B4D5EF05F0030AD8B4D6EF05F00E0ABD
:100B8800D8B4D7EF05F0010AD8B4DEEF05F0E7EFE7
:100B980005F01168126A000ED2EC00F0440EB9EFAD
:100BA80004F0120012004C804C0EB9EC04F0310E27
:100BB800B9EF04F04C904D6A4E6A4C0EB9EC04F053
:100BC800300EB9EF04F03D0E076E040E395C37ECB9
:100BD80005F0D8A0F8EF05F0470EB9EC04F0430E85
:100BE800B9EC04F0F9EF05F03782FDEF05F0378036
:100BF80012001200040E0F6EEBEC04F00E6E0E5293
:100C0800D8B43CEF06F00450FD0AD8B41AEF06F049
:100C1800010AD8B420EF06F0020AD8B426EF06F08D
:100C2800050AD8B43AEF06F03CEF06F0050E0F6E51
:100C3800DAEC01F03CEF06F0050E0F6E87EC02F0DF
:100C48003CEF06F0050E0F6E0FC0E9FFEA6AEFCF22
:100C58004DF04E6A4D504E6E4D6AEA6A0F28E96EA5
:100C6800EF504D26000E4E223CEF06F03CEF06F00A
:100C780012004D504E10D8B445EF06F04D06000E48
:100C88004E5A12001768186AEFEC00F0FF0AD8A451
:100C980053EF06F01168126A000ED2EC00F04C9087
:100CA8004D6A4E6AFE0E116E126A000ED2EF00F007
:100CB80081A262EF06F0809063EF06F0808081BA2F
:100CC80068EF06F0FA6AF96A1200066E0650E80F35
:100CD800F66E0C0EF76AF722F86A0800F550120053
:100CE800204552524F523A205265636569766562D3
:100CF80075666665722066756C6C00204552524FA9
:100D0800523A204352432D436865636B20666169FC
:100D18006C656400204552524F523A204545505266
:0C0D28004F4D2069732066756C6C000054
:00000001FF
