:020000040000FA
:02000000552881
:100008002000911E11284B180D282300190883225F
:100018001128230019082000A00009002000A400CE
:100028000030230092002000240C7F392F3E23004B
:1000380091000318920A2300951715140000000078
:10004800200024182B28230013087F3908002300D8
:10005800130D140D0800A02252294F293A10D2324C
:10006800E332693B65317533E6327210E63A6C3635
:1000780000104529D227521DA021D221AD21E832F6
:10008800E3352033E134EC326400A02252294F29B1
:100098003A10C5225029CF26A0347310E63A6C36A0
:1000A80000005A209020A9202621562872302100CD
:1000B80099007222E02298220B22FF30CB21FF3ACE
:1000C800031D6B28FF302000B0000030A921FD304F
:1000D8002000B0000030A92121000E1020000E10D1
:1000E8005F10DF10CC01CD01E001A2010F3020002C
:1000F8002202031886284E302207840085018001D9
:10010800A20A7A28210091160B178B175230F32276
:100118004430F3225930F32A20004B1C9828CC0194
:10012800CD01A201FD22722220005F1CA0281B30F5
:10013800A200FD2220005F102000DF1CA828343018
:10014800A200FD222000DF10080020004B1CAE2872
:10015800CC01CD0120004A08490603192529A3012D
:10016800A40177222000A200CD08031DE628220F53
:10017800CF280130CC002208CE005D30A5005E30CB
:10018800A600952120002208A5005D30A6005E305B
:10019800A700402125290D302000A30023082202B2
:1001A800031825294C0B25292208CD002208CF0049
:1001B8000230CC002208A5005D30A6005E30A70002
:1001C800402125294E3020004C0784008501220853
:1001D8008000CC0A03304D02031CF9282208A50030
:1001E8005D30A6005E30A70040212000CD0B2529F8
:1001F8005008F83A03190729023A03190C29033A57
:1002080003190F291229FF302000B0000030A92956
:1002180020000E10080020000E14080050302000A6
:10022800A50004304C024023031C1F294730F32249
:100238004330F32225292000DF14252920005F14EC
:100248000800080022302000AD002F1422232000CF
:10025800AC00AC0803193F292208FD3A03193B29D1
:10026800013A03193F29073A03193F293F29233047
:100278002000AD001D22080085012000260884000A
:100288000008A9008501270884000008AA0025089D
:100298002906A800F039A80EA8062808F0392A0669
:1002A800A900280D280DA906E039A906A80E2806D8
:1002B800AA008501260884002908800085012708EE
:1002C80084002A0880000800FF0803190800FF08B6
:1002D80003190800FF0803190800FF30FF00FF306A
:1002E800FF00FF017F087F0203188A297F087F0724
:1002F800840085010008FF007F082000A5007F30EA
:10030800A6007F30A7004021FF0A762985017F08D3
:1003180084007F08800085017F0884007F088000B2
:1003280008002000A508031908002000A6080319E2
:1003380008008501200025088400FF308000850121
:1003480026088400FF30800008002000B100300833
:100358002300910020003108230093001513951302
:100368001515200032108B1B32148B1355302300C7
:100378009600AA30960095142000321C8B13321870
:100388008B172300151123009518C7290800200092
:10039800B50035082300910015139513151413089B
:1003A8002000B600360808002000AA00A808031993
:1003B80008002000AB0120002A082B020318F029AE
:1003C8002908B0008501280884000008A921200018
:1003D800A90AA80AAB0ADF2908002000B200B00861
:1003E800031908002000B301200032083302031863
:1003F8000A2A3108CB212000B400330830078400D2
:10040800850134088000B10AB30AF82908002000E1
:10041800A30160302000230203181C2A2030850025
:100428004130230784000318850A8001A30A0D2A96
:10043800080020002D08AE0004302D078400850137
:100448000008AF0005302D07840085010008B000C2
:1004580006302D07840085010008B1000130B30083
:10046800B20160302000320203186C2A85012E0880
:1004780084003308000503195F2A203085004130C5
:10048800320784000318850A31088000B20A203038
:1004980085004130320784000318850A300880003F
:1004A800B20A203085004130320784000318850ADB
:1004B8002F088000622A2000B20AB20A2000B30D79
:1004C800031C692AAE0A0130B3002000B20A352A9B
:1004D80041302000B4002030B500C02A2000C901F6
:1004E800CA014B10080039302000490784008501F3
:1004F8000008A500490A0F39C9002508080020008E
:10050800A0004A0A0F39A100210849060319952AB3
:1005180039304A0784008501200880002108CA0074
:10052800972A20004B14080021008E110E168E12F7
:10053800240095109413151614139516080020001E
:10054800B8003808240091002000911DA82A240032
:1005580011080800FF00FF08031908007F08FF00C2
:10056800FF08031DBF2A7F087F0784008501000854
:10057800A322FF03B42A080020003508B700603022
:100588003407B6000318B70A200037083502031CE1
:10059800D32A031DDF2A360834020318DF2A200075
:1005A80035088500340884000008A3222000B40A16
:1005B8000319B50AC82A080021000E1323001E15C6
:1005C8009F1119309B009C019D171E121E131D13AD
:1005D8001D169E162100911623009D11080020006B
:1005E800A5002000111EF52A2000250823009A00E6
:1005F80008002000220812202000A3002000A308E1
:1006080003190F2BA20A2308F32220002208122024
:100618002000A300022B0800FF00FF0803190800B0
:10062800FF017F087F020318212B85017F088400C2
:100638000008F322FF0AFF0A152B08002000AD0866
:1006480003190034FF30CB212000AE00AE08031997
:10065800003420002D08B0000A302E02B1000A3004
:10066800F12120002F1C3D2BFF30B0000A302E0254
:10067800A92120002D0808002000A600A508031DB8
:10068800472B03100800FF30CB212000A700F530CE
:100698002702031C512B03100800FF302000B00074
:1006A8000A302707A92120002508A8002708A90043
:0806B8002608D82103140800F4
:00000001FF
