:020000040000FA
:020000001428C2
:100008002000911E132842180F2823001908883150
:10001800542080311328230019082000A00009006B
:1000280021202000A601FF30A70000308831CD2113
:100038008031592075201B211D287A302100990014
:100048008831432080318831692080318831792195
:1000580080318831AD218031FF302000A600883101
:10006800D4208031FF3A031D4028FF302000A7002C
:1000780000308831AF20803121000E1020000E1092
:10008800D801C301C401A2011030200022020318C4
:10009800542845302207840085018001A20A482897
:1000A800210091160B178B1708002000421C6028AE
:1000B800A2018831862080312000581C6A281B3014
:1000C800A200883186208031200058102000D81CDA
:1000D80074283430A2008831862080312000D8105E
:1000E800080020004108400603191A2988314820D1
:1000F80080312000A200C408031DB328220F9A28CB
:100108000130C3002208C5005530A5005630A600AE
:1001180088316521803120002208A5005530A600CD
:100128005630A7008831102180311A290E3020005E
:10013800A3002308220203181A29430B1A292208AC
:10014800C4002208C6000230C3002208A5005530AA
:10015800A6005630A7008831102180311A29453071
:10016800200043078400850122088000C30A033069
:100178004402031CC8282208A5005530A6005630A2
:10018800A7008831102180312000C40B1A2944307F
:1001980043078400850156080006031D17294330CC
:1001A80043078400850155080006031D17294708E1
:1001B800F83A031DE628FF30A70000308831AF2049
:1001C8008031080002302000C302FF30A6008831C9
:1001D800D42080312000A500F13025020318FE2824
:1001E8000A302507A600FF30A70026088831AF206F
:1001F800803101292000D814080002302000A40012
:1002080020004308240203181A292508A7004530AE
:1002180024078400850100088831AF208031200040
:10022800A50AA40A04292000581408000800FF3071
:100238002000A6008831D42080312000A200A20826
:10024800031958290A302202A6008831D4208031A7
:10025800FD3A031D5829053020002202A6008831E6
:10026800D42080312000A30004302202A600883167
:10027800D42080312000A40003302202A600883157
:10028800D42080312000A500FF30A7000A302202C8
:100298008831AF20803120002308A6002408A70059
:0A02A80025088831CD2180310800BF
:101000002000A4000830230092002000240C7F3927
:101010001D3E230091000318920A23009517151412
:1010200000000000200024181928230013087F392D
:1010300008002300130D140D0800A02252294F2987
:101040003A10D232E332693B65317533E6327210C1
:10105000E63A6C3600104529D227521DA021D22134
:10106000AD21E832E3352033E134EC326400A022D4
:1010700052294F293A10C5225029CF26A034731087
:10108000E63A6C3600002000C001C10142100800A1
:10109000303020004007840085010008A500400A88
:1010A0000F39C000250808002000A000410A0F39B0
:1010B000A10021084006031966283030410784004A
:1010C0008501200880002108C10068282000421402
:1010D000080021000E1323001E159F1544309B00AD
:1010E0009C019D171E121E131D131D169E16210016
:1010F000911623009D1108002000A4002000111E5D
:101100007E282000240823009A00080020002208DE
:1011100000202000A3002000A30803199C28A20A95
:10112000A30803199C28200023087C202000220803
:1011300000202000A3008B280800FF00FF080319EF
:101140000800FF017F087F020318AE2885017F0891
:10115000840000087C20FF0AFF0AA2280800200063
:10116000A8002300920120002708230091002000FE
:101170002808230093001513951315152000291036
:101180008B1B29148B13553023009600AA30960030
:1011900095142000291C8B1329188B172300151177
:1011A00023009518D028080023009201200026086B
:1011B0002300910015139513151413082000A700A0
:1011C00027080800FF00FF0803190800FF017F0837
:1011D0007F020318F7287F082000A70085017F08F9
:1011E00084000008AF20FF0AFF0AFF0AE728080072
:1011F000FF00FF0803190800FF017F087F020318A2
:101200000F297F082000A600D420FF007F087F0759
:10121000840085017F088000FF0AFF0AFD2808007E
:1012200085012000260884000008A9008501270800
:1012300084000008AA0025082906A800F039A80E95
:10124000A8062808F0392A06A900280D280DA906A5
:10125000E039A906A80E2806AA0085012608840000
:10126000290880008501270884002A0880000800DA
:10127000FF0803190800FF0803190800FF080319F5
:101280000800FF30FF00FF30FF00FF017F087F02F2
:1012900003185A297F087F07840085010008FF0092
:1012A0007F082000A5007F30A6007F30A700102116
:1012B000FF0A462985017F0884007F088000850198
:1012C0007F0884007F08800008002000A50803191B
:1012D00008002000A6080319080085012000250841
:1012E0008400FF308000850126088400FF308000E4
:1012F000080021008E110E168E122400951608008B
:101300002000AF002F08240091002000911D8529A6
:101310000800FF007F08240091002000911D8D2906
:101320002400110808002000AD002B082C0403192C
:10133000080020002D03AE002000AE080319AC29E0
:101340002C0885002E082B0784000318850A000846
:1013500080212000AE039C2908002000A3016330F7
:10136000200023020318C6292030850039302307C6
:1013700084000318850A8001203085009C302307F3
:1013800084000318850A8001A30AAF2939302000A0
:10139000AB002030AC00633093292000A800AA01E4
:1013A000A9016330200029020318082A2A0803191A
:1013B000E029013A0319ED29033A0319FA29052A0C
:1013C0002030850039302000290784000318850A61
:1013D000260880000130AA00052A20308500393017
:1013E0002000290784000318850A2708800002309E
:1013F000AA00052A20308500393020002907840002
:101400000318850A28088000AA012000A90AD1290A
:0E14100039302000AB002030AC00633093294F
:00000001FF
