:020000001428C2
:100008002000911E13284A180F2823001908883148
:10001800542080311328230019082000A00009006B
:1000280019204F206B20102115287A3021009900C3
:1000380088314320803188316920803188317621A8
:1000480080318831AB218031FF308831D120803137
:10005800FF3A031D3628FF302000AA0000308831FF
:10006800AF20803121000E1020000E10DF01CB01DF
:10007800CC01A20110302000220203184A284D307A
:100088002207840085018001A20A3E2821009116DA
:100098000B178B17080020004A1C5628A20188312C
:1000A8008620803120005F1C60281B30A200883128
:1000B8008620803120005F102000DF1C6A28343041
:1000C800A2008831862080312000DF10080020003F
:1000D8004908480603190F29A301A40188314820BB
:1000E80080312000A200CC08031DAB28220F9228E3
:1000F8000130CB002208CD005D30A5005E30A6009F
:1001080088316221803120002208A5005D30A600D8
:100118005E30A70088310D2180310F290E30200074
:10012800A3002308220203180F294B0B0F292208CA
:10013800CC002208CE000230CB002208A5005D309A
:10014800A6005E30A70088310D2180310F294D307F
:1001580020004B078400850122088000CB0A033069
:100168004C02031CC0282208A5005D30A6005E30A2
:10017800A70088310D2180312000CC0B0F294C308D
:100188004B07840085015E080006031D0C294B30CF
:100198004B07840085015D080006031D0C294F08E4
:1001A800F83A0319DE28023A0319E628033A031934
:1001B800E928EC28FF302000AA0000308831AF2061
:1001C8008031080020000E10080020000E140800DE
:1001D800FF308831D12080312000A500F53025027C
:1001E8000318FE28FF30AA000A3025078831AF20FF
:1001F800803101292000DF1408004F302000A600BC
:100208002508A70004304B028831DE2080310F29F1
:1002180020005F1408000800FF308831D1208031A9
:100228002000A200A208031934290A3022028831CA
:10023800D1208031FD3A03192829013A03192C29C4
:10024800073A03192C292C2922302000A300352134
:10025800FF302000AA000A3022028831AF20803106
:100268000800850120002308840005300002883139
:10027800D12080312000A4008501230884000430A7
:1002880000028831D12080312000A5008501230893
:100298008400033000028831D12080312000A6007C
:1002A800A70104302000270203186D2985012308BF
:1002B80084000930000227078831D12080312000CE
:1002C800A800293027078400850128088000A70A8C
:1002D800552929302000AD002408AE002508AF00BC
:0A02E80026088831CB218031080080
:101000002000A4000830230092002000240C7F3927
:101010001D3E230091000318920A23009517151412
:1010200000000000200024181928230013087F392D
:1010300008002300130D140D0800A02252294F2987
:101040003A10D232E332693B65317533E6327210C1
:10105000E63A6C3600104529D227521DA021D22134
:10106000AD21E832E3352033E134EC326400A022D4
:1010700052294F293A10C5225029CF26A034731087
:10108000E63A6C3600002000C801C9014A10080089
:10109000383020004807840085010008A500480A70
:1010A0000F39C800250808002000A000490A0F39A0
:1010B000A100210848060319662838304907840032
:1010C0008501200880002108C900682820004A14F2
:1010D000080021000E1323001E159F1544309B00AD
:1010E0009C019D171E121E131D131D169E16210016
:1010F000911623009D1108002000A4002000111E5D
:101100007E282000240823009A00080020002208DE
:1011100000202000A3002000A30803199C28A20A95
:10112000A30803199C28200023087C202000220803
:1011300000202000A3008B280800FF00FF080319EF
:101140000800FF017F087F020318AE2885017F0891
:10115000840000087C20FF0AFF0AA2280800200063
:10116000AB002A082300910020002B0823009300E5
:1011700015139513151520002C108B1B2C148B1395
:10118000553023009600AA309600951420002C1CA0
:101190008B132C188B172300151123009518CD28BD
:1011A00008002000AD002D082300910015139513B1
:1011B000151413082000AE002E0808002000A80017
:1011C000A608031908002000A90120002808290208
:1011D0000318F6282708AA008501260884000008BD
:1011E000AF202000A70AA60AA90AE5280800FF00E8
:1011F000FF0803190800FF017F087F0203180C296C
:101200007F08D120FF007F087F07840085017F08C9
:101210008000FF0AFF0AFC2808008501200026083C
:1012200084000008A9008501270884000008AA009E
:1012300025082906A800F039A80EA8062808F039C4
:101240002A06A900280D280DA906E039A906A80E2E
:101250002806AA0085012608840029088000850147
:10126000270884002A0880000800FF0803190800E6
:10127000FF0803190800FF0803190800FF30FF00EA
:10128000FF30FF00FF017F087F02031857297F0806
:101290007F07840085010008FF007F082000A5006B
:1012A0007F30A6007F30A7000D21FF0A432985016A
:1012B0007F0884007F08800085017F0884007F0804
:1012C000800008002000A508031908002000A608D7
:1012D000031908008501200025088400FF308000E4
:1012E000850126088400FF308000080021008E114F
:1012F0000E168E1224009514951608002000B700D3
:101300003708240091002000911D83290800FF0068
:101310007F08240091002000911D8B2924001108D2
:1013200008002000B5003308340403190800200029
:101330003508B6002000B6080319AA29340885002C
:101340003608330784000318850A00087E21200030
:10135000B6039A2908002000A3016330200023026D
:101360000318C42920308500403023078400031867
:10137000850A800120308500A330230784000318EC
:10138000850A8001A30AAD2940302000B300203037
:10139000B400633091292000B000B201B101633084
:1013A000200031020318062A32080319DE29013A07
:1013B0000319EB29033A0319F829032A2030850081
:1013C00040302000310784000318850A2E08800071
:1013D0000130B200032A2030850040302000310760
:1013E00084000318850A2F0880000230B200032A07
:1013F0002030850040302000310784000318850A22
:1014000030088000B2012000B10ACF29403020000E
:0A141000B3002030B40063309129CE
:00000001FF
