:020000040000FA
:020000001428C2
:100008002000911E13283D180F2823001908883155
:10001800522080311328230019082000A00009006D
:10002800182040205C2015287A302100990088315A
:1000380041208031883167208031883177218031B3
:100048008831A621803121000E1020000E10D30126
:10005800BE01BF01A20110302000220203183B2874
:1000680040302207840085018001A20A2F28210040
:1000780091160B178B17080020003D1C4728A2017A
:100088008831842080312000531C51281A30A20066
:10009800883184208031200053102000D31C5B2835
:1000A8003230A2008831842080312000D31008002B
:1000B80020003C083B060319FD2888314620803182
:1000C8002000A200BF08031D9A28220F81280130B2
:1000D800BE002208C0005030A5005130A60088316B
:1000E8006321803120002208A5005030A60051303D
:1000F800A70088310E218031FD280E302000A30092
:10010800230822020318FD283E0BFD282208BF0001
:100118002208C1000230BE002208A5005030A60007
:100128005130A70088310E218031FD284030200051
:100138003E078400850122088000BE0ABF0322080A
:10014800A5005030A6005130A70088310E2180311B
:100158002000BF08031DFD283F303E0784008501AD
:1001680051080006031DFA283E303E078400850129
:1001780050080006031DFA284208F83A031DCB2848
:10018800FF30A60000308831AD2080310800FE30F5
:100198002000BE00FF30A6008831D2208031200028
:1001A800A500F13025020318E128FF30A6000A3027
:1001B80025078831AD208031E4282000D3140800B9
:1001C80002302000A40020003E0824020318FD2865
:1001D8002508A600403024078400850100088831DE
:1001E800AD2080312000A50AA40AE7282000531476
:0601F800080008000800E9
:101000002000A4000830230092002000240C7F3927
:101010001D3E230091000318920A23009517151412
:1010200000000000200024181928230013087F392D
:1010300008002300130D140D08004529D227521D66
:101040002029E531E534F632E23A6633653920335A
:1010500075366C004529D227521DA021D221AD2121
:10106000E832E3352033E134EC3264004529D227FD
:10107000521DA0224528D2274D10E939203375365C
:101080006C002000BB01BC013D1008002B3020008B
:101090003B07840085010008A5003B0A0F39BB000F
:1010A000250808002000A0003C0A0F39A1002108F3
:1010B0003B06031964282B303C0784008501200877
:1010C00080002108BC00662820003D140800210093
:1010D0000E1323001E159F1544309B009C019D1785
:1010E0001E121E131D131D169E162100911623009D
:1010F0009D1108002000A4002000111E7C28200063
:10110000240823009A000800200022080020200064
:10111000A3002000A30803199A28A20AA308031910
:101120009A28200023087A2020002208002020008E
:10113000A30089280800FF00FF0803190800FF0129
:101140007F087F020318AC2885017F08840000080F
:101150007A20FF0AFF0AA02808002000A700230029
:101160009201200026082300910020002708230078
:101170009300151395131515200028108B1B2814A8
:101180008B13553023009600AA309600951420004A
:10119000281C8B1328188B17230015112300951872
:1011A000CE28080023009201200026082300910089
:1011B00015139513151413082000A700270808001D
:1011C000FF00FF0803190800FF017F087F020318D2
:1011D000F5287F082000A60085017F08840000080C
:1011E000AD20FF0AFF0AFF0AE5280800FF00FF08FC
:1011F00003190800FF017F087F0203180D297F08EB
:101200002000A600D220FF007F087F078400850110
:101210007F088000FF0AFF0AFB28080085012000E4
:10122000260884000008A90085012708840000081A
:10123000AA0025082906A800F039A80EA806280843
:10124000F0392A06A900280D280DA906E039A906BB
:10125000A80E2806AA008501260884002908800017
:101260008501270884002A0880000800FF08031968
:101270000800FF0803190800FF0803190800FF30E1
:10128000FF00FF30FF00FF017F087F02031858298D
:101290007F087F07840085010008FF007F08200089
:1012A000A5007F30A6007F30A7000E21FF0A442949
:1012B00085017F0884007F08800085017F08840005
:1012C0007F08800008002000A508031908002000FE
:1012D000A608031908008501200025088400FF30B6
:1012E0008000850126088400FF308000080021006E
:1012F0008E110E168E12240095160800FF007F082E
:10130000240091002000911D82290800FF007F0821
:10131000240091002000911D8A2924001108080052
:10132000FF007F087F04031908007F03FF00FF0808
:101330000319A5297F0885007F087F07840003180B
:10134000850A00087E21FF03972908002000A301D9
:101350006030200023020318BF292030850034307C
:10136000230784000318850A80012030850094300B
:10137000230784000318850A8001A30AA82908000E
:10138000FF00FF01FF0160307F020318F5297F088D
:101390000319D129013A0319DD29033A0319E9296F
:1013A000F3292030850034307F0784000318850A34
:1013B0007F0880000130FF00F329203085003430A1
:1013C0007F0784000318850A7F0880000230FF0031
:1013D000F3292030850034307F0784000318850A04
:1013E0007F088000FF01FF0AC3293430FF0020304E
:0613F000FF0060309029AF
:00000001FF
