:020000040000FA
:02000000552881
:100008002000911E11284B180D2823001908B5222D
:100018001128230019082000A00009002000A400CE
:100028000030230092002000240C7F392F3E23004B
:1000380091000318920A2300951715140000000078
:10004800200024182B28230013087F3908002300D8
:10005800130D140D0800A02252294F293A10D2324C
:10006800E332693B65317533E6327210E63A6C3635
:1000780000104529D227521DA021D221AD21E832F6
:10008800E3352033E134EC326400A02252294F29B1
:100098003A10C5225029CF26A0347310E63A6C36A0
:1000A80000005A208F20A7202D21562872302100C9
:1000B8009900A4221223CA221322FF30D721FF3A23
:1000C800031D6B28FF302000AA000030B521FD3049
:1000D8002000AA000030B52121000E1020000E10CB
:1000E8006010E010CC01CD01A201103020002202E6
:1000F800031885284E302207840085018001A20A52
:100108007928210091160B178B175230252344307C
:1001180025235930252B20004B1C9628A2012F237C
:1001280020004B102000601C9E281B30A2002F23AB
:10013800200060102000E01CA6283430A2002F23E5
:100148002000E010080020004A08490603192C295D
:10015800A301A401A9222000A200CD08031DDF28C5
:10016800220FC8280130CC002208CE005E30A5003E
:100178005F30A600A12120002208A5005E30A6005D
:100188005F30A7004C212C290E302000A300230843
:10019800220203182C294C0B2C292208CD002208F6
:1001A800CF000230CC002208A5005E30A6005F30E8
:1001B800A7004C212C294E3020004C0784008501D3
:1001C80022088000CC0A03304D02031CF2282208C2
:1001D800A5005E30A6005F30A7004C212000CD0BA3
:1001E8002C295008F83A03190029023A031905295D
:1001F800033A031908290B29FF302000AA00003010
:10020800B52920000E10080020000E140800FF3049
:10021800D7212000A500F530250203181929FF3041
:10022800AA000A302507B5211C292000E01408007F
:1002380050302000A6002508A70004304C02E42115
:1002480047302523433025232C292000601408003B
:100258000800FF30D7212000A200A20803194B296B
:100268000A302202D721FD3A03194129013A03191C
:100278004529073A03194529452922302000A300BA
:100288006722FF302000AA000A302202B5290800A0
:1002980085012000260884000008A9008501270898
:1002A80084000008AA0025082906A800F039A80E2D
:1002B800A8062808F0392A06A900280D280DA9063D
:1002C800E039A906A80E2806AA0085012608840098
:1002D800290880008501270884002A088000080072
:1002E800FF0803190800FF0803190800FF0803198D
:1002F8000800FF30FF00FF30FF00FF017F087F028A
:10030800031896297F087F07840085010008FF00ED
:100318007F082000A5007F30A6007F30A7004C2171
:10032800FF0A822985017F0884007F0880008501F3
:100338007F0884007F08800008002000A5080319B2
:1003480008002000A60803190800850120002508D8
:100358008400FF308000850126088400FF3080007B
:1003680008002000AB002A082300910020002B0879
:100378002300930015139513151520002C108B1BC3
:100388002C148B13553023009600AA309600951430
:1003980020002C1C8B132C188B17230015112300FD
:1003A8009518D32908002000AE002E0823009100DC
:1003B80015139513151413082000AF002F08080013
:1003C8002000A800A608031908002000A9012000A1
:1003D800280829020318FC292708AA0085012608ED
:1003E80084000008B5212000A70AA60AA90AEB295B
:1003F8000800FF00FF0803190800FF017F087F02BB
:100408000318122A7F08D721FF007F087F0784007E
:1004180085017F088000FF0AFF0A022A08002000E1
:10042800A3016030200023020318242A203085000D
:100438004130230784000318850A8001A30A152A7E
:1004480008002000B1000130B300B2016030200084
:1004580032020318612A85012E088400330800053A
:100468000319542A203085004130320784000318CC
:10047800850A31088000B20A2030850041303207F1
:1004880084000318850A30088000B20A20308500ED
:100498004130320784000318850A2F088000572A44
:1004A8002000B20AB20A2000B30D031C5E2AAE0A6D
:1004B8000130B3002000B20A2A2A41302000B400DB
:1004C8002030B500F22A8501200023088400053079
:1004D8000002D7212000A4008501230884000430ED
:1004E8000002D7212000A5008501230884000330DD
:1004F8000002D7212000A600A7010430200027020F
:1005080003189B2A8501230884000008A9000930E4
:1005180029022707A9002908D7212000A8002A3086
:1005280027078400850128088000A70A812A2A3025
:100538002000AE002408AF002508B0002608252AB0
:100548002000C901CA014B100800393020004907B2
:10055800840085010008A500490A0F39C90025084B
:1005680008002000A0004A0A0F39A1002108490606
:100578000319C72A39304A078400850120088000FA
:100588002108CA00C92A20004B14080021008E1136
:100598000E168E1224009510941315161413951622
:1005A80008002000B8003808240091002000911DA0
:1005B800DA2A240011080800FF00FF0803190800C0
:1005C8007F08FF00FF08031DF12A7F087F078400CA
:1005D80085010008D522FF03E62A08002000350817
:1005E800B70060303407B6000318B70A2000370890
:1005F8003502031C052B031D112B36083402031882
:10060800112B200035088500340884000008D52205
:100618002000B40A0319B50AFA2A080021000E13AB
:1006280023001E159F1119309B009C019D171E1257
:100638001E131D131D169E162100911623009D11D1
:1006480008002000A6002000111E272B20002608E5
:1006580023009A0008002000220812202000A3008E
:100668002000A3080319412BA20A230825232000F0
:10067800220812202000A300342B0800FF00FF08E6
:1006880003190800FF017F087F020318532B850117
:100698007F08840000082523FF0AFF0A472B08006B
:00000001FF
