:020000040000FA
:020000001428C2
:100008002000911E13283D180F2823001908883155
:10001800332080311328230019082000A00009008C
:1000280018203F20472015287A3021009900883170
:100038002220803188314820803188315821803110
:1000480088318721803121000E1020000E10BE015A
:10005800BF01A20110302000220203183A284030C4
:100068002207840085018001A20A2E28210091160A
:100078000B178B17080020003D1C4628A201883169
:1000880065208031080020003C083B060319D82869
:100098008831272080312000A200BF08031D852851
:1000A800220F6C280130BE002208C0005030A50085
:1000B8005130A60088314421803120002208A50053
:1000C8005030A6005130A7008831EF208031D82861
:1000D8000E302000A300230822020318D8283E0B64
:1000E800D8282208BF002208C1000230BE0022081A
:1000F800A5005030A6005130A7008831EF2080318C
:10010800D828403020003E0784008501220880005E
:10011800BE0ABF032208A5005030A6005130A70030
:100128008831EF2080312000BF08031DD8283F30D8
:100138003E078400850151080006031DD7283E307C
:100148003E078400850150080006031DD728FE30AD
:10015800BE00FF30A6008831B32080312000A50002
:10016800F13025020318C028FF30A6000A30250701
:1001780088318E208031C128080002302000A40078
:1001880020003E0824020318D8282508A60040307D
:10019800240784008501000888318E2080312000E2
:0A01A800A50AA40AC42808000800F4
:101000002000A40019302402031800342000240812
:101010000B004534523452344F3452343A34523443
:1010200065346334653469347634653462347534D8
:1010300066346634653472342034663475346C3406
:101040006C3400342000BB01BC013D1008002B3083
:1010500020003B07840085010008A5003B0A0F39EA
:10106000BB00250808002000A0003C0A0F39A100A1
:1010700021083B06031945282B303C0784008501D5
:10108000200880002108BC00472820003D140800EB
:1010900021000E1323001E159F1544309B009C0158
:1010A0009D171E121E131D131D169E16210091164C
:1010B00023009D1108002000A4002000111E5D28BF
:1010C0002000240823009A000800200022080020A5
:1010D0002000A3002000A30803197B28A20AA3086C
:1010E00003197B28200023085B2020002208002011
:1010F0002000A3006A280800FF00FF080319080069
:10110000FF017F087F0203188D2885017F08840076
:1011100000085B20FF0AFF0A812808002000A700C2
:1011200023009201200026082300910020002708B8
:1011300023009300151395131515200028108B1B01
:1011400028148B13553023009600AA30960095146E
:101150002000281C8B1328188B172300151123003F
:101160009518AF28080023009201200026082300CC
:10117000910015139513151413082000A7002708D4
:101180000800FF00FF0803190800FF017F087F0225
:101190000318D6287F082000A60085017F08840058
:1011A00000088E20FF0AFF0AFF0AC6280800FF0079
:1011B000FF0803190800FF017F087F020318EE28CB
:1011C0007F082000A600B320FF007F087F0784006F
:1011D00085017F088000FF0AFF0ADC2808008501DE
:1011E0002000260884000008A90085012708840043
:1011F0000008AA0025082906A800F039A80EA806AC
:101200002808F0392A06A900280D280DA906E0397A
:10121000A906A80E2806AA00850126088400290828
:1012200080008501270884002A0880000800FF0844
:1012300003190800FF0803190800FF080319080034
:10124000FF30FF00FF30FF00FF017F087F0203181F
:1012500039297F087F07840085010008FF007F0887
:101260002000A5007F30A6007F30A700EF20FF0AF6
:10127000252985017F0884007F08800085017F087B
:1012800084007F08800008002000A50803190800DA
:101290002000A60803190800850120002508840005
:1012A000FF308000850126088400FF3080000800A0
:1012B00021008E110E168E12240095160800FF00D4
:1012C0007F08240091002000911D63290800FF0081
:1012D0007F08240091002000911D6B292400110833
:1012E0000800FF007F087F04031908007F03FF0048
:1012F000FF08031986297F0885007F087F0784007F
:101300000318850A00085F21FF03782908002000E0
:10131000A3016030200023020318A029203085009B
:101320003230230784000318850A800120308500AD
:101330009230230784000318850A8001A30A8929B3
:101340000800FF00FF01FF0160307F020318D6296B
:101350007F080319B229013A0319BE29033A031978
:10136000CA29D4292030850032307F078400031831
:10137000850A7F0880000130FF00D42920308500D5
:1013800032307F0784000318850A7F08800002300E
:10139000FF00D4292030850032307F0784000318F5
:1013A000850A7F088000FF01FF0AA4293230FF0070
:0813B0002030FF0060307129BC
:00000001FF
