:020000040000FA
:020000001428C2
:100008002000911E13283D180F2823001908883155
:100018006F2080311328230019082000A000090050
:1000280018205520722015287A302100990088312F
:100038005E2080318831842080318831942180315C
:100048008831C8218031FF302000A6008831EF2098
:100058008031FF3A031D3728FF302000A700003009
:100068008831CA20803121000E1020000E10D301E3
:10007800BE01BF01A20110302000220203184B2844
:1000880040302207840085018001A20A3F28210010
:1000980091160B178B172000A6018831A1208031FB
:1000A800080020003D1C5D280930A6008831A120E9
:1000B80080312000531C67282430A6008831A120F5
:1000C8008031200053102000D31C71283D30A60039
:1000D8008831A12080312000D310080020003C087E
:1000E8003B0603193E298831632080312000A20095
:1000F800BF08031DB028220F97280130BE00220830
:10010800C0005030A5005130A600883180218031D0
:1001180020002208A5005030A6005130A7008831E1
:100128002B2180313E290E302000A3002308220213
:1001380003183E293E0B3E292208BF002208C100B1
:100148000230BE002208A5005030A6005130A7009A
:1001580088312B2180313E29403020003E07840021
:10016800850122088000BE0A03303F02031CC5280F
:100178002208A5005030A6005130A70088312B2155
:1001880080312000BF0B3E295430A6008831A120C1
:1001980080313F3020003E07840085015108000669
:1001A800031D2B293E303E078400850150080006B8
:1001B800031D2B296230A6008831A1208031200040
:1001C8004208F83A031DF5286A30A6008831A120B4
:1001D8008031FF302000A70000308831CA208031EC
:1001E8000800FE302000BE00FF30A6008831EF2056
:1001F80080312000A5002508883197208031F13012
:1002080020002502031812290A302507A600FF300E
:10021800A70026088831CA20803115292000D31468
:10022800080002302000A40020003E082402031821
:100238003E292508A70040302407840085010008CE
:100248008831CA2080312000A50AA40A18297830EC
:100258002000A6008831A120803120005008883174
:100268009720803120005108883197208031200064
:10027800531408000800FF302000A6008831EF2042
:100288008031FF00FF0803197B290A307F02200014
:10029800A6008831EF208031FD3A031D7B29053007
:1002A8007F022000A6008831EF208031FF00043053
:1002B8007F022000A6008831EF208031FF00033044
:1002C8007F022000A6008831EF208031FF00FF3038
:1002D8002000A7000A307F028831CA2080317F08B9
:1002E800FF007F08FF007F088831E821803108007F
:101000002000A8000830230092002000280C7F391F
:101010001D3E230091000318920A23009517151412
:1010200000000000200028181928230013087F3929
:1010300008002300130D140D08006937693AC437FE
:10104000EE3200104529D227521D2029E531E53422
:10105000F632E23A66336539203375366C00A022E9
:1010600052294F293A104329C3164334E5316B10F6
:10107000E6306936653200104529D227521DA0227C
:101080004528D2274D10E939203375366C00E437F6
:10109000DF21D221DF21C822C3252000F33AE3312A
:1010A000E5397300C432EC32F432A0224528D2274D
:1010B0004D00A021D2215F245F263A002000BB0111
:1010C000BC013D1008002B3020003B078400850147
:1010D0000008A5003B0A0F39BB00250808002000C6
:1010E000A0003C0A0F39A10021083B060319812802
:1010F0002B303C0784008501200880002108BC00BB
:10110000832820003D14080021000E1323001E1523
:101110009F1544309B009C019D171E121E131D132A
:101120001D169E162100911623009D110800200017
:10113000A8002000111E99282000280823009A00EA
:1011400008002000260800202000A7002000A70893
:101150000319B728A60AA7080319B72820002708EB
:1011600097202000260800202000A700A6280800BD
:10117000FF00FF0803190800FF017F087F02031822
:10118000C92885017F08840000089720FF0AFF0A0C
:10119000BD2808002000A800230092012000270895
:1011A00023009100200028082300930015139513B5
:1011B0001515200029108B1B29148B135530230083
:1011C0009600AA30960095142000291C8B1329182C
:1011D0008B172300151123009518EB280800230016
:1011E0009201200026082300910015139513151471
:1011F00013082000A70027080800FF00FF080319B4
:101200000800FF017F087F02031812297F082000D1
:10121000A70085017F0884000008CA20FF0AFF0A92
:10122000FF0A02290800FF00FF0803190800FF0158
:101230007F087F0203182A297F082000A600EF20DC
:10124000FF007F087F07840085017F088000FF0A78
:10125000FF0A1829080085012000260884000008DC
:10126000A9008501270884000008AA00250829068E
:10127000A800F039A80EA8062808F0392A06A90007
:10128000280D280DA906E039A906A80E2806AA00EF
:10129000850126088400290880008501270884002C
:1012A0002A0880000800FF0803190800FF08031936
:1012B0000800FF0803190800FF30FF00FF30FF009F
:1012C000FF017F087F02031875297F087F078400CC
:1012D00085010008FF007F082000A5007F30A600E0
:1012E0007F30A7002B21FF0A612985017F08840038
:1012F0007F08800085017F0884007F088000080047
:101300002000A508031908002000A60803190800FA
:101310008501200025088400FF3080008501260813
:101320008400FF308000080021008E110E168E12FE
:101330002400951608002000A80028082400910029
:101340002000911DA0290800FF007F0824009100C3
:101350002000911DA8292400110808002000A600E3
:10136000240825040319080020002603A7002000F4
:10137000A7080319C7292508850027082407840022
:101380000318850A00089B212000A703B72908003D
:101390002000A3016030200023020318E12920303F
:1013A00085003430230784000318850A800120302B
:1013B00085009430230784000318850A8001A30A5E
:1013C000CA2934302000A4002030A5006030AE29A6
:1013D000FF00FF01FF0160307F0203181D2A7F0814
:1013E0000319F929013A0319052A033A0319112AA5
:1013F0001B2A2030850034307F0784000318850ABB
:101400007F0880000130FF001B2A20308500343027
:101410007F0784000318850A7F0880000230FF00E0
:101420001B2A2030850034307F0784000318850A8A
:101430007F088000FF01FF0AEB2934302000A40060
:081440002030A5006030AE2948
:00000001FF
