:020000040000FA
:020000001428C2
:100008002000911E13284B180F2823001908883147
:10001800542080311328230019082000A00009006B
:10002800192062207E201B2115287230210099009A
:1000380088314320803188316920803188317221AC
:1000480080318831BA218031FF308831CD2080312C
:10005800FF3A031D3628FF302000AA0000308831FF
:10006800AB208031FD302000AA0000308831AB2061
:10007800803121000E1020000E10E001CC01CD01CE
:10008800A201103020002202031851284E30220706
:10009800840085018001A20A4528210091160B17CA
:1000A8008B17523088317C208031443088317C2055
:1000B8008031593088317C208031080020004B1C69
:1000C8006928A2018831862080312000601C7328AD
:1000D8001B30A2008831862080312000601020006B
:1000E800E01C7D283430A200883186208031200031
:1000F800E010080020004A08490603191A29A3013C
:10010800A4018831482080312000A200CD08031DB9
:10011800BE28220FA5280130CC002208CE005E3070
:10012800A5005F30A60088315E21803120002208BA
:10013800A5005E30A6005F30A70088310921803114
:100148001A290E302000A3002308220203181A29B6
:100158004C0B1A292208CD002208CF000230CC000F
:100168002208A5005E30A6005F30A700883109216B
:1001780080311A294E3020004C078400850122085E
:100188008000CC0A03304D02031CD3282208A500A6
:100198005E30A6005F30A700883109218031200039
:1001A800CD0B1A295008F83A0319E128023A031925
:1001B800E928033A0319EC28EF28FF302000AA00A9
:1001C80000308831AB208031080020000E10080074
:1001D80020000E140800FF308831CD208031200027
:1001E800A500F530250203180129FF30AA000A30BE
:1001F80025078831AB20803104292000E01408004D
:1002080050302000A6002508A70004304C02883191
:10021800DA208031473088317C2080314330883182
:100228007C2080311A292000601408000800FF3063
:100238008831CD2080312000A200A208031941296D
:100248000A3022028831CD208031FD3A0319332942
:10025800013A03193929073A03193929392922306A
:100268002000A30088310E228031FF302000AA0030
:0C0278000A3022028831AB2080310800DF
:101000002000A4000830230092002000240C7F3927
:101010001D3E230091000318920A23009517151412
:1010200000000000200024181928230013087F392D
:1010300008002300130D140D0800A02252294F2987
:101040003A10D232E332693B65317533E6327210C1
:10105000E63A6C3600104529D227521DA021D22134
:10106000AD21E832E3352033E134EC326400A022D4
:1010700052294F293A10C5225029CF26A034731087
:10108000E63A6C3600002000C901CA014B10080086
:10109000393020004907840085010008A500490A6D
:1010A0000F39C900250808002000A0004A0A0F399E
:1010B000A100210849060319662839304A0784002F
:1010C0008501200880002108CA00682820004B14F0
:1010D000080021000E1323001E159F1119309B00DC
:1010E0009C019D171E121E131D131D169E16210016
:1010F000911623009D1108002000A6002000111E5B
:101100007E282000260823009A00080020002208DC
:1011100000202000A3002000A30803199828A20A99
:1011200023087C202000220800202000A3008B2818
:101130000800FF00FF0803190800FF017F087F0275
:101140000318AA2885017F08840000087C20FF0A74
:10115000FF0A9E2808002000AB002A082300910007
:1011600020002B082300930015139513151520005C
:101170002C108B1B2C148B13553023009600AA3097
:101180009600951420002C1C8B132C188B17230011
:10119000151123009518C92808002000AE002E085C
:1011A0002300910015139513151413082000AF00A8
:1011B0002F0808002000A800A60803190800200036
:1011C000A9012000280829020318F2282708AA00EC
:1011D0008501260884000008AB202000A70AA60A83
:1011E000A90AE1280800FF00FF0803190800FF0111
:1011F0007F087F02031808297F08CD20FF007F08A1
:101200007F07840085017F088000FF0AFF0AF82815
:10121000080085012000260884000008A900850137
:10122000270884000008AA0025082906A800F0392C
:10123000A80EA8062808F0392A06A900280D280DAE
:10124000A906E039A906A80E2806AA0085012608E5
:101250008400290880008501270884002A0880006E
:101260000800FF0803190800FF0803190800FF0819
:1012700003190800FF30FF00FF30FF00FF017F0867
:101280007F02031853297F087F0784008501000827
:10129000FF007F082000A5007F30A6007F30A70058
:1012A0000921FF0A3F2985017F0884007F0880000B
:1012B00085017F0884007F08800008002000A508C1
:1012C000031908002000A608031908008501200062
:1012D00025088400FF308000850126088400FF3047
:1012E0008000080021008E110E168E122400951029
:1012F000941315161413951608002000B80038082A
:10130000240091002000911D82292400110808006A
:10131000FF00FF08031908007F08FF00FF08031DF6
:1013200099297F087F078400850100087D21FF033C
:101330008E29080020003508B70060303407B60059
:101340000318B70A200037083502031CAD29031D16
:10135000B929360834020318B92920003508850058
:101360003408840000087D212000B40A0319B50A5E
:10137000A22908002000A3016030200023020318E6
:10138000CB29203085004130230784000318850ACB
:101390008001A30ABC2908002000B1000130B3007D
:1013A000B2016030200032020318082A85012E089D
:1013B0008400330800050319FB29203085004130E3
:1013C000320784000318850A31088000B20A2030F1
:1013D00085004130320784000318850A30088000F8
:1013E000B20A203085004130320784000318850A94
:1013F0002F088000FE292000B20AB20A2000B30D97
:10140000031C052AAE0A0130B3002000B20AD1291C
:1014100041302000B4002030B5009A298501200019
:101420002308840005300002CD202000A40085019F
:101430002308840004300002CD202000A50085018F
:101440002308840003300002CD202000A600A7015D
:101450000430200027020318422A85012308840053
:101460000008A900093029022707A9002908CD2072
:101470002000A8002A302707840085012808800062
:10148000A70A282A2A302000AE002408AF00250829
:06149000B0002608CC2983
:00000001FF
