:020000040000FA
:020000001428C2
:100008002000911E13284E180F2823001908883144
:10001800542080311328230019082000A00009006B
:10002800192062207E201B2115287230210099009A
:1000380088314320803188316920803188317621A8
:1000480080318831CE218031FF308831D120803114
:10005800FF3A031D3628FF302000AA0000308831FF
:10006800AF208031FD302000AA0000308831AF2059
:10007800803121000E1020000E10E301CF01D001C5
:10008800A201103020002202031851285130220703
:10009800840085018001A20A4528210091160B17CA
:1000A8008B17523088317C208031443088317C2055
:1000B8008031593088317C208031080020004E1C66
:1000C8006928A2018831862080312000631C7328AA
:1000D8001B30A20088318620803120006310200068
:1000E800E31C7D283430A20088318620803120002E
:1000F800E310080020004D084C0603191A29A30133
:10010800A4018831482080312000A200D008031DB6
:10011800BE28220FA5280130CF002208D100613067
:10012800A5006230A60088316221803120002208B3
:10013800A5006130A6006230A70088310D2180310A
:100148001A290E302000A3002308220203181A29B6
:100158004F0B1A292208D0002208D2000230CF0003
:100168002208A5006130A6006230A70088310D2161
:1001780080311A29513020004F0784008501220858
:100188008000CF0A03305002031CD3282208A500A0
:100198006130A6006230A70088310D21803120002F
:1001A800D00B1A295308F83A0319E128023A03191F
:1001B800E928033A0319EC28EF28FF302000AA00A9
:1001C80000308831AF208031080020000E10080070
:1001D80020000E140800FF308831D1208031200023
:1001E800A500F530250203180129FF30AA000A30BE
:1001F80025078831AF20803104292000E314080046
:1002080053302000A6002508A70004304F0288318B
:10021800DE208031473088317C208031433088317E
:100228007C2080311A292000631408000800FF3060
:100238008831D12080312000A200A20803193F296B
:100248000A3022028831D1208031FD3A031933293E
:10025800013A03193729073A031937293729223070
:100268002000A3004021FF302000AA000A3022020B
:100278008831AF20803108008501200023088400E0
:10028800053000028831D12080312000A40085018A
:1002980023088400043000028831D12080312000F6
:1002A800A500850123088400033000028831D1208D
:1002B80080312000A600A70104302000270203187F
:1002C8007C298501230884000008A9000930290237
:1002D8002707A90029088831D12080312000A800EB
:1002E8002A3027078400850128088000A70A60298A
:1002F8002A302000AE002408AF002508B0002608E8
:080308008831F021803108006A
:101000002000A4000830230092002000240C7F3927
:101010001D3E230091000318920A23009517151412
:1010200000000000200024181928230013087F392D
:1010300008002300130D140D0800A02252294F2987
:101040003A10D232E332693B65317533E6327210C1
:10105000E63A6C3600104529D227521DA021D22134
:10106000AD21E832E3352033E134EC326400A022D4
:1010700052294F293A10C5225029CF26A034731087
:10108000E63A6C3600002000CC01CD014E1008007D
:101090003C3020004C07840085010008A5004C0A64
:1010A0000F39CC00250808002000A0004D0A0F3998
:1010B000A10021084C06031966283C304D07840026
:1010C0008501200880002108CD00682820004E14EA
:1010D000080021000E1323001E159F1119309B00DC
:1010E0009C019D171E121E131D131D169E16210016
:1010F000911623009D1108002000A6002000111E5B
:101100007E282000260823009A00080020002208DC
:1011100000202000A3002000A30803199C28A20A95
:10112000A30803199C28200023087C202000220803
:1011300000202000A3008B280800FF00FF080319EF
:101140000800FF017F087F020318AE2885017F0891
:10115000840000087C20FF0AFF0AA2280800200063
:10116000AB002A082300910020002B0823009300E5
:1011700015139513151520002C108B1B2C148B1395
:10118000553023009600AA309600951420002C1CA0
:101190008B132C188B172300151123009518CD28BD
:1011A00008002000AE002E082300910015139513AF
:1011B000151413082000AF002F0808002000A80015
:1011C000A608031908002000A90120002808290208
:1011D0000318F6282708AA008501260884000008BD
:1011E000AF202000A70AA60AA90AE5280800FF00E8
:1011F000FF0803190800FF017F087F0203180C296C
:101200007F08D120FF007F087F07840085017F08C9
:101210008000FF0AFF0AFC2808008501200026083C
:1012200084000008A9008501270884000008AA009E
:1012300025082906A800F039A80EA8062808F039C4
:101240002A06A900280D280DA906E039A906A80E2E
:101250002806AA0085012608840029088000850147
:10126000270884002A0880000800FF0803190800E6
:10127000FF0803190800FF0803190800FF30FF00EA
:10128000FF30FF00FF017F087F02031857297F0806
:101290007F07840085010008FF007F082000A5006B
:1012A0007F30A6007F30A7000D21FF0A432985016A
:1012B0007F0884007F08800085017F0884007F0804
:1012C000800008002000A508031908002000A608D7
:1012D000031908008501200025088400FF308000E4
:1012E000850126088400FF308000080021008E114F
:1012F0000E168E12240095109413151614139516BD
:101300000800FF007F08240091002000911D85291E
:1013100008002000BB003B08240091002000911D24
:101320008E29240011080800FF00FF080319080097
:101330007F08FF00FF08031DA5297F087F078400A1
:10134000850100088121FF039A2908002000BA01C5
:10135000203020003A020318CD29390885003808CA
:1013600084000008892120003708850036088400A1
:101370000008892120003508850034088400000811
:1013800089212000B80A0319B90AB60A0319B70A55
:10139000B40A0319B50ABA0AA82908002000A30153
:1013A0002030200023020318EF292030850044302C
:1013B000230784000318850A8001203085006430EB
:1013C000230784000318850A8001203085008430BB
:1013D000230784000318850A8001A30AD029080086
:1013E0002000B1000130B300B201203020003202F1
:1013F0000318262A85012E088400330800050319E6
:101400001C2A203085004430320784000318850AE6
:101410002F088000203085006430320784000318D4
:10142000850A30088000203085008430320784002F
:101430000318850A310880002000B30D031C232AFD
:10144000AE0A0130B3002000B20AF5294430200072
:10145000B4002030B5006430B6002030B7008430CE
:08146000B8002030B900A629F4
:00000001FF
