:020000040000FA
:02000000552881
:100008002000911E11284B180D2823001908B3222F
:100018001128230019082000A00009002000A400CE
:100028000030230092002000240C7F392F3E23004B
:1000380091000318920A2300951715140000000078
:10004800200024182B28230013087F3908002300D8
:10005800130D140D0800A02252294F293A10D2324C
:10006800E332693B65317533E6327210E63A6C3635
:1000780000104529D227521DA021D221AD21E832F6
:10008800E3352033E134EC326400A02252294F29B1
:100098003A10C5225029CF26A0347310E63A6C36A0
:1000A80000005A208F20A5202B21562872302100CD
:1000B8009900A2221023C8221122FF30D521FF3A2D
:1000C800031D6B28FF302000AA000030B321FD304B
:1000D8002000AA000030B32121000E1020000E10CD
:1000E8006010E010CC01CD01A201103020002202E6
:1000F800031885284E302207840085018001A20A52
:100108007928210091160B178B175230232344307E
:1001180023235930232B20004B1C9428A2012D2384
:100128002000601C9C281B30A2002D23200060109A
:100138002000E01CA4283430A2002D232000E01069
:10014800080020004A08490603192A29A301A40126
:10015800A7222000A200CD08031DDD28220FC628F3
:100168000130CC002208CE005E30A5005F30A6002A
:100178009F2120002208A5005E30A6005F30A7005E
:100188004A212A290E302000A3002308220203183E
:100198002A294C0B2A292208CD002208CF00023038
:1001A800CC002208A5005E30A6005F30A7004A21D7
:1001B8002A294E3020004C0784008501220880003F
:1001C800CC0A03304D02031CF0282208A5005E303B
:1001D800A6005F30A7004A212000CD0B2A2950082D
:1001E800F83A0319FE28023A03190329033A0319B6
:1001F80006290929FF302000AA000030B329200071
:100208000E10080020000E140800FF30D521200031
:10021800A500F530250203181729FF30AA000A3077
:100228002507B3211A292000E014080050302000C7
:10023800A6002508A70004304C02E22147302323FA
:10024800433023232A292000601408000800FF30C7
:10025800D5212000A200A208031949290A30220248
:10026800D521FD3A03193F29013A03194329073AD1
:1002780003194329432922302000A3006522FF30B7
:100288002000AA000A302202B329080085012000B4
:10029800260884000008A9008501270884000008B2
:1002A800AA0025082906A800F039A80EA8062808DB
:1002B800F0392A06A900280D280DA906E039A90653
:1002C800A80E2806AA0085012608840029088000AF
:1002D8008501270884002A0880000800FF08031900
:1002E8000800FF0803190800FF0803190800FF3079
:1002F800FF00FF30FF00FF017F087F0203189429E9
:100308007F087F07840085010008FF007F08200020
:10031800A5007F30A6007F30A7004A21FF0A802968
:1003280085017F0884007F08800085017F0884009C
:100338007F08800008002000A50803190800200095
:10034800A608031908008501200025088400FF304D
:100358008000850126088400FF3080000800200006
:10036800AB002A082300910020002B0823009300EB
:1003780015139513151520002C108B1B2C148B139B
:10038800553023009600AA309600951420002C1CA6
:100398008B132C188B172300151123009518D129BE
:1003A80008002000AE002E082300910015139513B5
:1003B800151413082000AF002F0808002000A8001B
:1003C800A608031908002000A9012000280829020E
:1003D8000318FA292708AA008501260884000008BE
:1003E800B3212000A70AA60AA90AE9290800FF00E4
:1003F800FF0803190800FF017F087F020318102A6D
:100408007F08D521FF007F087F07840085017F08CA
:100418008000FF0AFF0A002A08002000A3016030BC
:10042800200023020318222A2030850041302307A8
:1004380084000318850A8001A30A132A08002000F3
:10044800B1000130B300B20160302000320203185D
:100458005F2A85012E088400330800050319522AF3
:10046800203085004130320784000318850A31089E
:100478008000B20A2030850041303207840003181A
:10048800850A30088000B20A2030850041303207E2
:1004980084000318850A2F088000552A2000B20A14
:1004A800B20A2000B30D031C5C2AAE0A0130B30067
:1004B8002000B20A282A41302000B4002030B500BC
:1004C800F02A850120002308840005300002D52188
:1004D8002000A40085012308840004300002D521EF
:1004E8002000A50085012308840003300002D521DF
:1004F8002000A600A7010430200027020318992A2B
:100508008501230884000008A9000930290227076B
:10051800A9002908D5212000A8002A30270784002F
:10052800850128088000A70A7F2A2A302000AE000B
:100538002408AF002508B0002608232A2000C90196
:10054800CA014B1008003930200049078400850192
:100558000008A500490A0F39C9002508080020002D
:10056800A0004A0A0F39A100210849060319C52A23
:1005780039304A0784008501200880002108CA0014
:10058800C72A20004B14080021008E110E168E1267
:1005980024009510941315161413951608002000BE
:1005A800B8003808240091002000911DD82A2400A2
:1005B80011080800FF00FF08031908007F08FF0062
:1005C800FF08031DEF2A7F087F07840085010008C4
:1005D800D322FF03E42A080020003508B700603062
:1005E8003407B6000318B70A200037083502031C81
:1005F800032B031D0F2B3608340203180F2B200082
:1006080035088500340884000008D3222000B40A85
:100618000319B50AF82A080021000E1323001E1535
:100628009F1119309B009C019D171E121E131D134C
:100638001D169E162100911623009D11080020000A
:10064800A6002000111E252B2000260823009A0052
:1006580008002000220812202000A3002000A30880
:1006680003193F2BA20A2308232320002208122063
:100678002000A300322B0800FF00FF080319080020
:10068800FF017F087F020318512B85017F08840032
:0C06980000082323FF0AFF0A452B08007E
:00000001FF
