:020000040000FA
:0400000071EF00F0AC
:0400080024D81100E7
:10001800D8CF04F0E0CF05F0066E7EA209D0382ACA
:1000280058EC11F07E92EC0E0F01506F780E4F6F66
:100038009EA005D0392A60EC11F0CD909E90065014
:1000480005C0E0FF04C0D8FF1000E9CF00F0EACFF8
:1000580001F09EAA19D0080102B114D00129026E3C
:1000680002500019D8B40BD001C803F00350E96E50
:10007800070EEA6EAECFEFFF02C001F805D0080107
:10008800028102D0AECF02F000C0E9FF01C0EAFF52
:02009800120054
:1000E2004BD8076A58EC09F0090E076E58EC09F074
:1000F20037EC0CF0090E076E66EC09F00A0E076E7B
:1001020058EC09F048D90A0E076E66EC09F0070EA2
:10011200076E58EC09F0C9EC0AF0070E076E66ECA0
:1001220009F03952D8B40BD0060E076E58EC09F01C
:10013200F0DA060E076E66EC09F0CD80396A076ABE
:1001420066EC09F0080E076E58EC09F02FEC10F07F
:10015200080E076E66EC09F03852D8B4C2D7010E09
:10016200076E58EC09F025DA010E076E66EC09F00D
:100172007D92386A7D82B5D70FEE37F0ED6AEA508C
:10018200FDE1E950FBE1EF6A69EC11F0720ED36E0A
:100192009B8C816A8A6A0F01396B806A896A386B23
:1001A200926A040E806E076A070E086EFAEC09F076
:1001B20077EC0AF03EEC09F033D9B7EC0AF0A2EC86
:1001C2000CF016EC10F049EC0CF0140E2C6E2D6AAB
:1001D2000A6A050E0B6EEC0E0C6E0D6A9BEC0BF0B0
:1001E2000A6A050E0B6E33EC0BF0126A7CEC11F00E
:1001F20058EF0CF014C0E9FF15C0EAFFEFCF19F079
:1002020016C0E9FF17C0EAFFEFCF1AF01350191812
:10021200186EF00B183A181A1850F00B1A18196EBB
:1002220018341834191AE00B191A183A18181A6ED9
:1002320014C0E9FF15C0EAFF19C0EFFF16C0E9FFBD
:1002420017C0EAFF1AC0EFFF12007FCF13F0156A42
:100252007F28146E7FCF16F0176ACCD77F50D8B4A0
:1002620012007F50D8B412007F50D8B412007F68B9
:100272007F687F6A7F507F6012D07F507F243FEC7F
:1002820013F07F6E7FCF13F07F0E146E0F0E156E7C
:100292007F0E166E0F0E176EADDF7F2AEBD77FCF64
:1002A200E9FFEA6A7FCFEFFF7FCFE9FFEA6A7FCFFC
:1002B200EFFF120013501410D8B41200155016108C
:1002C200D8B4120013C0E9FF14C0EAFFEF6A15C0E8
:1002D200E9FF16C0EAFFEF6A12001D90F2BE1D8010
:1002E2001BC0AAFF1AC0A9FF1CC0A8FFA69CA69EFD
:1002F200A684F29E550EA76EAA0EA76EA6821DA018
:10030200F29E1DB0F28EA694A6B2FED7120010C0C5
:10031200AAFF0FC0A9FFA69CA69EA680A8CF11F097
:100322001150120012501310D8B41200176A16504E
:10033200176017D012C018F013C019F014C01AF0C9
:1003420015C01BF018C0E9FF19C0EAFFEFCF1CF07F
:10035200C4DF142A000E1522122A000E1322172AB5
:10036200E6D712000952D8B412000D6A0C500D6083
:1003720011D00AC00FF00BC010F0C9DF0E6EEA6A8E
:100382000D500924E96E0EC0EFFF0A2A000E0B225F
:100392000D2AECD71200900E156E166A58EC0AF070
:1003A200D8A009D0900E076E086AFAEC09F00C0E7C
:1003B200126E7CEF11F012001F6E080E226E216A7F
:1003C2001E501F32D8B0212621322032222EF9D7D8
:1003D20020501200206E216A110E226E08D02136A2
:1003E20023362050215C23B0D880D8B0216E1E362F
:1003F2001F36222EF4D71E5012003A683B683C6822
:100402003D68C80E1C6E1D6A65EC0CF01EC042F001
:100412001FC043F03E6A3F6A406A3A0E096E9DD1A0
:1004220013EC09F0600E076E0706030E0724E96E4F
:10043200080EEA6AEA22EF6A0752D8A4F5D7600EDC
:10044200076E0706630E0724E96E080EEA6AEA22BF
:10045200EF6A0752D8A4F5D7C00E076E0706D890E8
:100462000734E96EEA6AEA36C30EE926080EEA2282
:10047200EE6AEF6A0752D8A4F1D7C00E076E0706DC
:10048200D8900734E96EEA6AEA36830EE926090E45
:10049200EA22EE6AEF6A0752D8A4F1D70C0E076E71
:1004A2000706430E0724E96E0A0EEA6AEA22EF6A99
:1004B2000752D8A4F5D7600E076E07064F0E072421
:1004C200E96E0A0EEA6AEA22EF6A0752D8A4F5D761
:1004D2000A01AF6BB06BB16B12000B6A600E0B605E
:1004E20067D0020EEA6E0AC0E9FFEFCF0CF00A2ACB
:1004F200020EEA6E0AC0E9FFEFCF0DF00A2A020EE1
:10050200EA6E0AC0E9FFEFCF0EF00A2A030E0B24AF
:10051200E96E080EEA6AEA220EC0EFFFD8900B34A9
:10052200E96EEA6AEA36C30EE926080EEA22EE6AA4
:10053200EF6A630E0B24E96E080EEA6AEA22EF6A9A
:100542000B2A030E0B24E96E080EEA6AEA220DC09A
:10055200EFFFD8900B34E96EEA6AEA36C30EE92659
:10056200080EEA22EE6AEF6A630E0B24E96E080EA9
:10057200EA6AEA22EF6A0B2A030E0B24E96E080EDE
:10058200EA6AEA220CC0EFFFD8900B34E96EEA6AFD
:10059200EA36C30EE926080EEA22EE6AEF6A630E15
:1005A2000B24E96E080EEA6AEA22EF6A0B2A96D752
:1005B2001200430E0A6E0A0E0B6E010E086E076AD7
:1005C200600E076024D0630E0724E96E080EEA6A03
:1005D200EA22EF50D8B419D0D8900734E96EEA6A0B
:1005E200EA36C30EE926080EEA22EE50EF10D8B41E
:1005F2000CD0D8900734E96EEA6AEA36C30EE926CF
:10060200080EEA22EE06000EEF5A072AD9D7076A29
:10061200600E07607DD0630E0724E96E080EEA6A59
:10062200EA22EF50D8B469D0D8900734E96EEA6A6A
:10063200EA36C30EE926080EEA22EE50EF10D8A4DD
:100642005CD04F0E0724E96E0A0EEA6AEA22EFCF67
:1006520009F0630E0724E96E080EEA6AEA220950DD
:10066200EF6010D0630E0724E96E080EEA6AEA22F0
:10067200EFCF09F0630E0724E96E080EEA6AEA2258
:10068200EF6A08D0630E0724E96E080EEA6AEA22CE
:100692000950EF5ED8900734E96EEA6AEA36830EB3
:1006A200E926090EEA22EECF0CF0EECF0DF0D8903B
:1006B2000734E96EEA6AEA36C30EE926080EEA2230
:1006C2000CC0EEFF0DC0EEFF0AC0E9FF0BC0EAFF4F
:1006D2000850EF14D8B409D0030E0724E96E080EAF
:1006E200EA6AEA220950EF5E08D0030E0724E96E97
:1006F200080EEA6AEA220950EF26D8900836D8A4F2
:1007020005D00A2A000E0B22010E086E072A80D796
:1007120012000A01B153D8B418D0B1CA1EF0030EA8
:100722004BDE20C007F0030E0724086E080E096A8C
:1007320009220750600825EC09F0030E086E080E26
:10074200096E075025EC09F007D0030E086E080E5B
:10075200096E600E25EF09F01200EA6A080E0924FC
:10076200E96EEECF1EF0EECF1FF06BEC0CF020C066
:100772000AF021C00BF0430E0C6E0A0E0D6E010E34
:100782000E6EEA6A040E0924E96EEFCF11F0EA6AEE
:10079200050E0924E96EEFCF12F0EA6A060E09246B
:1007A200E96EEFCF13F009C017F0010E196E186A47
:1007B200600E186080D117C0E9FFEA6A1950EF1481
:1007C200D8B453D1030E1824E96E080EEA6AEA225D
:1007D200EFCF14F01450136009D01350145E0CC004
:1007E200E9FF0DC0EAFF0E50EF1209D01450135C5E
:1007F200146E0CC0E9FF0DC0EAFF0E1CEF16D89074
:100802000E36D8A405D00C2A000E0D22010E0E6E53
:10081200010E156E0F6A106A1452D8B419D014C0A2
:100822001EF01F6A1550D6DD1EC016F00AC01EF05B
:100832000BC01FF01650CEDD1EC00FF01FC010F00F
:100842000F501010D8B4152A0F501010D8B4E7D793
:100852004F0E1824E96E0A0EEA6AEA2215C0EFFF6B
:10086200630E1824E96E080EEA6AEA2214C0EFFF4A
:10087200D8901834E96EEA6AEA36830EE926090E40
:10088200EA220FC0EEFF10C0EEFFD8901834E96ED6
:10089200EA6AEA36C30EE926080EEA220FC0EEFF24
:1008A20010C0EEFF182A030E1824E96E080EEA6A39
:1008B200EA22EFCF14F01450126009D01250145EE5
:1008C2000CC0E9FF0DC0EAFF0E50EF1209D0145020
:1008D200125C146E0CC0E9FF0DC0EAFF0E1CEF168D
:1008E200D8900E36D8A405D00C2A000E0D22010E87
:1008F2000E6E010E156E0F6A106A1452D8B419D01A
:1009020014C01EF01F6A155065DD1EC016F00AC025
:100912001EF00BC01FF016505DDD1EC00FF01FC091
:1009220010F00F501010D8B4152A0F501010D8B470
:10093200E7D74F0E1824E96E0A0EEA6AEA2215C0BA
:10094200EFFF630E1824E96E080EEA6AEA2214C069
:10095200EFFFD8901834E96EEA6AEA36830EE92688
:10096200090EEA220FC0EEFF10C0EEFFD890183435
:10097200E96EEA6AEA36C30EE926080EEA220FC0D9
:10098200EEFF10C0EEFF182A030E1824E96E080EBF
:10099200EA6AEA22EFCF14F01450116009D0115024
:1009A200145E0CC0E9FF0DC0EAFF0E50EF1209D031
:1009B2001450115C146E0CC0E9FF0DC0EAFF0E1C4E
:1009C200EF16D8900E36D8A405D00C2A000E0D22B0
:1009D200010E0E6E010E156E0F6A106A1452D8B413
:1009E20019D014C01EF01F6A1550F4DC1EC016F098
:1009F2000AC01EF00BC01FF01650ECDC1EC00FF038
:100A02001FC010F00F501010D8B4152A0F5010103C
:100A1200D8B4E7D74F0E1824E96E0A0EEA6AEA2222
:100A220015C0EFFF630E1824E96E080EEA6AEA2287
:100A320014C0EFFFD8901834E96EEA6AEA36830EE2
:100A4200E926090EEA220FC0EEFF10C0EEFFD89091
:100A52001834E96EEA6AEA36C30EE926080EEA227B
:100A62000FC0EEFF10C0EEFF1DD0182A182AD89032
:100A72000E36D8A405D00C2A000E0D22010E0E6EE1
:100A8200D8900E36D8A405D00C2A000E0D22010EE5
:100A92000E6ED8900E36D8A405D00C2A000E0D2268
:100AA200010E0E6ED8901936D8A403D0172A010E63
:100AB200196E182A7DD61200EA6A080E0924E96E18
:100AC200EECF1EF0EECF1FF06BEC0CF020C00AF060
:100AD20021C00BF0EA6A060E0924E96E7F0EEF14BC
:100AE2000C6EEA6A070E0924E96EEF040D6E0D48DA
:100AF20003D00D52D8A402D0010E0D6E09C0E9FF39
:100B0200EA6AEFCF0EF0EA6A030E0924E96E0E508C
:100B1200EF6007D0EA6A030E0924E96EEF500E5E19
:100B220007D0EA6A030E0924E96E0E50EF5C0E6EDE
:100B32000EC01EF01F6A0D504DDC1EC00EF0EA6A98
:100B42000928E96EEFCF0FF0EA6A040E0924E96E74
:100B52000F50EF6007D0EA6A040E0924E96EEF50E5
:100B62000F5E07D0EA6A040E0924E96E0F50EF5CAB
:100B72000F6E0FC01EF01F6A0D502CDC1EC00FF04E
:100B8200EA6A020E0924E96EEFCF10F0EA6A050E56
:100B92000924E96E1050EF6007D0EA6A050E0924B5
:100BA200E96EEF50105E07D0EA6A050E0924E96E7D
:100BB2001050EF5C106E10C01EF01F6A0D500ADC60
:100BC2001EC010F009C0E9FFEA6AEFCF11F0EA6A2D
:100BD2000928E96EEFCF12F0EA6A020E0924E96EE3
:100BE200EFCF13F0430E1A6E0A0E1B6E010E1C6E2F
:100BF2000CC01EF0030EDDEC01F020C00CF00DC0A5
:100C02001EF0030EDDEC01F020C00DF00D500C249F
:100C12001D6E166A600E1660FBD21D50165CD8A0BF
:100C22006BD1EA6A030E0924E96EEFCF11F0EA6A8A
:100C3200040E0924E96EEFCF12F0EA6A050E0924C8
:100C4200E96EEFCF13F0030E1624E96E080EEA6A7E
:100C5200EA22EFCF17F01750136009D01350175E36
:100C62001AC0E9FF1BC0EAFF1C50EF1209D017504F
:100C7200135C176E1AC0E9FF1BC0EAFF1C1CEF16BB
:100C8200D8901C36D8A405D01A2A000E1B22010EB9
:100C92001C6E010E186E146A156A1752D8B41BD056
:100CA20017C01EF01F6A1850EBEC01F01EC019F0BD
:100CB2000AC01EF00BC01FF01950EBEC01F01EC071
:100CC20014F01FC015F014501510D8B4182A14507F
:100CD2001510D8B4E5D74F0E1624E96E0A0EEA6A4B
:100CE200EA2218C0EFFF630E1624E96E080EEA6AC4
:100CF200EA2217C0EFFFD8901634E96EEA6AEA36A4
:100D0200830EE926090EEA2214C0EEFF15C0EEFF9B
:100D1200D8901634E96EEA6AEA36C30EE926080E5E
:100D2200EA2214C0EEFF15C0EEFF162A030E1624A7
:100D3200E96E080EEA6AEA22EFCF17F01750126046
:100D420009D01250175E1AC0E9FF1BC0EAFF1C50FF
:100D5200EF1209D01750125C176E1AC0E9FF1BC0C0
:100D6200EAFF1C1CEF16D8901C36D8A405D01A2A0C
:100D7200000E1B22010E1C6E010E186E146A156AFB
:100D82001752D8B41BD017C01EF01F6A1850EBECD4
:100D920001F01EC019F00AC01EF00BC01FF019505E
:100DA200EBEC01F01EC014F01FC015F0145015102A
:100DB200D8B4182A14501510D8B4E5D74F0E1624FB
:100DC200E96E0A0EEA6AEA2218C0EFFF630E1624E1
:100DD200E96E080EEA6AEA2217C0EFFFD8901634CD
:100DE200E96EEA6AEA36830EE926090EEA2214C09F
:100DF200EEFF15C0EEFFD8901634E96EEA6AEA36C5
:100E0200C30EE926080EEA2214C0EEFF15C0EEFF5B
:100E1200162A030E1624E96E080EEA6AEA22EFCFBA
:100E220017F01750116009D01150175E1AC0E9FF70
:100E32001BC0EAFF1C50EF1209D01750115C176E4D
:100E42001AC0E9FF1BC0EAFF1C1CEF16D8901C3623
:100E5200D8A405D01A2A000E1B22010E1C6E010E08
:100E6200186E146A156A1752D8B41BD017C01EF038
:100E72001F6A1850EBEC01F01EC019F00AC01EF0F8
:100E82000BC01FF01950EBEC01F01EC014F01FC094
:100E920015F014501510D8B4182A14501510D8B4DF
:100EA200E5D74F0E1624E96E0A0EEA6AEA2218C046
:100EB200EFFF630E1624E96E080EEA6AEA2217C0F3
:100EC200EFFFD8901634E96EEA6AEA36830EE92615
:100ED200090EEA2214C0EEFF15C0EEFFD8901634B8
:100EE200E96EEA6AEA36C30EE926080EEA2214C05F
:100EF200EEFF15C0EEFF8CD10C50165CD8A07DD150
:100F0200030E1624E96E080EEA6AEA22EFCF17F002
:100F12001750136009D01350175E1AC0E9FF1BC0A7
:100F2200EAFF1C50EF1209D01750135C176E1AC05B
:100F3200E9FF1BC0EAFF1C1CEF16D8901C36D8A490
:100F420005D01A2A000E1B22010E1C6E010E186E0D
:100F5200146A156A1752D8B41BD017C01EF01F6A44
:100F62001850EBEC01F01EC019F00AC01EF00BC0C5
:100F72001FF01950EBEC01F01EC014F01FC015F069
:100F820014501510D8B4182A14501510D8B4E5D737
:100F92004F0E1624E96E0A0EEA6AEA2218C0EFFF23
:100FA200630E1624E96E080EEA6AEA2217C0EFFF02
:100FB200D8901634E96EEA6AEA36830EE926090EFB
:100FC200EA2214C0EEFF15C0EEFFD8901634E96E87
:100FD200EA6AEA36C30EE926080EEA2214C0EEFFD8
:100FE20015C0EEFF162A030E1624E96E080EEA6AF1
:100FF200EA22EFCF17F01750126009D01250175E95
:101002001AC0E9FF1BC0EAFF1C50EF1209D01750AB
:10101200125C176E1AC0E9FF1BC0EAFF1C1CEF1618
:10102200D8901C36D8A405D01A2A000E1B22010E15
:101032001C6E010E186E146A156A1752D8B41BD0B2
:1010420017C01EF01F6A1850EBEC01F01EC019F019
:101052000AC01EF00BC01FF01950EBEC01F01EC0CD
:1010620014F01FC015F014501510D8B4182A1450DB
:101072001510D8B4E5D74F0E1624E96E0A0EEA6AA7
:10108200EA2218C0EFFF630E1624E96E080EEA6A20
:10109200EA2217C0EFFFD8901634E96EEA6AEA3600
:1010A200830EE926090EEA2214C0EEFF15C0EEFFF8
:1010B200D8901634E96EEA6AEA36C30EE926080EBB
:1010C200EA2214C0EEFF15C0EEFF162A030E162404
:1010D200E96E080EEA6AEA22EFCF17F017501160A4
:1010E20009D01150175E1AC0E9FF1BC0EAFF1C505D
:1010F200EF1209D01750115C176E1AC0E9FF1BC01E
:10110200EAFF1C1CEF16D8901C36D8A405D01A2A68
:10111200000E1B22010E1C6E010E186E146A156A57
:101122001752D8B41BD017C01EF01F6A1850EBEC30
:1011320001F01EC019F00AC01EF00BC01FF01950BA
:10114200EBEC01F01EC014F01FC015F01450151086
:10115200D8B4182A14501510D8B4E5D74F0E162457
:10116200E96E0A0EEA6AEA2218C0EFFF630E16243D
:10117200E96E080EEA6AEA2217C0EFFFD890163429
:10118200E96EEA6AEA36830EE926090EEA2214C0FB
:10119200EEFF15C0EEFFD8901634E96EEA6AEA3621
:1011A200C30EE926080EEA2214C0EEFF15C0EEFFB8
:1011B200EA6A030E0924E96E1150EF6003D00E5063
:1011C200115E02D00E501126EA6A040E0924E96E5D
:1011D2001250EF6003D00F50125E02D00F50122651
:1011E200EA6A050E0924E96E1350EF6003D010502D
:1011F200135E0CD01050132609D0D8901C36D8A4F8
:1012020005D01A2A000E1B22010E1C6E162A02D5C8
:10121200120009C0E9FFEA6AEF500A01B15D1F0B33
:10122200B16F12000F013A6B94969488949AC78E0C
:10123200C698C78CC680C68A12009E960EC0C9FF89
:101242009EA6FED7C95012000A6E0A5008240B6EE1
:10125200000E09200C6E0B50085C0C500958D8B0D7
:101262000BD008C0E9FF09C0EAFFEFCF0EF0E5DFBF
:10127200082A000E0922EFD71200270ECD6E9D809C
:10128200370E0F014E6F7D82EC0E506F780E4F6F4E
:101292007F0E516F7D90FA0E526F4F0EBA6EBA9456
:1012A2009D924B0EBB6E360EB16EB1801200B2CF64
:1012B20008F0B3CF09F0EA6AD8900734780FE96EE4
:1012C20008C0EEFF09C0EEFF1200B2CF08F0B3CFA4
:1012D20009F0EA6AD8900734780FE96E0850EE5C9C
:1012E2000950EF58D8B00AD0EA6AD8900734780F7C
:1012F200E96EEE50085EEF50095A0DD0EA6AD890B6
:101302000734780FE96EEE1C0A6EEF1C0B6E0A5062
:1013120008260B500922EA6AD8900734600FE96E5A
:101322000850EE5C0950EF58D8B009D0EA6AD8905C
:101332000734600FE96E08C0EEFF09C0EEFFEA6AEB
:10134200D8900734780FE96EEE6AEF6A1200D890EF
:10135200133212321350D8A408D00C0E126005D0EA
:1013620012C018F013C019F003D00C0E186E196ACF
:10137200146A156A1850145C19501558D8B031D037
:10138200D8901434E96E1534EA6E600EE926000E28
:10139200EA22EECF16F0EECF17F016C01CF017C0FF
:1013A2001DF092DA1EC016F01FC017F010C0E9FF40
:1013B20011C0EAFF16C0EEFF17C0EEFF020E1026A4
:1013C200000E1122D8901434E96E1534EA6E600EC4
:1013D200E926000EEA22EE6AEF6A142A000E1522AE
:1013E200C9D7145014241A6E155015201B6E1A50AA
:1013F20012000750E96E0828EA6EEF6A0728E96EC4
:10140200010E0820EA6EEF6A020E0724E96E010E51
:101412000820EA6EEF9012001650E96E1728EA6E65
:10142200EFCF18F018501624E96E000E1720EA6E5E
:10143200EFCF19F01650E96E1728EA6E1828EF6EF2
:10144200020E1624E96E010E1720EA6EEF90195073
:1014520012001528E96E010E1620EA6EEF28186EAA
:101462001550E96E1628EA6E1850EF18D8B417D046
:101472001528E96E010E1620EA6EEFCF19F0195009
:101482001524E96E000E1620EA6E17C0EFFF15282C
:10149200E96E010E1620EA6E18C0EFFF07D0020EA9
:1014A2001524E96E010E1620EA6EEF801200020E7C
:1014B2001524E96E010E1620EA6ED890EFB0D8809E
:1014C200120016281A6E010E17201B6E40EC13F044
:1014D200186E16501A6E17281B6E40EC13F0196E18
:1014E200D8901850196201D0D8801200949CAC8414
:1014F200B886220EAF6EB06AAB8EAC98AC9CAB9C39
:10150200AB88AC8A9D8AAB9612009EA8FED713C008
:10151200ADFF1200086E6E0E02016E612CD002EE5B
:1015220000F06E51E92608C0EFFF6E2B08C013F0E1
:10153200700E146E020E156E710E166E020E176E7E
:10154200FBEC00F0120002016E6B700E136E020EC5
:10155200146E710E156E020E166E5BEF01F0457081
:1015620045B003D00D0E136ED0D7120002016F6B7F
:10157200EADF459012000A6A050E0B6E01C20CF0FA
:10158200030E0D6ED7D80A6A050E0B6E6BD8EED716
:10159200156A070E166E8BDFD8A009D0120E126ED6
:1015A2007CEC11F0076A070E086E23DFE4D7166A97
:1015B200070E176E86DFD8B054D0166A070E176E64
:1015C2002BDF076E02016F51D8B407D0010AD8B4DD
:1015D2000DD0030AD8B410D0EAD70F0E0762E7D7AE
:1015E200BEDFB1DF020E02016F6FE1D7075092DF5B
:1015F200020E02016F6FDBD7050E076204D0010EE7
:1016020002016F6FD4D70F0E076203D0A8DF9BDFF2
:10161200CED7040E076222D0459002016F6B030EF3
:10162200086E7153D8A40BD07053D8A408D0096A9D
:1016320025EC0FF0086E050E086203D0B8D7020E33
:10164200086E0A6A050E0B6E00C20CF008C00DF09F
:1016520071D80A6A050E0B6E05D8A9D707505ADF52
:10166200A6D712000AC0E9FF0BC0EAFFEECF11F0C5
:10167200EECF12F00AC00FF00BC010F00C0E136E7A
:10168200146A0D0E156E166A5BEC01F00F0E136EE6
:101692003CDF11501210D8B428D01106000E125A95
:1016A2000FC0E9FF10C0EAFFEFCF0EF00F2A000EC5
:1016B20010220EC013F00C0E146E156A0D0E166E6B
:1016C200176AFBEC00F00E500F0AD8B407D00E5088
:1016D200050AD8B403D0040E0E6203D0050E136EB1
:1016E20014DF0EC013F011DFD4D70C500F0AD8B498
:1016F20007D00C50050AD8B403D0040E0C6203D0F4
:10170200050E136E02DF0CC013F0FFDE0D500F0A40
:10171200D8B407D00D50050AD8B403D0040E0D6218
:1017220003D0050E136EF1DE0DC013F0EEDE040ED3
:10173200136EEBD6020E0A24E96E000E0B20EA6E3F
:101742000CC0EFFF030E0A24E96E000E0B20EA6EB6
:101752000DC0EFFF0AC0E9FF0BC0EAFF040EEE6EF8
:10176200EF6A0C50F30AD8B40DD0030AD8B41CD0D7
:101772001E0AD8B430D0030AD8B441D0060AD8B46D
:1017820057D073D0010E0E6E040E0A240F6E000E97
:101792000B20106E2FD90AC0E9FF0BC0EAFF070E1B
:1017A200EE26000EEF2261D0040E0A24106E000E07
:1017B2000B20116E180E126E136AC9DD1AC00EF0DC
:1017C2001BC00FF00AC0E9FF0BC0EAFF0E50EE2665
:1017D2000F50EF224AD0040E0A240F6E000E0B2087
:1017E200106E1168126A10EC12F00E6E0AC0E9FF58
:1017F2000BC0EAFF0E50EE26000EEF2236D031EC7F
:1018020013F010C00EF011C00FF0040E0A24E96E9E
:10181200000E0B20EA6E0EC0EEFF0FC0EEFF0AC0F4
:10182200E9FF0BC0EAFF020EEE26000EEF221DD0EA
:10183200540E0E6E02DD540AD8A409D0040E0A24F6
:10184200E96E000E0B20EA6E010EEF6E07D0040E59
:101852000A24E96E000E0B20EA6EEF6A0AC0E9FF65
:101862000BC0EAFFEE2A000EEF22120081BA03D06B
:10187200010E466E120081AA0AD0462C07D037A06C
:1018820004D0FEEC01F0379001D03780466A120096
:10189200D08E9F909F92A2927F907F929F8A9D8AE4
:1018A200F28CF28CF28E1200F28CF28E12001A6816
:1018B200030E1B6E010E1C6E6EEF01F01A68030E12
:1018C2001B6E1C686EEF01F01DC01EF01CC01FF0E5
:1018D2001E5012001FC020F01EC021F02050120026
:1018E200126E136A0F0E1214136E12380F0B126E51
:1018F20012C01EF00A0EDDEC01F020C012F01250F0
:1019020013241200126E136A146A090E126411D0A3
:1019120012C01EF01F6A0A0EEBEC01F01EC014F09A
:1019220014C01EF00A0EDDEC01F020C015F01550B7
:10193200125E12C013F01438F00B146E13501424FC
:10194200120033DADE0E076E72DA000AD8B407D05C
:10195200180E126E7CEC11F0DE0E2B6E12D0A20E5F
:10196200076E65DA000AD8B407D0290E126E7CEC35
:1019720011F0A20E2B6E05D03A0E126E7CEC11F015
:101982002B6ADE0E2B6227D02BC012F0136A33DAD9
:10199200076E2BC012F0136A880E0710146E1FDA3E
:1019A2002BC012F0030E136E26DA076E2BC012F054
:1019B200030E136E080E0710146E11DA4B0E126E20
:1019C2007CEC11F02BC012F0030E136E14DA086EC9
:1019D200DDEC11F00ED0A20E2B620BD02BC012F058
:1019E200136A146AFCD92BC012F0010E136E146A2A
:1019F200F6D112000E50010AD8B404D0010AD8B4AC
:101A0200E8D0D2D1DE0E2B626ED02BC012F0136A58
:101A1200F2D97F0B65DF116E0FC0E9FF10C0EAFF3C
:101A220011C0EFFF2BC012F0010E136EE4D97F0B31
:101A320057DF116E0F28E96E000E1020EA6E11C0FA
:101A4200EFFF2BC012F0020E136ED5D93F0B48DF09
:101A5200116E020E0F24E96E000E1020EA6E11C004
:101A6200EFFF2BC012F0040E136EC5D93F0B38DF07
:101A7200116E030E0F24E96E000E1020EA6E11C0E3
:101A8200EFFF2BC012F0030E136EB5D9070B28DF40
:101A9200116E060E0F24E96E000E1020EA6E11C0C0
:101AA200EFFF2BC012F0050E136EA5D91F0B18DF26
:101AB200116E1106040E0F24E96E000E1020EA6E5C
:101AC20011C0EFFF2BC012F0060E136E94D9FF0B5C
:101AD20007DF116E050E0F24E96E000E1020EA6E6C
:101AE20011C0EFFF61D1A20E2B626FD02BC012F09A
:101AF200020E136E80D97F0BF3DE116E0FC0E9FF69
:101B020010C0EAFF11C0EFFF2BC012F0030E136EDC
:101B120072D97F0BE5DE116E0F28E96E000E1020E0
:101B2200EA6E11C0EFFF2BC012F0040E136E63D9E0
:101B32003F0BD6DE116E020E0F24E96E000E10204E
:101B4200EA6E11C0EFFF2BC012F0050E136E53D9CF
:101B52003F0BC6DE116E030E0F24E96E000E10203D
:101B6200EA6E11C0EFFF2BC012F0060E136E43D9BE
:101B7200070BB6DE116E060E0F24E96E000E102062
:101B8200EA6E11C0EFFF2BC012F0070E136E33D9AD
:101B92001F0BA6DE116E1106040E0F24E96E000E55
:101BA2001020EA6E11C0EFFF2BC012F0080E136E68
:101BB20022D9FF0B95DE116E050E0F24E96E000E81
:101BC2001020EA6E11C0EFFFEFD0540E126E93DBBD
:101BD200EBD0DE0E2B6274D02BC012F0136A146AA3
:101BE200FED80F28E96E000E1020EA6EEF508ADE52
:101BF200116E2BC012F0010E136E11C014F0EFD84B
:101C0200020E0F24E96E000E1020EA6EEF507ADE0B
:101C1200116E2BC012F0020E136E11C014F0DFD839
:101C2200030E0F24E96E000E1020EA6EEF506ADEFA
:101C3200116E2BC012F0040E136E11C014F0CFD827
:101C4200060E0F24E96E000E1020EA6EEF505ADEE7
:101C5200116E2BC012F0030E136E080E1110146ECB
:101C6200BED8040E0F24E96E000E1020EA6EEF2893
:101C720049DE116E2BC012F0050E136E11C014F066
:101C8200AED8050E0F24E96E000E1020EA6EEF505A
:101C920039DE116E2BC012F0060E136E11C014F055
:101CA2009ED80FC0E9FF10C0EAFFEF502BDE116E85
:101CB2002BC012F0136A800E1110146E90D874D0DB
:101CC200A20E2B626ED00FC0E9FF10C0EAFFEF50E8
:101CD20019DE116E2BC012F0020E136E11C014F039
:101CE2007ED80F28E96E000E1020EA6EEF500ADE51
:101CF200116E2BC012F0030E136E11C014F06FD8C8
:101D0200020E0F24E96E000E1020EA6EEF50FADD8B
:101D1200116E2BC012F0040E136E11C014F05FD8B6
:101D2200030E0F24E96E000E1020EA6EEF50EADD7A
:101D3200116E2BC012F0050E136E11C014F04FD8A5
:101D4200060E0F24E96E000E1020EA6EEF50DADD67
:101D5200116E2BC012F0060E136E11C014F03FD894
:101D6200040E0F24E96E000E1020EA6EEF28CADD81
:101D7200116E2BC012F0070E136E11C014F02FD883
:101D8200050E0F24E96E000E1020EA6EEF50BADD48
:101D9200116E2BC012F0080E136E11C014F01FD872
:101DA20003D0540E126EA7DA12000F01396B270E00
:101DB2006E6E6D6A080E6C6E6C8A1200A49E6B8049
:101DC200A4AEFED7A49E12006B84A4AEFED7A49E3E
:101DD200120015C06FFFA4AEFED7A49E1200EEDF64
:101DE200129012C015F0F5DF13C015F0F2DF14C027
:101DF20015F0EFDFE9D7E2DF129012C015F0E9DF4C
:101E020013C015F0E6DFE0DFA49E6B82A4AEFED71E
:101E1200A49E128012C015F0DCDF6B86A4AEFED742
:101E2200A49E6B986FCF14F0CFDF14501200C6DF60
:101E320007C015F0CEDF400E6B14086EC5DF0850E8
:101E4200000ED8B4010E120037B2010C020EEA6E77
:101E520009C0E9FFEF50F80AD8B42BD00F0AD8B462
:101E62002AD0010AD8B433D0080AD8B45BD00B0AFE
:101E7200D8B45DD0060AD8B46AD0070AD8B468D0FC
:101E8200050AD8B49BD0010AD8B49DD01E0AD8B492
:101E92009BD0030AD8B499D0110AD8B497D0050AB6
:101EA200D8B499D0030AD8B49BD0110AD8B49DD023
:101EB2009DD03782000CEA6A2E0E3224E96E35C0BC
:101EC200EFFF322A020E0E6E09C00DF0C6D13206A5
:101ED200EA6A2E0E3224E96EEFCF0AF0020EEA6EA3
:101EE2000928E96E0A283F0BEF6E020EEA6E040E15
:101EF2000924E96E32C0EFFF020EEA6E030E0924D6
:101F0200E96EEFCF0BF0020EEA6E020E0924E96EC3
:101F12000BC0EFFF020E0E6E09C00DF09ED90C6EC3
:101F22000C501200020E0E6E09C00DF096D10A6A14
:101F3200050E0B6EF50E0C6E0D6A9BEC0BF00A6A29
:101F4200050E0B6E33EC0BF0B9DCFF00000C000C3D
:101F5200020EEA6E060E0924E96EEFCF29F0020E98
:101F6200EA6E050E0924E96EEFCF28F0020EEA6E42
:101F7200040E0924E96EEFCF27F0020EEA6E070E77
:101F82000924E96EEFCF2AF0020EEA6E030E09244D
:101F9200E96EEFCF26F0020EEA6E020E0924E96E18
:101FA200EFCF25F0020EEA6E0928E96EEFCF24F09A
:101FB2000E6A240E0F6E106A1DDD000C09280A6ECF
:101FC2006EEC02F0050C000C000C000C020E0E6E02
:101FD20009C00DF042D1020E0E6E09C00DF03DD1C6
:101FE200020E0E6E09C00DF038D1000C040CFD0E6D
:101FF2001A6E030E1B6E1C6A6EEC01F0366AFB0E43
:102002001A6E030E1B6E1C6A6EEC01F0346AF90E36
:102012001A6E030E1B6E1C6A6EEC01F0356A34C038
:1020220033F02C6A2D6A37921200FD0E0F6E030EEA
:10203200106E88EC01F0366EFB0E0F6E030E106E02
:1020420088EC01F0346EF90E0F6E030E106E88EC00
:1020520001F0356E34C033F03780120037B2C7DF7B
:1020620037A012002C502D10D8A412003350356224
:1020720001D0120033C01EF00B0EDDEC01F0205037
:10208200076E2150086E470E096E07C00AF008C09D
:102092000BF00B0E0C6EB3EC01F04750F70AD8B4FC
:1020A20010D0010AD8B41BD00A0AD8B463D0050AEA
:1020B200D8B482D0030AD8B4A0D0040AD8B4B2D01B
:1020C200CBD033283F0B336EFD0E1A6E030E1B6E00
:1020D200010E1C6E6EEC01F0010E366EBDD049523F
:1020E200D8A403D048C033F0B7D0010E49640FD052
:1020F2004906470E126E136A07C014F008C015F0A5
:102102000B0E166E93EC01F048C033F0A5D04B5283
:10211200D8A416D033283F0B336EFB0E1A6E030E73
:102122001B6E33C01CF06EEC01F033C034F0FD0EB8
:102132001A6E030E1B6E1C6A6EEC01F0366A8CD0AE
:102142004AC049F033C01EF00B0EDDEC01F0205006
:10215200096E21500A6E470E126E136A09C014F0FE
:102162000AC015F00B0E166E93EC01F033283F0BEC
:10217200336E72D0480E096EAEEC03F04F52D8A403
:102182000AD050C01EF051C01FF06BEC0CF020C002
:102192002CF021C02DF033283F0B336E3652D8A4D9
:1021A2005BD0FB0E1A6E030E1B6E33C01CF06EEC7E
:1021B20001F033C034F050D0480E096E5DEC05F0EA
:1021C2004EBE0AD050C01EF051C01FF06BEC0CF096
:1021D20020C02CF021C02DF033283F0B336E365235
:1021E200D8A43AD0FB0E1A6E030E1B6E33C01CF03D
:1021F2006EEC01F033C034F02FD0480E096E0AECB9
:1022020009F033283F0B336E3652D8A425D0FB0E8B
:102212001A6E030E1B6E33C01CF06EEC01F033C05D
:1022220034F01AD048C01EF049C01FF06BEC0CF01D
:1022320020C02CF021C02DF033283F0B336E3652D4
:10224200D8A40AD0FB0E1A6E030E1B6E33C01CF00C
:102252006EEC01F033C034F0120037A0378035281D
:102262003F0B0F6E0F503418D8B420D035C01EF07B
:102272000B0EDDEC01F02050106E2150116E0DC0DE
:1022820012F00EC013F010C014F011C015F00B0EB6
:10229200166E93EC01F0F90E1A6E030E1B6E0FC050
:1022A2001CF06EEC01F00FC035F0000C010C2C504C
:1022B2002D10D8B403D02C06000E2D5A12002D502A
:1022C200D8A405D0080E2C6002D02C6A2D6A120008
:1022D200900E076E086AFAEF09F0900E156E166AF4
:1022E20058EC0AF0D8B01200900E156E166A14C09F
:1022F20017F02AEF0AF0900E156E166A58EC0AF0E3
:10230200D8B012001250C1D9136E1352D8B408D0EB
:10231200122A13C014F0E1DF1250B7D9136EF5D7A9
:1023220012007FCF14F0D9D77F6E900E156E166A09
:1023320058EC0AF0D8B012007F6A7F6A7F6A630E97
:102342007F6412D07FCF1EF01F6A640EEBEC01F0A7
:102352001EC07FFF7F6A640E1E6E7F50DDEC01F0AF
:1023620020C07FFF7F507F5E090E7F6412D07FCF37
:102372001EF01F6A0A0EEBEC01F01EC07FFF7F6A9F
:102382007FCF1EF00A0EDDEC01F020C07FFF7F50F0
:102392007F5E090E7F647FCF7FFF7F50D8B404D069
:1023A200300E7F24146E99DF300E7F24146E95DF79
:1023B200300E7F24146E91D7900E156E166A58EC6B
:1023C2000AF0D8B01200F00E0814096E09380F0B8B
:1023D200096E090E096407D00A0E095E410E09242E
:1023E200146E7BDF04D0300E0924146E76DF0F0EDC
:1023F2000814096E090E096407D00A0E095E410E1F
:102402000924146E6ADF04D0300E0924146E65D7D5
:1024120012007FCF08F0D0DF7FCF08F0CDD7136A4C
:10242200146A900E166E176A62EC0AF0D8B019D0D0
:102432001150135C12501458D8B013D0900E166E6F
:10244200176A0DEC0AF0156E0FC0E9FF10C0EAFF23
:1024520015C0EFFF0F2A000E1022132A000E1422BD
:10246200E0D713501200F00E7F6003D0500E7F6051
:10247200010C000C7FCFF8FF7FCFF7FF7FCFF6FF75
:102482007F6A7F6A7F507F5C7F507F58D8B00ED0C2
:1024920009007FCFE9FF7FCFEAFFF5CFEFFF7F2A69
:1024A200000E7F227F2A000E7F22ECD712007FCF00
:1024B2007FFF7FCF7FFF7FCF7FFF7F0E7F6E0F0E6D
:1024C2007F6E020E7F6E7F6AD5DF7F5012007F50D3
:1024D2007F247F6E7F507F207F6E7FCF7FFF7FCFF5
:1024E2007FFFC1DF000AD8B412007FCF7FFF7FCF0A
:1024F2007FFFB9DF000AD8B412007F507F5C7F50A3
:102502007F58D8B078D07F507F6EC00E7F147F6E18
:102512007F507F5C7F6E7F507F587F6E7F6A7FCF58
:102522007FFF7FCF7FFF7F0E7F6E0F0E7F6E400E8D
:102532007F6E7F6A9FDF7FCF7FFF7FCF7FFF5CD879
:102542007F6A7F6A7F50D8A425D0400E7F6022D058
:102552007F507F5C7F507F58D8A018D07F507F2457
:102562007F6E7F507F207F6E7F507F5C7F507F58D1
:10257200D8B00CD07F50C3D87F6E7F2A7F0E7F24C5
:10258200E96E0F0E7F20EA6E7FCFEFFF7F2A000EEB
:102592007F22D8D7F86A7FCFF7FF7FCFF6FF7F6A17
:1025A2007F6A7F50D8A410D0400E7F600DD07F0E7E
:1025B2007F24E96E0F0E7F20EA6EEFCFF5FF0D004C
:1025C2007F2A000E7F22EDD7F86A7FCFF7FF7FCFF9
:1025D200F6FFA68EA69CA684F29E550EA76EAA0EA4
:1025E200A76EA682F28EA694400E7F247F6E000E06
:1025F2007F207F6E82D712007F507F6EC00E7F14C5
:102602007F6E7FCF7FFF7FCF7FFF2DDF000AD8B4A1
:102612001200F86A7FCFF7FF7FCFF6FFA68EA69C47
:10262200A684A688F29E550EA76EAA0EA76EA68253
:10263200F28E0A0012007F6E7F507F6EC00E7F14F2
:102642007F6E7F50D8B40BD07F067FCF7FFF7FCFC6
:102652007FFFD2DF400E7F26000E7F22F2D71200CC
:102662005B0E13D81C6E0B00F5501D6E65EC0CF062
:102672001EC010F01FC011F010501200000C1A50B2
:10268200E96E1B50EA6EEF501200146E1450A20F46
:10269200F66E260EF76AF722F86A0800F550120065
:1026A20020496E697420446F6E652000453A3031CE
:1026B2003B00453A30323B00203739343130206418
:1026C20065746563746564200020383536344A4584
:1026D20020646574656374656400204E4F20525413
:1026E200432064657465637465640020525443201A
:1026F20030333A004E4F20525443001D00007F6E8B
:02270200000CC9
:0200E0001D0001
:00000001FF
