:020000040000FA
:0400000071EF00F0AC
:0400080024D81100E7
:10001800D8CF04F0E0CF05F0066E7EA209D05D2AA5
:1000280098EC11F07E92EC0E0F01506F780E4F6F26
:100038009EA005D05E2AA1EC11F0CD909E900650AE
:1000480005C0E0FF04C0D8FF1000E9CF00F0EACFF8
:1000580001F09EAA19D0080102B114D00129026E3C
:1000680002500019D8B40BD001C803F00350E96E50
:10007800070EEA6EAECFEFFF02C001F805D0080107
:10008800028102D0AECF02F000C0E9FF01C0EAFF52
:02009800120054
:1000E2004BD8076A33EC09F0090E076E33EC09F0BE
:1000F200FEEC0BF0090E076E41EC09F00A0E076EDA
:1001020033EC09F04BD90A0E076E41EC09F0070EE9
:10011200076E33EC09F094EC0AF0070E076E41EC1F
:1001220009F05E52D8B40BD0060E076E33EC09F01C
:10013200F3DA060E076E41EC09F0CD805E6A076ABB
:1001420041EC09F0080E076E33EC09F076EC10F082
:10015200080E076E41EC09F05D52D8B4C2D7010E09
:10016200076E33EC09F028DA010E076E41EC09F054
:100172007D925D6A7D82B5D70FEE37F0ED6AEA5067
:10018200FDE1E950FBE1EF6AABEC11F0720ED36EC8
:100192009B8C816A8A6A0F01396B806A896A386B23
:1001A200926A040E806E076A070E086EC5EC09F0AB
:1001B20042EC0AF019EC09F037D982EC0AF06EEC45
:1001C2000CF05CEC10F081EC13F015EC0CF0140E5A
:1001D2000001606F616B0A6A050E0B6EEC0E0C6E0D
:1001E2000D6A66EC0BF00A6A050E0B6EFEEC0AF065
:1001F200126ABEEC11F024EF0CF014C0E9FF15C036
:10020200EAFFEFCF19F016C0E9FF17C0EAFFEFCF00
:100212001AF013501918186EF00B183A181A1850D1
:10022200F00B1A18196E18341834191AE00B191A2F
:10023200183A18181A6E14C0E9FF15C0EAFF19C05F
:10024200EFFF16C0E9FF17C0EAFF1AC0EFFF120066
:100252007FCF13F0156A7F28146E7FCF16F0176ACE
:10026200CCD77F50D8B412007F50D8B412007F5040
:10027200D8B412007F687F687F6A7F507F6012D097
:100282007F507F24E8EC13F07F6E7FCF13F07F0E58
:10029200146E0F0E156E7F0E166E0F0E176EADDFFB
:1002A2007F2AEBD77FCFE9FFEA6A7FCFEFFF7FCFCD
:1002B200E9FFEA6A7FCFEFFF120013501410D8B49F
:1002C200120015501610D8B4120013C0E9FF14C062
:1002D200EAFFEF6A15C0E9FF16C0EAFFEF6A1200F3
:1002E2001D90F2BE1D801BC0AAFF1AC0A9FF1CC030
:1002F200A8FFA69CA69EA684F29E550EA76EAA0EE5
:10030200A76EA6821DA0F29E1DB0F28EA694A6B282
:10031200FED7120010C0AAFF0FC0A9FFA69CA69E7E
:10032200A680A8CF11F01150120012501310D8B4A9
:100332001200176A1650176017D012C018F013C0B7
:1003420019F014C01AF015C01BF018C0E9FF19C04B
:10035200EAFFEFCF1CF0C4DF142A000E1522122A86
:10036200000E1322172AE6D712000952D8B412003F
:100372000D6A0C500D6011D00AC00FF00BC010F0C6
:10038200C9DF0E6EEA6A0D500924E96E0EC0EFFF56
:100392000A2A000E0B220D2AECD71200830E156ECC
:1003A200166A23EC0AF0D8A009D0830E076E086AF9
:1003B200C5EC09F00C0E126EBEEF11F012001F6EAA
:1003C200080E226E216A1E501F32D8B02126213219
:1003D2002032222EF9D720501200206E216A110EEF
:1003E200226E08D0213623362050215C23B0D880DB
:1003F200D8B0216E1E361F36222EF4D71E501200A0
:1004020000016C696D696E696F69C80E176E186AB2
:1004120031EC0CF019C074F01AC075F0706B716B8E
:10042200726B6C0E096E7ED1EFEC08F0600E076EF7
:100432000706030E0724E96E080EEA6AEA22EF6A4B
:100442000752D8A4F5D7600E076E0706630E07247D
:10045200E96E080EEA6AEA22EF6A0752D8A4F5D7D3
:10046200C00E076E0706D8900734E96EEA6AEA36CC
:10047200C30EE926080EEA22EE6AEF6A0752D8A4F2
:10048200F1D7C00E076E0706D8900734E96EEA6A04
:10049200EA36830EE926090EEA22EE6AEF6A07526D
:1004A200D8A4F1D70C0E076E0706430E0724E96E97
:1004B2000A0EEA6AEA22EF6A0752D8A4F5D7600E5A
:1004C200076E07064F0E0724E96E0A0EEA6AEA2251
:1004D200EF6A0752D8A4F5D70A01AF6BB06B1200CE
:1004E2000B6A600E0B6067D0020EEA6E0AC0E9FF6B
:1004F200EFCF0CF00A2A020EEA6E0AC0E9FFEFCF34
:100502000DF00A2A020EEA6E0AC0E9FFEFCF0EF0E2
:100512000A2A030E0B24E96E080EEA6AEA220EC0CA
:10052200EFFFD8900B34E96EEA6AEA36C30EE92689
:10053200080EEA22EE6AEF6A630E0B24E96E080ED9
:10054200EA6AEA22EF6A0B2A030E0B24E96E080E0E
:10055200EA6AEA220DC0EFFFD8900B34E96EEA6A2C
:10056200EA36C30EE926080EEA22EE6AEF6A630E45
:100572000B24E96E080EEA6AEA22EF6A0B2A030EDE
:100582000B24E96E080EEA6AEA220CC0EFFFD8904B
:100592000B34E96EEA6AEA36C30EE926080EEA224D
:1005A200EE6AEF6A630E0B24E96E080EEA6AEA222B
:1005B200EF6A0B2A96D71200430E0A6E0A0E0B6ED2
:1005C200010E086E076A600E076024D0630E0724CE
:1005D200E96E080EEA6AEA22EF50D8B419D0D89030
:1005E2000734E96EEA6AEA36C30EE926080EEA2201
:1005F200EE50EF10D8B40CD0D8900734E96EEA6A06
:10060200EA36C30EE926080EEA22EE06000EEF5A7B
:10061200072AD9D7076A600E07607DD0630E0724C8
:10062200E96E080EEA6AEA22EF50D8B469D0D8908F
:100632000734E96EEA6AEA36C30EE926080EEA22B0
:10064200EE50EF10D8A45CD04F0E0724E96E0A0ECC
:10065200EA6AEA22EFCF09F0630E0724E96E080E78
:10066200EA6AEA220950EF6010D0630E0724E96EAD
:10067200080EEA6AEA22EFCF09F0630E0724E96E58
:10068200080EEA6AEA22EF6A08D0630E0724E96ECE
:10069200080EEA6AEA220950EF5ED8900734E96E42
:1006A200EA6AEA36830EE926090EEA22EECF0CF058
:1006B200EECF0DF0D8900734E96EEA6AEA36C30E3F
:1006C200E926080EEA220CC0EEFF0DC0EEFF0AC0BA
:1006D200E9FF0BC0EAFF0850EF14D8B409D0030EAB
:1006E2000724E96E080EEA6AEA220950EF5E08D092
:1006F200030E0724E96E080EEA6AEA220950EF2681
:10070200D8900836D8A405D00A2A000E0B22010E72
:10071200086E072A80D71200030E076E080E086EB5
:1007220001EF09F0EA6A080E0924E96EEECF1EF025
:10073200EECF1FF037EC0CF020C00AF021C00BF016
:10074200430E0C6E0A0E0D6E010E0E6EEA6A040E58
:100752000924E96EEFCF11F0EA6A050E0924E96E69
:10076200EFCF12F0EA6A060E0924E96EEFCF13F01A
:1007720009C017F0010E196E186A600E186080D158
:1007820017C0E9FFEA6A1950EF14D8B453D1030E27
:100792001824E96E080EEA6AEA22EFCF14F0145028
:1007A200136009D01350145E0CC0E9FF0DC0EAFFBC
:1007B2000E50EF1209D01450135C146E0CC0E9FFF6
:1007C2000DC0EAFF0E1CEF16D8900E36D8A405D045
:1007D2000C2A000E0D22010E0E6E010E156E0F6A0E
:1007E200106A1452D8B419D014C01EF01F6A1550E2
:1007F200F4DD1EC016F00AC01EF00BC01FF016502A
:10080200ECDD1EC00FF01FC010F00F501010D8B456
:10081200152A0F501010D8B4E7D74F0E1824E96EDE
:100822000A0EEA6AEA2215C0EFFF630E1824E96E87
:10083200080EEA6AEA2214C0EFFFD8901834E96E73
:10084200EA6AEA36830EE926090EEA220FC0EEFFB3
:1008520010C0EEFFD8901834E96EEA6AEA36C30E89
:10086200E926080EEA220FC0EEFF10C0EEFF182A9A
:10087200030E1824E96E080EEA6AEA22EFCF14F09A
:100882001450126009D01250145E0CC0E9FF0DC062
:10089200EAFF0E50EF1209D01450125C146E0CC015
:1008A200E9FF0DC0EAFF0E1CEF16D8900E36D8A451
:1008B20005D00C2A000E0D22010E0E6E010E156ED1
:1008C2000F6A106A1452D8B419D014C01EF01F6AED
:1008D200155083DD1EC016F00AC01EF00BC01FF0BB
:1008E20016507BDD1EC00FF01FC010F00F5010100D
:1008F200D8B4152A0F501010D8B4E7D74F0E1824C9
:10090200E96E0A0EEA6AEA2215C0EFFF630E1824A6
:10091200E96E080EEA6AEA2214C0EFFFD890183492
:10092200E96EEA6AEA36830EE926090EEA220FC068
:10093200EEFF10C0EEFFD8901834E96EEA6AEA368C
:10094200C30EE926080EEA220FC0EEFF10C0EEFF2A
:10095200182A030E1824E96E080EEA6AEA22EFCF7B
:1009620014F01450116009D01150145E0CC0E9FF4C
:100972000DC0EAFF0E50EF1209D01450115C146E34
:100982000CC0E9FF0DC0EAFF0E1CEF16D8900E3620
:10099200D8A405D00C2A000E0D22010E0E6E010EF7
:1009A200156E0F6A106A1452D8B419D014C01EF012
:1009B2001F6A155012DD1EC016F00AC01EF00BC0D1
:1009C2001FF016500ADD1EC00FF01FC010F00F50AE
:1009D2001010D8B4152A0F501010D8B4E7D74F0E04
:1009E2001824E96E0A0EEA6AEA2215C0EFFF630EC6
:1009F2001824E96E080EEA6AEA2214C0EFFFD890C2
:100A02001834E96EEA6AEA36830EE926090EEA220A
:100A12000FC0EEFF10C0EEFFD8901834E96EEA6AFC
:100A2200EA36C30EE926080EEA220FC0EEFF10C016
:100A3200EEFF1DD0182A182AD8900E36D8A405D059
:100A42000C2A000E0D22010E0E6ED8900E36D8A47E
:100A520005D00C2A000E0D22010E0E6ED8900E3615
:100A6200D8A405D00C2A000E0D22010E0E6ED890CD
:100A72001936D8A403D0172A010E196E182A7DD66A
:100A82001200EA6A080E0924E96EEECF1EF0EECFDC
:100A92001FF037EC0CF020C00AF021C00BF0EA6A1C
:100AA200060E0924E96E7F0EEF140C6EEA6A070E39
:100AB2000924E96EEF040D6E0D4803D00D52D8A43F
:100AC20002D0010E0D6E09C0E9FFEA6AEFCF0EF007
:100AD200EA6A030E0924E96E0E50EF6007D0EA6A53
:100AE200030E0924E96EEF500E5E07D0EA6A030E88
:100AF2000924E96E0E50EF5C0E6E0EC01EF01F6AE6
:100B02000D506BDC1EC00EF0EA6A0928E96EEFCFC9
:100B12000FF0EA6A040E0924E96E0F50EF6007D065
:100B2200EA6A040E0924E96EEF500F5E07D0EA6A02
:100B3200040E0924E96E0F50EF5C0F6E0FC01EF019
:100B42001F6A0D504ADC1EC00FF0EA6A020E092429
:100B5200E96EEFCF10F0EA6A050E0924E96E105033
:100B6200EF6007D0EA6A050E0924E96EEF50105EC5
:100B720007D0EA6A050E0924E96E1050EF5C106E88
:100B820010C01EF01F6A0D5028DC1EC010F009C0F4
:100B9200E9FFEA6AEFCF11F0EA6A0928E96EEFCFBE
:100BA20012F0EA6A020E0924E96EEFCF13F0430E47
:100BB2001A6E0A0E1B6E010E1C6E0CC01EF0030E86
:100BC200E0EC01F020C00CF00DC01EF0030EE0ECD2
:100BD20001F020C00DF00D500C241D6E166A600E3F
:100BE2001660FBD21D50165CD8A06BD1EA6A030EC8
:100BF2000924E96EEFCF11F0EA6A040E0924E96EC6
:100C0200EFCF12F0EA6A050E0924E96EEFCF13F076
:100C1200030E1624E96E080EEA6AEA22EFCF17F0F5
:100C22001750136009D01350175E1AC0E9FF1BC09A
:100C3200EAFF1C50EF1209D01750135C176E1AC04E
:100C4200E9FF1BC0EAFF1C1CEF16D8901C36D8A483
:100C520005D01A2A000E1B22010E1C6E010E186E00
:100C6200146A156A1752D8B41BD017C01EF01F6A37
:100C72001850EEEC01F01EC019F00AC01EF00BC0B5
:100C82001FF01950EEEC01F01EC014F01FC015F059
:100C920014501510D8B4182A14501510D8B4E5D72A
:100CA2004F0E1624E96E0A0EEA6AEA2218C0EFFF16
:100CB200630E1624E96E080EEA6AEA2217C0EFFFF5
:100CC200D8901634E96EEA6AEA36830EE926090EEE
:100CD200EA2214C0EEFF15C0EEFFD8901634E96E7A
:100CE200EA6AEA36C30EE926080EEA2214C0EEFFCB
:100CF20015C0EEFF162A030E1624E96E080EEA6AE4
:100D0200EA22EFCF17F01750126009D01250175E87
:100D12001AC0E9FF1BC0EAFF1C50EF1209D017509E
:100D2200125C176E1AC0E9FF1BC0EAFF1C1CEF160B
:100D3200D8901C36D8A405D01A2A000E1B22010E08
:100D42001C6E010E186E146A156A1752D8B41BD0A5
:100D520017C01EF01F6A1850EEEC01F01EC019F009
:100D62000AC01EF00BC01FF01950EEEC01F01EC0BD
:100D720014F01FC015F014501510D8B4182A1450CE
:100D82001510D8B4E5D74F0E1624E96E0A0EEA6A9A
:100D9200EA2218C0EFFF630E1624E96E080EEA6A13
:100DA200EA2217C0EFFFD8901634E96EEA6AEA36F3
:100DB200830EE926090EEA2214C0EEFF15C0EEFFEB
:100DC200D8901634E96EEA6AEA36C30EE926080EAE
:100DD200EA2214C0EEFF15C0EEFF162A030E1624F7
:100DE200E96E080EEA6AEA22EFCF17F01750116097
:100DF20009D01150175E1AC0E9FF1BC0EAFF1C5050
:100E0200EF1209D01750115C176E1AC0E9FF1BC010
:100E1200EAFF1C1CEF16D8901C36D8A405D01A2A5B
:100E2200000E1B22010E1C6E010E186E146A156A4A
:100E32001752D8B41BD017C01EF01F6A1850EEEC20
:100E420001F01EC019F00AC01EF00BC01FF01950AD
:100E5200EEEC01F01EC014F01FC015F01450151076
:100E6200D8B4182A14501510D8B4E5D74F0E16244A
:100E7200E96E0A0EEA6AEA2218C0EFFF630E162430
:100E8200E96E080EEA6AEA2217C0EFFFD89016341C
:100E9200E96EEA6AEA36830EE926090EEA2214C0EE
:100EA200EEFF15C0EEFFD8901634E96EEA6AEA3614
:100EB200C30EE926080EEA2214C0EEFF15C0EEFFAB
:100EC2008CD10C50165CD8A07DD1030E1624E96E8D
:100ED200080EEA6AEA22EFCF17F01750136009D022
:100EE2001350175E1AC0E9FF1BC0EAFF1C50EF1235
:100EF20009D01750135C176E1AC0E9FF1BC0EAFF36
:100F02001C1CEF16D8901C36D8A405D01A2A000E45
:100F12001B22010E1C6E010E186E146A156A1752FE
:100F2200D8B41BD017C01EF01F6A1850EEEC01F0A7
:100F32001EC019F00AC01EF00BC01FF01950EEECD3
:100F420001F01EC014F01FC015F014501510D8B4D3
:100F5200182A14501510D8B4E5D74F0E1624E96E8E
:100F62000A0EEA6AEA2218C0EFFF630E1624E96E3F
:100F7200080EEA6AEA2217C0EFFFD8901634E96E2B
:100F8200EA6AEA36830EE926090EEA2214C0EEFF67
:100F920015C0EEFFD8901634E96EEA6AEA36C30E3F
:100FA200E926080EEA2214C0EEFF15C0EEFF162A4B
:100FB200030E1624E96E080EEA6AEA22EFCF17F052
:100FC2001750126009D01250175E1AC0E9FF1BC0F9
:100FD200EAFF1C50EF1209D01750125C176E1AC0AC
:100FE200E9FF1BC0EAFF1C1CEF16D8901C36D8A4E0
:100FF20005D01A2A000E1B22010E1C6E010E186E5D
:10100200146A156A1752D8B41BD017C01EF01F6A93
:101012001850EEEC01F01EC019F00AC01EF00BC011
:101022001FF01950EEEC01F01EC014F01FC015F0B5
:1010320014501510D8B4182A14501510D8B4E5D786
:101042004F0E1624E96E0A0EEA6AEA2218C0EFFF72
:10105200630E1624E96E080EEA6AEA2217C0EFFF51
:10106200D8901634E96EEA6AEA36830EE926090E4A
:10107200EA2214C0EEFF15C0EEFFD8901634E96ED6
:10108200EA6AEA36C30EE926080EEA2214C0EEFF27
:1010920015C0EEFF162A030E1624E96E080EEA6A40
:1010A200EA22EFCF17F01750116009D01150175EE6
:1010B2001AC0E9FF1BC0EAFF1C50EF1209D01750FB
:1010C200115C176E1AC0E9FF1BC0EAFF1C1CEF1669
:1010D200D8901C36D8A405D01A2A000E1B22010E65
:1010E2001C6E010E186E146A156A1752D8B41BD002
:1010F20017C01EF01F6A1850EEEC01F01EC019F066
:101102000AC01EF00BC01FF01950EEEC01F01EC019
:1011120014F01FC015F014501510D8B4182A14502A
:101122001510D8B4E5D74F0E1624E96E0A0EEA6AF6
:10113200EA2218C0EFFF630E1624E96E080EEA6A6F
:10114200EA2217C0EFFFD8901634E96EEA6AEA364F
:10115200830EE926090EEA2214C0EEFF15C0EEFF47
:10116200D8901634E96EEA6AEA36C30EE926080E0A
:10117200EA2214C0EEFF15C0EEFFEA6A030E09244C
:10118200E96E1150EF6003D00E50115E02D00E5086
:101192001126EA6A040E0924E96E1250EF6003D0A8
:1011A2000F50125E02D00F501226EA6A050E092471
:1011B200E96E1350EF6003D01050135E0CD0105044
:1011C200132609D0D8901C36D8A405D01A2A000EAE
:1011D2001B22010E1C6E162A02D512000F013A6B59
:1011E20094969488949AC78EC698C78CC680C68AED
:1011F20012009E960EC0C9FF9EA6FED7C9501200CD
:10120200600E0724096E000E08200A6E0950075C62
:101212000A500858D8B00BD007C0E9FF08C0EAFF4F
:10122200EFCF0EF0E6DF072A000E0822EFD71200FA
:10123200270ECD6E9D80370E0F014E6F7D82EC0E14
:10124200506F780E4F6F7F0E516F7D90FA0E526F76
:101252004F0EBA6EBA949D924B0EBB6E360EB16EA5
:10126200B1801200B2CF08F0B3CF09F0EA6AD89089
:101272000734450FE96E08C0EEFF09C0EEFF120009
:10128200B2CF08F0B3CF09F0EA6AD8900734450F1D
:10129200E96E0850EE5C0950EF58D8B00AD0EA6AFD
:1012A200D8900734450FE96EEE50085EEF50095AA8
:1012B2000DD0EA6AD8900734450FE96EEE1C0A6E2B
:1012C200EF1C0B6E0A5008260B500922EA6AD890CE
:1012D20007342D0FE96E0850EE5C0950EF58D8B074
:1012E20009D0EA6AD89007342D0FE96E08C0EEFFE4
:1012F20009C0EEFFEA6AD8900734450FE96EEE6A3C
:10130200EF6A1200136A146A1450D8A43AD00C0E71
:10131200136037D01150135C12501458D8B031D02A
:10132200D8901334E96E1434EA6E2D0EE926000EBD
:10133200EA22EECF15F0EECF16F015C017F016C068
:1013420018F08EDA19C015F01AC016F00FC0E9FFB6
:1013520010C0EAFF15C0EEFF16C0EEFF020E0F2608
:10136200000E1022D8901334E96E1434EA6E2D0E5A
:10137200E926000EEA22EE6AEF6A132A000E142210
:10138200C3D71350132412000750E96E0828EA6EDF
:10139200EF6A0728E96E010E0820EA6EEF6A020E74
:1013A2000724E96E010E0820EA6EEF901200165033
:1013B200E96E1728EA6EEFCF18F018501624E96E7E
:1013C200000E1720EA6EEFCF19F01650E96E1728BB
:1013D200EA6E1828EF6E020E1624E96E010E17202F
:1013E200EA6EEF90195012001528E96E010E1620D0
:1013F200EA6EEF28186E1550E96E1628EA6E18503C
:10140200EF18D8B417D01528E96E010E1620EA6E2F
:10141200EFCF19F019501524E96E000E1620EA6E6E
:1014220017C0EFFF1528E96E010E1620EA6E18C0EC
:10143200EFFF07D0020E1524E96E010E1620EA6EA8
:10144200EF801200020E1524E96E010E1620EA6EDC
:10145200D890EFB0D880120016281A6E010E17200D
:101462001B6EE9EC13F0186E16501A6E17281B6EDD
:10147200E9EC13F0196ED8901850196201D0D88097
:101482001200949CAC84B886220EAF6EB06AAB8E0A
:10149200AC98AC9CAB9CAB88AC8A9D8AAB96120094
:1014A2009EA8FED713C0ADFF1200086E6E0E020199
:1014B2006E612CD002EE00F06E51E92608C0EFFFFB
:1014C2006E2B08C013F0700E146E020E156E710EA4
:1014D200166E020E176EFEEC00F0120002016E6B29
:1014E200700E136E020E146E710E156E020E166ED3
:1014F2005EEF01F05F705FB003D00D0E136ED0D7B8
:10150200120002016F6BEADF5F9012000A6A050E99
:101512000B6E01C20CF0030E0D6ED7D80A6A050ECF
:101522000B6E6BD8EED7156A070E166E8BDFD8A03E
:1015320009D0120E126EBEEC11F0076A070E086E89
:1015420023DFE4D7166A070E176E86DFD8B054D0B1
:10155200166A070E176E2BDF076E02016F51D8B4A1
:1015620007D0010AD8B40DD0030AD8B410D0EAD7F4
:101572000F0E0762E7D7BEDFB1DF020E02016F6F07
:10158200E1D7075092DF020E02016F6FDBD7050E23
:10159200076204D0010E02016F6FD4D70F0E0762EB
:1015A20003D0A8DF9BDFCED7040E076222D05F9064
:1015B20002016F6B030E086E7153D8A40BD07053E7
:1015C200D8A408D0096A6EEC0FF0086E050E086206
:1015D20003D0B8D7020E086E0A6A050E0B6E00C25F
:1015E2000CF008C00DF071D80A6A050E0B6E05D812
:1015F200A9D707505ADFA6D712000AC0E9FF0BC0CD
:10160200EAFFEECF11F0EECF12F00AC00FF00BC0DE
:1016120010F00C0E136E146A0D0E156E166A5EEC47
:1016220001F00F0E136E3CDF11501210D8B428D007
:101632001106000E125A0FC0E9FF10C0EAFFEFCFE9
:101642000EF00F2A000E10220EC013F00C0E146EB4
:10165200156A0D0E166E176AFEEC00F00E500F0A98
:10166200D8B407D00E50050AD8B403D0040E0E62C7
:1016720003D0050E136E14DF0EC013F011DFD4D7A2
:101682000C500F0AD8B407D00C50050AD8B403D0B6
:10169200040E0C6203D0050E136E02DF0CC013F0B1
:1016A200FFDE0D500F0AD8B407D00D50050AD8B48A
:1016B20003D0040E0D6203D0050E136EF1DE0DC0D1
:1016C20013F0EEDE040E136EEBD6020E0A24E96E60
:1016D200000E0B20EA6E0CC0EFFF030E0A24E96E27
:1016E200000E0B20EA6E0DC0EFFF0AC0E9FF0BC02F
:1016F200EAFF040EEE6EEF6A0C50F30AD8B40DD076
:10170200030AD8B41CD01E0AD8B42CD0030AD8B409
:101712003DD0060AD8B453D06FD0010E0E6E040E1F
:101722000A240F6E000E0B20106E30D90AC0E9FF9A
:101732000BC0EAFF070EEE26000EEF225DD0040E6C
:101742000A240F6E000E0B20106E1168126ADADD89
:101752000E6E0AC0E9FF0BC0EAFF0E50EE26000E25
:10176200EF224AD0040E0A240F6E000E0B20106ED8
:101772001168126A52EC12F00E6E0AC0E9FF0BC039
:10178200EAFF0E50EE26000EEF2236D073EC13F075
:1017920010C00EF011C00FF0040E0A24E96E000E04
:1017A2000B20EA6E0EC0EEFF0FC0EEFF0AC0E9FF8B
:1017B2000BC0EAFF020EEE26000EEF221DD0540EE1
:1017C2000E6E17DD540AD8A409D0040E0A24E96E5D
:1017D200000E0B20EA6E010EEF6E07D0040E0A24F3
:1017E200E96E000E0B20EA6EEF6A0AC0E9FF0BC039
:1017F200EAFFEE2A000EEF22120081BA04D0010E97
:101802000001766F120081AA0ED00001762D09D058
:101812006BA105D001EC02F000016B9102D0000136
:101822006B810001766B1200D08E9F909F92A292E4
:101832007F907F929F8A9D8AF28CF28CF28E1200A8
:10184200F28CF28E12001A68030E1B6E010E1C6ED1
:1018520071EF01F01A68030E1B6E1C6871EF01F044
:1018620018C019F017C01AF0195012001FC020F04A
:101872001EC021F020501200126E136A0F0E1214B5
:10188200136E12380F0B126E12C01EF00A0EE0EC2D
:1018920001F020C012F0125013241200126E136ACB
:1018A200146A090E126411D012C01EF01F6A0A0EC9
:1018B200EEEC01F01EC014F014C01EF00A0EE0ECB3
:1018C20001F020C015F01550125E12C013F014384A
:1018D200F00B146E13501424120034DADE0E076E6D
:1018E200E7DA000AD8B407D0180E126EBEEC11F077
:1018F200DE0E2B6E12D0A20E076EDADA000AD8B410
:1019020007D0290E126EBEEC11F0A20E2B6E05D07E
:101912003A0E126EBEEC11F02B6ADE0E2B6227D04D
:101922002BC012F0136A96DA076E2BC012F0136AFC
:10193200880E0710146E0FDA2BC012F0030E136E0E
:1019420089DA076E2BC012F0030E136E080E071011
:10195200146E01DA4B0E126EBEEC11F02BC012F0B7
:10196200030E136E77DA086E1FEC12F00ED0A20E81
:101972002B620BD02BC012F0136A146AECD92BC065
:1019820012F0010E136E146AE6D112000E50010A13
:10199200D8B404D0010AD8B4E9D0D3D1DE0E2B6278
:1019A2006ED02BC012F0136A55DA7F0B65DF116E11
:1019B2000FC0E9FF10C0EAFF11C0EFFF2BC012F009
:1019C200010E136E47DA7F0B57DF116E0F28E96E97
:1019D200000E1020EA6E11C0EFFF2BC012F0020EB3
:1019E200136E38DA3F0B48DF116E020E0F24E96ED8
:1019F200000E1020EA6E11C0EFFF2BC012F0040E91
:101A0200136E28DA3F0B38DF116E030E0F24E96ED6
:101A1200000E1020EA6E11C0EFFF2BC012F0030E71
:101A2200136E18DA070B28DF116E060E0F24E96E0B
:101A3200000E1020EA6E11C0EFFF2BC012F0050E4F
:101A4200136E08DA1F0B18DF116E1106040E0F2435
:101A5200E96E000E1020EA6E11C0EFFF2BC012F0EB
:101A6200060E136EF7D9FF0B07DF116E050E0F245A
:101A7200E96E000E1020EA6E11C0EFFF62D1A20ED5
:101A82002B626FD02BC012F0020E136EE3D97F0BC4
:101A9200F3DE116E0FC0E9FF10C0EAFF11C0EFFFC5
:101AA2002BC012F0030E136ED5D97F0BE5DE116E3B
:101AB2000F28E96E000E1020EA6E11C0EFFF2BC056
:101AC20012F0040E136EC6D93F0BD6DE116E020E53
:101AD2000F24E96E000E1020EA6E11C0EFFF2BC03A
:101AE20012F0050E136EB6D93F0BC6DE116E030E51
:101AF2000F24E96E000E1020EA6E11C0EFFF2BC01A
:101B020012F0060E136EA6D9070BB6DE116E060E84
:101B12000F24E96E000E1020EA6E11C0EFFF2BC0F9
:101B220012F0070E136E96D91F0BA6DE116E110668
:101B3200040E0F24E96E000E1020EA6E11C0EFFFB2
:101B42002BC012F0080E136E85D9FF0B95DE116EB5
:101B5200050E0F24E96E000E1020EA6E11C0EFFF91
:101B6200F0D0540E126EBEEC11F0EBD0DE0E2B62F2
:101B720074D02BC012F0136A146AEDD80F28E96EE4
:101B8200000E1020EA6EEF5089DE116E2BC012F0AB
:101B9200010E136E11C014F0DED8020E0F24E96E8E
:101BA200000E1020EA6EEF5079DE116E2BC012F09B
:101BB200020E136E11C014F0CED8030E0F24E96E7C
:101BC200000E1020EA6EEF5069DE116E2BC012F08B
:101BD200040E136E11C014F0BED8060E0F24E96E67
:101BE200000E1020EA6EEF5059DE116E2BC012F07B
:101BF200030E136E080E1110146EADD8040E0F24CE
:101C0200E96E000E1020EA6EEF2848DE116E2BC03E
:101C120012F0050E136E11C014F09DD8050E0F249C
:101C2200E96E000E1020EA6EEF5038DE116E2BC006
:101C320012F0060E136E11C014F08DD80FC0E9FF1A
:101C420010C0EAFFEF502ADE116E2BC012F0136AA9
:101C5200800E1110146E7FD874D0A20E2B626ED03B
:101C62000FC0E9FF10C0EAFFEF5018DE116E2BC063
:101C720012F0020E136E11C014F06DD80F28E96E27
:101C8200000E1020EA6EEF5009DE116E2BC012F02A
:101C9200030E136E11C014F05ED8020E0F24E96E0B
:101CA200000E1020EA6EEF50F9DD116E2BC012F01B
:101CB200040E136E11C014F04ED8030E0F24E96EF9
:101CC200000E1020EA6EEF50E9DD116E2BC012F00B
:101CD200050E136E11C014F03ED8060E0F24E96EE5
:101CE200000E1020EA6EEF50D9DD116E2BC012F0FB
:101CF200060E136E11C014F02ED8040E0F24E96ED6
:101D0200000E1020EA6EEF28C9DD116E2BC012F012
:101D1200070E136E11C014F01ED8050E0F24E96EC3
:101D2200000E1020EA6EEF50B9DD116E2BC012F0DA
:101D3200080E136E11C014F00ED803D0540E126E9A
:101D42001CDB12000F01396B270E6E6E6D6A080ED6
:101D52006C6E6C8A12001290A49E6B80A4AEFED7A9
:101D6200A49E12C06FFFA4AEFED7A49E13C06FFF45
:101D7200A4AEFED7A49E14C06FFFA4AEFED7A49E4D
:101D82006B84A4AEFED7A49E12007F907FCF7FFF0C
:101D9200A49E6B80A4AEFED7A49E7FCF6FFFA4AE9D
:101DA200FED7A49E7FCF6FFFA4AEFED7A49E7F5026
:101DB200D8B40AD07F067F50EFEC13F06F6E7F2A03
:101DC200A4AEFED7A49EF3D76B84A4AEFED7A49E86
:101DD2001200FE0E7F147F6E7FCF7FFFA49E6B806A
:101DE200A4AEFED7A49E7FCF6FFFA4AEFED7A49E63
:101DF2007FCF6FFFA4AEFED7A49E6B84A4AEFED7A6
:101E0200A49EA49E6B80A4AEFED7A49E010E7F105A
:101E12007F6E7FCF6FFFA4AEFED7A49E7F50D8B453
:101E220014D0A49E6B86A4AEFED77FCFE9FFEA6AE8
:101E32006FCFEFFF7F2A7F067F50D8B4EFD7A49EE3
:101E42006B886B9AA4BEEAD7FDD76B84A4AEFED78B
:101E5200A49E1200FE0E1214146EA49E6B80A4AEF9
:101E6200FED7A49E14C06FFFA4AEFED7A49E13C0DB
:101E72006FFFA4AEFED7A49E6B84A4AEFED7A49E31
:101E8200A49E6B82A4AEFED7A49E148014C06FFFE2
:101E9200A4AEFED7A49E6B86A4AEFED7A49E6B987A
:101EA2006FCF15F06B84A4AEFED7A49E155012001E
:101EB200A49E6B80A4AEFED7A49E07C06FFFA4AE03
:101EC200FED7A49E400E6B14086E6B84A4AEFED7A0
:101ED200A49E0852D8B4010C000C00016BB3010C93
:101EE200020EEA6E09C0E9FFEF50F80AD8B428D012
:101EF2000F0AD8B428D0010AD8B432D0080AD8B40C
:101F02005BD00B0AD8B45DD0060AD8B46AD0070AEF
:101F1200D8B468D0050AD8B49BD0010AD8B49DD0F1
:101F22001E0AD8B49BD0030AD8B499D0110AD8B4E7
:101F320097D0050AD8B499D0120AD8B49BD09BD0B6
:101F420000016B83000CEA6A620E00016625E96EED
:101F520069C0EFFF662B020E0E6E09C00DF0BBD1F9
:101F620000016607EA6A620E6625E96EEFCF0AF0A3
:101F7200020EEA6E0928E96E0A283F0BEF6E020E86
:101F8200EA6E040E0924E96E66C0EFFF020EEA6EE5
:101F9200030E0924E96EEFCF0BF0020EEA6E020E79
:101FA2000924E96E0BC0EFFF020E0E6E09C00DF0A0
:101FB20092D90C6E0C501200020E0E6E09C00DF07A
:101FC2008AD10A6A050E0B6EF50E0C6E0D6A66EC6E
:101FD2000BF00A6A050E0B6EFEEC0AF03BDCFF000A
:101FE200000C000C020EEA6E060E0924E96EEFCF19
:101FF20029F0020EEA6E050E0924E96EEFCF28F0F1
:10200200020EEA6E040E0924E96EEFCF27F0020EEB
:10201200EA6E070E0924E96EEFCF2AF0020EEA6E8D
:10202200030E0924E96EEFCF26F0020EEA6E020ECD
:102032000924E96EEFCF25F0020EEA6E0928E96E57
:10204200EFCF24F00E6A240E0F6E106A9FDC000C94
:1020520009280A6E71EC02F0050C000C000C000C51
:10206200020E0E6E09C00DF036D1020E0E6E09C0C0
:102072000DF031D1000C040CFD0E1A6E030E1B6E16
:102082001C6A71EC01F000016A6BFB0E1A6E030E02
:102092001B6E1C6A71EC01F0686BF90E1A6E030E6E
:1020A2001B6E1C6A71EC01F0696B68C067F0606BB3
:1020B200616B6B931200FD0E0F6E030E106E8BECB4
:1020C20001F000016A6FFB0E0F6E030E106E8BECB7
:1020D20001F0686FF90E0F6E030E106E8BEC01F0BB
:1020E200696F68C067F06B81120000016BB3C4DFD7
:1020F20000016BA11200000160516111D8A412000D
:1021020000016751696301D0120067C01EF00B0E17
:10211200E0EC01F02050076E2150086E770E096E38
:1021220007C00AF008C00BF00B0E0C6EB6EC01F003
:1021320000017751F70AD8B40DD0010AD8B419D0EA
:102142000A0AD8B465D0050AD8B486D0070AD8B42A
:10215200A6D0C0D0000167293F0B676FFD0E1A6E33
:10216200030E1B6E010E1C6E71EC01F0010E6A6F04
:10217200B1D000017953D8A403D078C067F0AAD0B7
:10218200010E000179650FD07907770E126E136A7E
:1021920007C014F008C015F00B0E166E96EC01F095
:1021A20078C067F097D000017B53D8A416D0672976
:1021B2003F0B676FFB0E1A6E030E1B6E67C01CF09F
:1021C20071EC01F067C068F0FD0E1A6E030E1B6E13
:1021D2001C6A71EC01F06A6B7DD07AC079F067C03D
:1021E2001EF00B0EE0EC01F02050096E21500A6E39
:1021F200770E126E136A09C014F00AC015F00B0EA6
:10220200166E96EC01F0000167293F0B676F62D0F2
:10221200780E096E93EC03F000017F53D8A40AD024
:1022220080C01EF081C01FF037EC0CF020C060F0BF
:1022320021C061F0000167293F0B676F6A53D8A480
:1022420049D0FB0E1A6E030E1B6E67C01CF071ECB8
:1022520001F067C068F03ED0780E096E42EC05F0DE
:1022620000017EBF0AD080C01EF081C01FF037EC93
:102272000CF020C060F021C061F0000167293F0B23
:10228200676F6A53D8A426D0FB0E1A6E030E1B6E1C
:1022920067C01CF071EC01F067C068F01BD078C019
:1022A2001EF079C01FF037EC0CF020C060F021C0A6
:1022B20061F0000167293F0B676F6A53D8A40AD007
:1022C200FB0E1A6E030E1B6E67C01CF071EC01F060
:1022D20067C068F0120000016BA16B8100016929DF
:1022E2003F0B0F6E0F506819D8B420D069C01EF092
:1022F2000B0EE0EC01F02050106E2150116E0DC05B
:1023020012F00EC013F010C014F011C015F00B0E35
:10231200166E96EC01F0F90E1A6E030E1B6E0FC0CC
:102322001CF071EC01F00FC069F0000C010C00010F
:1023320060516111D8B403D06007000E615B1200D6
:1023420000016151D8A405D0080E606102D0606B13
:10235200616B1200830E076E086AC5EF09F0830EE7
:10236200156E166A23EC0AF0D8B01200830E156EB1
:10237200166A14C017F0F5EF09F0830E156E166A8F
:1023820023EC0AF0D8B0120012502ADA136E13525C
:10239200D8B408D0122A13C014F0E1DF125020DAA8
:1023A200136EF5D712007FCF14F0D9D77F6E830E4C
:1023B200156E166A23EC0AF0D8B012007F6A7F6AA3
:1023C2007F6A630E7F6412D07FCF1EF01F6A640E95
:1023D200EEEC01F01EC07FFF7F6A640E1E6E7F501E
:1023E200E0EC01F020C07FFF7F507F5E090E7F642A
:1023F20012D07FCF1EF01F6A0A0EEEEC01F01EC053
:102402007FFF7F6A7FCF1EF00A0EE0EC01F020C052
:102412007FFF7F507F5E090E7F647FCF7FFF7F50FB
:10242200D8B404D0300E7F24146E99DF300E7F248E
:10243200146E95DF300E7F24146E91D7830E156EC5
:10244200166A23EC0AF0D8B01200F00E0814096ED6
:1024520009380F0B096E090E096407D00A0E095ECE
:10246200410E0924146E7BDF04D0300E0924146E51
:1024720076DF0F0E0814096E090E096407D00A0EE2
:10248200095E410E0924146E6ADF04D0300E09245D
:10249200146E65D712007FCF08F0D0DF7FCF08F02F
:1024A200CDD7136A146A830E166E176A2DEC0AF0E2
:1024B200D8B019D01150135C12501458D8B013D0A0
:1024C200830E166E176AD8EC09F0156E0FC0E9FF7D
:1024D20010C0EAFF15C0EFFF0F2A000E1022132AC8
:1024E200000E1422E0D713501200F00E7F6003D0CA
:1024F200500E7F60010C000C7FCFF8FF7FCFF7FFFB
:102502007FCFF6FF7F6A7F6A7F507F5C7F507F5864
:10251200D8B00ED009007FCFE9FF7FCFEAFFF5CF19
:10252200EFFF7F2A000E7F227F2A000E7F22ECD748
:1025320012007FCF7FFF7FCF7FFF7FCF7FFF7F0E96
:102542007F6E0F0E7F6E020E7F6E7F6AD5DF7F5029
:1025520012007F507F247F6E7F507F207F6E7FCF5F
:102562007FFF7FCF7FFFC1DF000AD8B412007FCF89
:102572007FFF7FCF7FFFB9DF000AD8B412007F5000
:102582007F5C7F507F58D8B078D07F507F6EC00E6E
:102592007F147F6E7F507F5C7F6E7F507F587F6E8F
:1025A2007F6A7FCF7FFF7FCF7FFF7F0E7F6E0F0E11
:1025B2007F6E400E7F6E7F6A9FDF7FCF7FFF7FCF70
:1025C2007FFF5CD87F6A7F6A7F50D8A425D0400EF7
:1025D2007F6022D07F507F5C7F507F58D8A018D078
:1025E2007F507F247F6E7F507F207F6E7F507F5C85
:1025F2007F507F58D8B00CD07F5039D97F6E7F2A58
:102602007F0E7F24E96E0F0E7F20EA6E7FCFEFFFF1
:102612007F2A000E7F22D8D7F86A7FCFF7FF7FCFBD
:10262200F6FF7F6A7F6A7F50D8A410D0400E7F6089
:102632000DD07F0E7F24E96E0F0E7F20EA6EEFCF62
:10264200F5FF0D007F2A000E7F22EDD7F86A7FCFBB
:10265200F7FF7FCFF6FFA68EA69CA684F29E550EAC
:10266200A76EAA0EA76EA682F28EA694400E7F24B3
:102672007F6E000E7F207F6E82D712007F507F6EAA
:10268200C00E7F147F6E7FCF7FFF7FCF7FFF2DDF56
:10269200000AD8B41200F86A7FCFF7FF7FCFF6FFA7
:1026A200A68EA69CA684A688F29E550EA76EAA0E9A
:1026B200A76EA682F28E0A0012007F6E7F507F6E96
:1026C200C00E7F147F6E7F50D8B40BD07F067FCFB1
:1026D2007FFF7FCF7FFFD2DF400E7F26000E7F225B
:1026E200F2D712005B0E7CD8176E0B00F550186EF5
:1026F20031EC0CF019C010F01AC011F01050120099
:10270200A3EC0EF0DE0E076E59EC0FF0000AD8B4FF
:102712000AD0010E0001826FDE0E126E1368146A77
:10272200ACEC0EF002D00001826B1200800E7F60D2
:102732000DD000018253D8B40CD0DE0E126E7FCFC2
:1027420013F07FCF14F0ACEC0EF003D05D0E126EDE
:1027520014D61200800E7F600AD000018253D8B4D2
:1027620009D0DE0E126E7FCF13F02BEF0FF05D0E4D
:10277200126E03DE000C800E7F600FD000018253C8
:10278200D8B40ED0DE0E7F6E7FCF7FFF7FCF7FFF6C
:102792007FCF7FFFC6EC0EF003D05D0E126EEDD53B
:1027A2001200800E7F600FD000018253D8B40ED089
:1027B200DE0E7F6E7FCF7FFF7FCF7FFF7FCF7FFFDA
:1027C200EAEC0EF003D05D0E126ED7D51200000CAB
:1027D2001A50E96E1B50EA6EEF5012007F6E000C29
:1027E200146E1450F80FF66E270EF76AF722F86A85
:1027F2000800F550120020496E697420446F6E651E
:102802002000453A30313B00453A30323B00203718
:102812003934313020646574656374656420002046
:10282200383536344A4520646574656374656400DE
:10283200204E4F205254432064657465637465646E
:1028420000205254432030333A004E4F205254431A
:10285200001B00696E76616C69642065787420657E
:102862006570726F6D2061647265737300007F6EB4
:02287200000C58
:0200E0001B0003
:00000001FF
